{
	"contracts/04VarStorage.sol": {
		"VarStorage": {
			"abi": [
				{
					"inputs": [
						{
							"internalType": "uint256[]",
							"name": "_x",
							"type": "uint256[]"
						}
					],
					"name": "fCalldata",
					"outputs": [
						{
							"internalType": "uint256[]",
							"name": "",
							"type": "uint256[]"
						}
					],
					"stateMutability": "pure",
					"type": "function"
				},
				{
					"inputs": [],
					"name": "fMemory",
					"outputs": [],
					"stateMutability": "view",
					"type": "function"
				},
				{
					"inputs": [],
					"name": "fStorage",
					"outputs": [],
					"stateMutability": "nonpayable",
					"type": "function"
				}
			],
			"devdoc": {
				"kind": "dev",
				"methods": {},
				"version": 1
			},
			"evm": {
				"assembly": "    /* \"contracts/04VarStorage.sol\":1166:2027  contract VarStorage{... */\n  mstore(0x40, 0x80)\n    /* \"contracts/04VarStorage.sol\":1192:1210  uint[] x = [1,2,3] */\n  mload(0x40)\n  dup1\n  0x60\n  add\n  0x40\n  mstore\n  dup1\n    /* \"contracts/04VarStorage.sol\":1204:1205  1 */\n  0x01\n    /* \"contracts/04VarStorage.sol\":1192:1210  uint[] x = [1,2,3] */\n  0xff\n  and\n  dup2\n  mstore\n  0x20\n  add\n    /* \"contracts/04VarStorage.sol\":1206:1207  2 */\n  0x02\n    /* \"contracts/04VarStorage.sol\":1192:1210  uint[] x = [1,2,3] */\n  0xff\n  and\n  dup2\n  mstore\n  0x20\n  add\n    /* \"contracts/04VarStorage.sol\":1208:1209  3 */\n  0x03\n    /* \"contracts/04VarStorage.sol\":1192:1210  uint[] x = [1,2,3] */\n  0xff\n  and\n  dup2\n  mstore\n  pop\n  0x00\n  swap1\n  0x03\n  tag_1\n  swap3\n  swap2\n  swap1\n  tag_2\n  jump\t// in\ntag_1:\n  pop\n    /* \"contracts/04VarStorage.sol\":1166:2027  contract VarStorage{... */\n  callvalue\n  dup1\n  iszero\n  tag_3\n  jumpi\n  0x00\n  dup1\n  revert\ntag_3:\n  pop\n  jump(tag_4)\ntag_2:\n  dup3\n  dup1\n  sload\n  dup3\n  dup3\n  sstore\n  swap1\n  0x00\n  mstore\n  keccak256(0x00, 0x20)\n  swap1\n  dup2\n  add\n  swap3\n  dup3\n  iszero\n  tag_5\n  jumpi\n  swap2\n  0x20\n  mul\n  dup3\n  add\ntag_6:\n  dup3\n  dup2\n  gt\n  iszero\n  tag_7\n  jumpi\n  dup3\n  mload\n  dup3\n  swap1\n  0xff\n  and\n  swap1\n  sstore\n  swap2\n  0x20\n  add\n  swap2\n  swap1\n  0x01\n  add\n  swap1\n  jump(tag_6)\ntag_7:\ntag_5:\n  pop\n  swap1\n  pop\n  tag_8\n  swap2\n  swap1\n  tag_9\n  jump\t// in\ntag_8:\n  pop\n  swap1\n  jump\t// out\ntag_9:\ntag_10:\n  dup1\n  dup3\n  gt\n  iszero\n  tag_11\n  jumpi\n  0x00\n  dup2\n  0x00\n  swap1\n  sstore\n  pop\n  0x01\n  add\n  jump(tag_10)\ntag_11:\n  pop\n  swap1\n  jump\t// out\ntag_4:\n  dataSize(sub_0)\n  dup1\n  dataOffset(sub_0)\n  0x00\n  codecopy\n  0x00\n  return\nstop\n\nsub_0: assembly {\n        /* \"contracts/04VarStorage.sol\":1166:2027  contract VarStorage{... */\n      mstore(0x40, 0x80)\n      callvalue\n      dup1\n      iszero\n      tag_1\n      jumpi\n      0x00\n      dup1\n      revert\n    tag_1:\n      pop\n      jumpi(tag_2, lt(calldatasize, 0x04))\n      shr(0xe0, calldataload(0x00))\n      dup1\n      0x20028990\n      eq\n      tag_3\n      jumpi\n      dup1\n      0x6a8d1e08\n      eq\n      tag_4\n      jumpi\n      dup1\n      0x9b1a379c\n      eq\n      tag_5\n      jumpi\n    tag_2:\n      0x00\n      dup1\n      revert\n        /* \"contracts/04VarStorage.sol\":1735:2024  function fMemory() public view{... */\n    tag_3:\n      tag_6\n      tag_7\n      jump\t// in\n    tag_6:\n      stop\n        /* \"contracts/04VarStorage.sol\":1457:1646  function fStorage() public{... */\n    tag_4:\n      tag_8\n      tag_9\n      jump\t// in\n    tag_8:\n      stop\n        /* \"contracts/04VarStorage.sol\":1246:1449  function fCalldata(uint[] calldata _x) public pure returns(uint[] calldata){... */\n    tag_5:\n      tag_10\n      0x04\n      dup1\n      calldatasize\n      sub\n      dup2\n      add\n      swap1\n      tag_11\n      swap2\n      swap1\n      tag_12\n      jump\t// in\n    tag_11:\n      tag_13\n      jump\t// in\n    tag_10:\n      mload(0x40)\n      tag_14\n      swap3\n      swap2\n      swap1\n      tag_15\n      jump\t// in\n    tag_14:\n      mload(0x40)\n      dup1\n      swap2\n      sub\n      swap1\n      return\n        /* \"contracts/04VarStorage.sol\":1735:2024  function fMemory() public view{... */\n    tag_7:\n        /* \"contracts/04VarStorage.sol\":1872:1893  uint[] memory xMemory */\n      0x00\n        /* \"contracts/04VarStorage.sol\":1896:1897  x */\n      dup1\n        /* \"contracts/04VarStorage.sol\":1872:1897  uint[] memory xMemory = x */\n      dup1\n      sload\n      dup1\n      0x20\n      mul\n      0x20\n      add\n      mload(0x40)\n      swap1\n      dup2\n      add\n      0x40\n      mstore\n      dup1\n      swap3\n      swap2\n      swap1\n      dup2\n      dup2\n      mstore\n      0x20\n      add\n      dup3\n      dup1\n      sload\n      dup1\n      iszero\n      tag_17\n      jumpi\n      0x20\n      mul\n      dup3\n      add\n      swap2\n      swap1\n      0x00\n      mstore\n      keccak256(0x00, 0x20)\n      swap1\n    tag_18:\n      dup2\n      sload\n      dup2\n      mstore\n      0x20\n      add\n      swap1\n      0x01\n      add\n      swap1\n      dup1\n      dup4\n      gt\n      tag_18\n      jumpi\n    tag_17:\n      pop\n      pop\n      pop\n      pop\n      pop\n      swap1\n      pop\n        /* \"contracts/04VarStorage.sol\":1921:1924  100 */\n      0x64\n        /* \"contracts/04VarStorage.sol\":1908:1915  xMemory */\n      dup2\n        /* \"contracts/04VarStorage.sol\":1916:1917  0 */\n      0x00\n        /* \"contracts/04VarStorage.sol\":1908:1918  xMemory[0] */\n      dup2\n      mload\n      dup2\n      lt\n      tag_19\n      jumpi\n      tag_20\n      tag_21\n      jump\t// in\n    tag_20:\n    tag_19:\n      0x20\n      mul\n      0x20\n      add\n      add\n        /* \"contracts/04VarStorage.sol\":1908:1924  xMemory[0] = 100 */\n      dup2\n      dup2\n      mstore\n      pop\n      pop\n        /* \"contracts/04VarStorage.sol\":1948:1951  200 */\n      0xc8\n        /* \"contracts/04VarStorage.sol\":1935:1942  xMemory */\n      dup2\n        /* \"contracts/04VarStorage.sol\":1943:1944  1 */\n      0x01\n        /* \"contracts/04VarStorage.sol\":1935:1945  xMemory[1] */\n      dup2\n      mload\n      dup2\n      lt\n      tag_22\n      jumpi\n      tag_23\n      tag_21\n      jump\t// in\n    tag_23:\n    tag_22:\n      0x20\n      mul\n      0x20\n      add\n      add\n        /* \"contracts/04VarStorage.sol\":1935:1951  xMemory[1] = 200 */\n      dup2\n      dup2\n      mstore\n      pop\n      pop\n        /* \"contracts/04VarStorage.sol\":1962:1984  uint[] memory xMemory2 */\n      0x00\n        /* \"contracts/04VarStorage.sol\":1987:1988  x */\n      dup1\n        /* \"contracts/04VarStorage.sol\":1962:1988  uint[] memory xMemory2 = x */\n      dup1\n      sload\n      dup1\n      0x20\n      mul\n      0x20\n      add\n      mload(0x40)\n      swap1\n      dup2\n      add\n      0x40\n      mstore\n      dup1\n      swap3\n      swap2\n      swap1\n      dup2\n      dup2\n      mstore\n      0x20\n      add\n      dup3\n      dup1\n      sload\n      dup1\n      iszero\n      tag_24\n      jumpi\n      0x20\n      mul\n      dup3\n      add\n      swap2\n      swap1\n      0x00\n      mstore\n      keccak256(0x00, 0x20)\n      swap1\n    tag_25:\n      dup2\n      sload\n      dup2\n      mstore\n      0x20\n      add\n      swap1\n      0x01\n      add\n      swap1\n      dup1\n      dup4\n      gt\n      tag_25\n      jumpi\n    tag_24:\n      pop\n      pop\n      pop\n      pop\n      pop\n      swap1\n      pop\n        /* \"contracts/04VarStorage.sol\":2013:2016  300 */\n      0x012c\n        /* \"contracts/04VarStorage.sol\":1999:2007  xMemory2 */\n      dup2\n        /* \"contracts/04VarStorage.sol\":2008:2009  0 */\n      0x00\n        /* \"contracts/04VarStorage.sol\":1999:2010  xMemory2[0] */\n      dup2\n      mload\n      dup2\n      lt\n      tag_26\n      jumpi\n      tag_27\n      tag_21\n      jump\t// in\n    tag_27:\n    tag_26:\n      0x20\n      mul\n      0x20\n      add\n      add\n        /* \"contracts/04VarStorage.sol\":1999:2016  xMemory2[0] = 300 */\n      dup2\n      dup2\n      mstore\n      pop\n      pop\n        /* \"contracts/04VarStorage.sol\":1765:2024  {... */\n      pop\n      pop\n        /* \"contracts/04VarStorage.sol\":1735:2024  function fMemory() public view{... */\n      jump\t// out\n        /* \"contracts/04VarStorage.sol\":1457:1646  function fStorage() public{... */\n    tag_9:\n        /* \"contracts/04VarStorage.sol\":1583:1606  uint[] storage xStorage */\n      0x00\n        /* \"contracts/04VarStorage.sol\":1635:1638  100 */\n      0x64\n        /* \"contracts/04VarStorage.sol\":1621:1629  xStorage */\n      dup2\n        /* \"contracts/04VarStorage.sol\":1630:1631  0 */\n      0x00\n        /* \"contracts/04VarStorage.sol\":1621:1632  xStorage[0] */\n      dup2\n      sload\n      dup2\n      lt\n      tag_29\n      jumpi\n      tag_30\n      tag_21\n      jump\t// in\n    tag_30:\n    tag_29:\n      swap1\n      0x00\n      mstore\n      keccak256(0x00, 0x20)\n      add\n        /* \"contracts/04VarStorage.sol\":1621:1638  xStorage[0] = 100 */\n      dup2\n      swap1\n      sstore\n      pop\n        /* \"contracts/04VarStorage.sol\":1483:1646  {... */\n      pop\n        /* \"contracts/04VarStorage.sol\":1457:1646  function fStorage() public{... */\n      jump\t// out\n        /* \"contracts/04VarStorage.sol\":1246:1449  function fCalldata(uint[] calldata _x) public pure returns(uint[] calldata){... */\n    tag_13:\n        /* \"contracts/04VarStorage.sol\":1305:1320  uint[] calldata */\n      calldatasize\n      0x00\n        /* \"contracts/04VarStorage.sol\":1438:1440  _x */\n      dup4\n      dup4\n        /* \"contracts/04VarStorage.sol\":1431:1441  return(_x) */\n      swap2\n      pop\n      swap2\n      pop\n        /* \"contracts/04VarStorage.sol\":1246:1449  function fCalldata(uint[] calldata _x) public pure returns(uint[] calldata){... */\n      swap3\n      pop\n      swap3\n      swap1\n      pop\n      jump\t// out\n        /* \"#utility.yul\":88:205   */\n    tag_34:\n        /* \"#utility.yul\":197:198   */\n      0x00\n        /* \"#utility.yul\":194:195   */\n      dup1\n        /* \"#utility.yul\":187:199   */\n      revert\n        /* \"#utility.yul\":211:328   */\n    tag_35:\n        /* \"#utility.yul\":320:321   */\n      0x00\n        /* \"#utility.yul\":317:318   */\n      dup1\n        /* \"#utility.yul\":310:322   */\n      revert\n        /* \"#utility.yul\":334:451   */\n    tag_36:\n        /* \"#utility.yul\":443:444   */\n      0x00\n        /* \"#utility.yul\":440:441   */\n      dup1\n        /* \"#utility.yul\":433:445   */\n      revert\n        /* \"#utility.yul\":457:574   */\n    tag_37:\n        /* \"#utility.yul\":566:567   */\n      0x00\n        /* \"#utility.yul\":563:564   */\n      dup1\n        /* \"#utility.yul\":556:568   */\n      revert\n        /* \"#utility.yul\":580:697   */\n    tag_38:\n        /* \"#utility.yul\":689:690   */\n      0x00\n        /* \"#utility.yul\":686:687   */\n      dup1\n        /* \"#utility.yul\":679:691   */\n      revert\n        /* \"#utility.yul\":720:1288   */\n    tag_39:\n        /* \"#utility.yul\":793:801   */\n      0x00\n        /* \"#utility.yul\":803:809   */\n      dup1\n        /* \"#utility.yul\":853:856   */\n      dup4\n        /* \"#utility.yul\":846:850   */\n      0x1f\n        /* \"#utility.yul\":838:844   */\n      dup5\n        /* \"#utility.yul\":834:851   */\n      add\n        /* \"#utility.yul\":830:857   */\n      slt\n        /* \"#utility.yul\":820:942   */\n      tag_52\n      jumpi\n        /* \"#utility.yul\":861:940   */\n      tag_53\n      tag_36\n      jump\t// in\n    tag_53:\n        /* \"#utility.yul\":820:942   */\n    tag_52:\n        /* \"#utility.yul\":974:980   */\n      dup3\n        /* \"#utility.yul\":961:981   */\n      calldataload\n        /* \"#utility.yul\":951:981   */\n      swap1\n      pop\n        /* \"#utility.yul\":1004:1022   */\n      0xffffffffffffffff\n        /* \"#utility.yul\":996:1002   */\n      dup2\n        /* \"#utility.yul\":993:1023   */\n      gt\n        /* \"#utility.yul\":990:1107   */\n      iszero\n      tag_54\n      jumpi\n        /* \"#utility.yul\":1026:1105   */\n      tag_55\n      tag_37\n      jump\t// in\n    tag_55:\n        /* \"#utility.yul\":990:1107   */\n    tag_54:\n        /* \"#utility.yul\":1140:1144   */\n      0x20\n        /* \"#utility.yul\":1132:1138   */\n      dup4\n        /* \"#utility.yul\":1128:1145   */\n      add\n        /* \"#utility.yul\":1116:1145   */\n      swap2\n      pop\n        /* \"#utility.yul\":1194:1197   */\n      dup4\n        /* \"#utility.yul\":1186:1190   */\n      0x20\n        /* \"#utility.yul\":1178:1184   */\n      dup3\n        /* \"#utility.yul\":1174:1191   */\n      mul\n        /* \"#utility.yul\":1164:1172   */\n      dup4\n        /* \"#utility.yul\":1160:1192   */\n      add\n        /* \"#utility.yul\":1157:1198   */\n      gt\n        /* \"#utility.yul\":1154:1282   */\n      iszero\n      tag_56\n      jumpi\n        /* \"#utility.yul\":1201:1280   */\n      tag_57\n      tag_38\n      jump\t// in\n    tag_57:\n        /* \"#utility.yul\":1154:1282   */\n    tag_56:\n        /* \"#utility.yul\":720:1288   */\n      swap3\n      pop\n      swap3\n      swap1\n      pop\n      jump\t// out\n        /* \"#utility.yul\":1294:1853   */\n    tag_12:\n        /* \"#utility.yul\":1380:1386   */\n      0x00\n        /* \"#utility.yul\":1388:1394   */\n      dup1\n        /* \"#utility.yul\":1437:1439   */\n      0x20\n        /* \"#utility.yul\":1425:1434   */\n      dup4\n        /* \"#utility.yul\":1416:1423   */\n      dup6\n        /* \"#utility.yul\":1412:1435   */\n      sub\n        /* \"#utility.yul\":1408:1440   */\n      slt\n        /* \"#utility.yul\":1405:1524   */\n      iszero\n      tag_59\n      jumpi\n        /* \"#utility.yul\":1443:1522   */\n      tag_60\n      tag_34\n      jump\t// in\n    tag_60:\n        /* \"#utility.yul\":1405:1524   */\n    tag_59:\n        /* \"#utility.yul\":1591:1592   */\n      0x00\n        /* \"#utility.yul\":1580:1589   */\n      dup4\n        /* \"#utility.yul\":1576:1593   */\n      add\n        /* \"#utility.yul\":1563:1594   */\n      calldataload\n        /* \"#utility.yul\":1621:1639   */\n      0xffffffffffffffff\n        /* \"#utility.yul\":1613:1619   */\n      dup2\n        /* \"#utility.yul\":1610:1640   */\n      gt\n        /* \"#utility.yul\":1607:1724   */\n      iszero\n      tag_61\n      jumpi\n        /* \"#utility.yul\":1643:1722   */\n      tag_62\n      tag_35\n      jump\t// in\n    tag_62:\n        /* \"#utility.yul\":1607:1724   */\n    tag_61:\n        /* \"#utility.yul\":1756:1836   */\n      tag_63\n        /* \"#utility.yul\":1828:1835   */\n      dup6\n        /* \"#utility.yul\":1819:1825   */\n      dup3\n        /* \"#utility.yul\":1808:1817   */\n      dup7\n        /* \"#utility.yul\":1804:1826   */\n      add\n        /* \"#utility.yul\":1756:1836   */\n      tag_39\n      jump\t// in\n    tag_63:\n        /* \"#utility.yul\":1738:1836   */\n      swap3\n      pop\n      swap3\n      pop\n        /* \"#utility.yul\":1534:1846   */\n      pop\n        /* \"#utility.yul\":1294:1853   */\n      swap3\n      pop\n      swap3\n      swap1\n      pop\n      jump\t// out\n        /* \"#utility.yul\":1859:2043   */\n    tag_40:\n        /* \"#utility.yul\":1958:1969   */\n      0x00\n        /* \"#utility.yul\":1992:1998   */\n      dup3\n        /* \"#utility.yul\":1987:1990   */\n      dup3\n        /* \"#utility.yul\":1980:1999   */\n      mstore\n        /* \"#utility.yul\":2032:2036   */\n      0x20\n        /* \"#utility.yul\":2027:2030   */\n      dup3\n        /* \"#utility.yul\":2023:2037   */\n      add\n        /* \"#utility.yul\":2008:2037   */\n      swap1\n      pop\n        /* \"#utility.yul\":1859:2043   */\n      swap3\n      swap2\n      pop\n      pop\n      jump\t// out\n        /* \"#utility.yul\":2049:2166   */\n    tag_41:\n        /* \"#utility.yul\":2158:2159   */\n      0x00\n        /* \"#utility.yul\":2155:2156   */\n      dup1\n        /* \"#utility.yul\":2148:2160   */\n      revert\n        /* \"#utility.yul\":2172:2326   */\n    tag_42:\n        /* \"#utility.yul\":2256:2262   */\n      dup3\n        /* \"#utility.yul\":2251:2254   */\n      dup2\n        /* \"#utility.yul\":2246:2249   */\n      dup4\n        /* \"#utility.yul\":2233:2263   */\n      calldatacopy\n        /* \"#utility.yul\":2318:2319   */\n      0x00\n        /* \"#utility.yul\":2309:2315   */\n      dup4\n        /* \"#utility.yul\":2304:2307   */\n      dup4\n        /* \"#utility.yul\":2300:2316   */\n      add\n        /* \"#utility.yul\":2293:2320   */\n      mstore\n        /* \"#utility.yul\":2172:2326   */\n      pop\n      pop\n      pop\n      jump\t// out\n        /* \"#utility.yul\":2362:2899   */\n    tag_43:\n        /* \"#utility.yul\":2490:2493   */\n      0x00\n        /* \"#utility.yul\":2511:2597   */\n      tag_68\n        /* \"#utility.yul\":2590:2596   */\n      dup4\n        /* \"#utility.yul\":2585:2588   */\n      dup6\n        /* \"#utility.yul\":2511:2597   */\n      tag_40\n      jump\t// in\n    tag_68:\n        /* \"#utility.yul\":2504:2597   */\n      swap4\n      pop\n        /* \"#utility.yul\":2621:2687   */\n      0x07ffffffffffffffffffffffffffffffffffffffffffffffffffffffffffffff\n        /* \"#utility.yul\":2613:2619   */\n      dup4\n        /* \"#utility.yul\":2610:2688   */\n      gt\n        /* \"#utility.yul\":2607:2772   */\n      iszero\n      tag_69\n      jumpi\n        /* \"#utility.yul\":2691:2770   */\n      tag_70\n      tag_41\n      jump\t// in\n    tag_70:\n        /* \"#utility.yul\":2607:2772   */\n    tag_69:\n        /* \"#utility.yul\":2803:2807   */\n      0x20\n        /* \"#utility.yul\":2795:2801   */\n      dup4\n        /* \"#utility.yul\":2791:2808   */\n      mul\n        /* \"#utility.yul\":2781:2808   */\n      swap3\n      pop\n        /* \"#utility.yul\":2818:2861   */\n      tag_71\n        /* \"#utility.yul\":2854:2860   */\n      dup4\n        /* \"#utility.yul\":2849:2852   */\n      dup6\n        /* \"#utility.yul\":2842:2847   */\n      dup5\n        /* \"#utility.yul\":2818:2861   */\n      tag_42\n      jump\t// in\n    tag_71:\n        /* \"#utility.yul\":2886:2892   */\n      dup3\n        /* \"#utility.yul\":2881:2884   */\n      dup5\n        /* \"#utility.yul\":2877:2893   */\n      add\n        /* \"#utility.yul\":2870:2893   */\n      swap1\n      pop\n        /* \"#utility.yul\":2362:2899   */\n      swap4\n      swap3\n      pop\n      pop\n      pop\n      jump\t// out\n        /* \"#utility.yul\":2905:3298   */\n    tag_15:\n        /* \"#utility.yul\":3058:3062   */\n      0x00\n        /* \"#utility.yul\":3096:3098   */\n      0x20\n        /* \"#utility.yul\":3085:3094   */\n      dup3\n        /* \"#utility.yul\":3081:3099   */\n      add\n        /* \"#utility.yul\":3073:3099   */\n      swap1\n      pop\n        /* \"#utility.yul\":3145:3154   */\n      dup2\n        /* \"#utility.yul\":3139:3143   */\n      dup2\n        /* \"#utility.yul\":3135:3155   */\n      sub\n        /* \"#utility.yul\":3131:3132   */\n      0x00\n        /* \"#utility.yul\":3120:3129   */\n      dup4\n        /* \"#utility.yul\":3116:3133   */\n      add\n        /* \"#utility.yul\":3109:3156   */\n      mstore\n        /* \"#utility.yul\":3173:3291   */\n      tag_73\n        /* \"#utility.yul\":3286:3290   */\n      dup2\n        /* \"#utility.yul\":3277:3283   */\n      dup5\n        /* \"#utility.yul\":3269:3275   */\n      dup7\n        /* \"#utility.yul\":3173:3291   */\n      tag_43\n      jump\t// in\n    tag_73:\n        /* \"#utility.yul\":3165:3291   */\n      swap1\n      pop\n        /* \"#utility.yul\":2905:3298   */\n      swap4\n      swap3\n      pop\n      pop\n      pop\n      jump\t// out\n        /* \"#utility.yul\":3304:3484   */\n    tag_21:\n        /* \"#utility.yul\":3352:3429   */\n      0x4e487b7100000000000000000000000000000000000000000000000000000000\n        /* \"#utility.yul\":3349:3350   */\n      0x00\n        /* \"#utility.yul\":3342:3430   */\n      mstore\n        /* \"#utility.yul\":3449:3453   */\n      0x32\n        /* \"#utility.yul\":3446:3447   */\n      0x04\n        /* \"#utility.yul\":3439:3454   */\n      mstore\n        /* \"#utility.yul\":3473:3477   */\n      0x24\n        /* \"#utility.yul\":3470:3471   */\n      0x00\n        /* \"#utility.yul\":3463:3478   */\n      revert\n\n    auxdata: 0xa26469706673582212203489e259b72c73f5660b614271fc036848b7776e092841317694253cdcdc80bb64736f6c63430008090033\n}\n",
				"bytecode": {
					"linkReferences": {},
					"object": "60806040526040518060600160405280600160ff168152602001600260ff168152602001600360ff16815250600090600361003b92919061004e565b5034801561004857600080fd5b506100bd565b82805482825590600052602060002090810192821561008f579160200282015b8281111561008e578251829060ff1690559160200191906001019061006e565b5b50905061009c91906100a0565b5090565b5b808211156100b95760008160009055506001016100a1565b5090565b61039d806100cc6000396000f3fe608060405234801561001057600080fd5b50600436106100415760003560e01c806320028990146100465780636a8d1e08146100505780639b1a379c1461005a575b600080fd5b61004e61008b565b005b61005861019e565b005b610074600480360381019061006f9190610246565b6101c7565b604051610082929190610314565b60405180910390f35b6000808054806020026020016040519081016040528092919081815260200182805480156100d857602002820191906000526020600020905b8154815260200190600101908083116100c4575b505050505090506064816000815181106100f5576100f4610338565b5b60200260200101818152505060c88160018151811061011757610116610338565b5b60200260200101818152505060008080548060200260200160405190810160405280929190818152602001828054801561017057602002820191906000526020600020905b81548152602001906001019080831161015c575b5050505050905061012c8160008151811061018e5761018d610338565b5b6020026020010181815250505050565b60006064816000815481106101b6576101b5610338565b5b906000526020600020018190555050565b3660008383915091509250929050565b600080fd5b600080fd5b600080fd5b600080fd5b600080fd5b60008083601f840112610206576102056101e1565b5b8235905067ffffffffffffffff811115610223576102226101e6565b5b60208301915083602082028301111561023f5761023e6101eb565b5b9250929050565b6000806020838503121561025d5761025c6101d7565b5b600083013567ffffffffffffffff81111561027b5761027a6101dc565b5b610287858286016101f0565b92509250509250929050565b600082825260208201905092915050565b600080fd5b82818337600083830152505050565b60006102c48385610293565b93507f07ffffffffffffffffffffffffffffffffffffffffffffffffffffffffffffff8311156102f7576102f66102a4565b5b6020830292506103088385846102a9565b82840190509392505050565b6000602082019050818103600083015261032f8184866102b8565b90509392505050565b7f4e487b7100000000000000000000000000000000000000000000000000000000600052603260045260246000fdfea26469706673582212203489e259b72c73f5660b614271fc036848b7776e092841317694253cdcdc80bb64736f6c63430008090033",
					"opcodes": "PUSH1 0x80 PUSH1 0x40 MSTORE PUSH1 0x40 MLOAD DUP1 PUSH1 0x60 ADD PUSH1 0x40 MSTORE DUP1 PUSH1 0x1 PUSH1 0xFF AND DUP2 MSTORE PUSH1 0x20 ADD PUSH1 0x2 PUSH1 0xFF AND DUP2 MSTORE PUSH1 0x20 ADD PUSH1 0x3 PUSH1 0xFF AND DUP2 MSTORE POP PUSH1 0x0 SWAP1 PUSH1 0x3 PUSH2 0x3B SWAP3 SWAP2 SWAP1 PUSH2 0x4E JUMP JUMPDEST POP CALLVALUE DUP1 ISZERO PUSH2 0x48 JUMPI PUSH1 0x0 DUP1 REVERT JUMPDEST POP PUSH2 0xBD JUMP JUMPDEST DUP3 DUP1 SLOAD DUP3 DUP3 SSTORE SWAP1 PUSH1 0x0 MSTORE PUSH1 0x20 PUSH1 0x0 KECCAK256 SWAP1 DUP2 ADD SWAP3 DUP3 ISZERO PUSH2 0x8F JUMPI SWAP2 PUSH1 0x20 MUL DUP3 ADD JUMPDEST DUP3 DUP2 GT ISZERO PUSH2 0x8E JUMPI DUP3 MLOAD DUP3 SWAP1 PUSH1 0xFF AND SWAP1 SSTORE SWAP2 PUSH1 0x20 ADD SWAP2 SWAP1 PUSH1 0x1 ADD SWAP1 PUSH2 0x6E JUMP JUMPDEST JUMPDEST POP SWAP1 POP PUSH2 0x9C SWAP2 SWAP1 PUSH2 0xA0 JUMP JUMPDEST POP SWAP1 JUMP JUMPDEST JUMPDEST DUP1 DUP3 GT ISZERO PUSH2 0xB9 JUMPI PUSH1 0x0 DUP2 PUSH1 0x0 SWAP1 SSTORE POP PUSH1 0x1 ADD PUSH2 0xA1 JUMP JUMPDEST POP SWAP1 JUMP JUMPDEST PUSH2 0x39D DUP1 PUSH2 0xCC PUSH1 0x0 CODECOPY PUSH1 0x0 RETURN INVALID PUSH1 0x80 PUSH1 0x40 MSTORE CALLVALUE DUP1 ISZERO PUSH2 0x10 JUMPI PUSH1 0x0 DUP1 REVERT JUMPDEST POP PUSH1 0x4 CALLDATASIZE LT PUSH2 0x41 JUMPI PUSH1 0x0 CALLDATALOAD PUSH1 0xE0 SHR DUP1 PUSH4 0x20028990 EQ PUSH2 0x46 JUMPI DUP1 PUSH4 0x6A8D1E08 EQ PUSH2 0x50 JUMPI DUP1 PUSH4 0x9B1A379C EQ PUSH2 0x5A JUMPI JUMPDEST PUSH1 0x0 DUP1 REVERT JUMPDEST PUSH2 0x4E PUSH2 0x8B JUMP JUMPDEST STOP JUMPDEST PUSH2 0x58 PUSH2 0x19E JUMP JUMPDEST STOP JUMPDEST PUSH2 0x74 PUSH1 0x4 DUP1 CALLDATASIZE SUB DUP2 ADD SWAP1 PUSH2 0x6F SWAP2 SWAP1 PUSH2 0x246 JUMP JUMPDEST PUSH2 0x1C7 JUMP JUMPDEST PUSH1 0x40 MLOAD PUSH2 0x82 SWAP3 SWAP2 SWAP1 PUSH2 0x314 JUMP JUMPDEST PUSH1 0x40 MLOAD DUP1 SWAP2 SUB SWAP1 RETURN JUMPDEST PUSH1 0x0 DUP1 DUP1 SLOAD DUP1 PUSH1 0x20 MUL PUSH1 0x20 ADD PUSH1 0x40 MLOAD SWAP1 DUP2 ADD PUSH1 0x40 MSTORE DUP1 SWAP3 SWAP2 SWAP1 DUP2 DUP2 MSTORE PUSH1 0x20 ADD DUP3 DUP1 SLOAD DUP1 ISZERO PUSH2 0xD8 JUMPI PUSH1 0x20 MUL DUP3 ADD SWAP2 SWAP1 PUSH1 0x0 MSTORE PUSH1 0x20 PUSH1 0x0 KECCAK256 SWAP1 JUMPDEST DUP2 SLOAD DUP2 MSTORE PUSH1 0x20 ADD SWAP1 PUSH1 0x1 ADD SWAP1 DUP1 DUP4 GT PUSH2 0xC4 JUMPI JUMPDEST POP POP POP POP POP SWAP1 POP PUSH1 0x64 DUP2 PUSH1 0x0 DUP2 MLOAD DUP2 LT PUSH2 0xF5 JUMPI PUSH2 0xF4 PUSH2 0x338 JUMP JUMPDEST JUMPDEST PUSH1 0x20 MUL PUSH1 0x20 ADD ADD DUP2 DUP2 MSTORE POP POP PUSH1 0xC8 DUP2 PUSH1 0x1 DUP2 MLOAD DUP2 LT PUSH2 0x117 JUMPI PUSH2 0x116 PUSH2 0x338 JUMP JUMPDEST JUMPDEST PUSH1 0x20 MUL PUSH1 0x20 ADD ADD DUP2 DUP2 MSTORE POP POP PUSH1 0x0 DUP1 DUP1 SLOAD DUP1 PUSH1 0x20 MUL PUSH1 0x20 ADD PUSH1 0x40 MLOAD SWAP1 DUP2 ADD PUSH1 0x40 MSTORE DUP1 SWAP3 SWAP2 SWAP1 DUP2 DUP2 MSTORE PUSH1 0x20 ADD DUP3 DUP1 SLOAD DUP1 ISZERO PUSH2 0x170 JUMPI PUSH1 0x20 MUL DUP3 ADD SWAP2 SWAP1 PUSH1 0x0 MSTORE PUSH1 0x20 PUSH1 0x0 KECCAK256 SWAP1 JUMPDEST DUP2 SLOAD DUP2 MSTORE PUSH1 0x20 ADD SWAP1 PUSH1 0x1 ADD SWAP1 DUP1 DUP4 GT PUSH2 0x15C JUMPI JUMPDEST POP POP POP POP POP SWAP1 POP PUSH2 0x12C DUP2 PUSH1 0x0 DUP2 MLOAD DUP2 LT PUSH2 0x18E JUMPI PUSH2 0x18D PUSH2 0x338 JUMP JUMPDEST JUMPDEST PUSH1 0x20 MUL PUSH1 0x20 ADD ADD DUP2 DUP2 MSTORE POP POP POP POP JUMP JUMPDEST PUSH1 0x0 PUSH1 0x64 DUP2 PUSH1 0x0 DUP2 SLOAD DUP2 LT PUSH2 0x1B6 JUMPI PUSH2 0x1B5 PUSH2 0x338 JUMP JUMPDEST JUMPDEST SWAP1 PUSH1 0x0 MSTORE PUSH1 0x20 PUSH1 0x0 KECCAK256 ADD DUP2 SWAP1 SSTORE POP POP JUMP JUMPDEST CALLDATASIZE PUSH1 0x0 DUP4 DUP4 SWAP2 POP SWAP2 POP SWAP3 POP SWAP3 SWAP1 POP JUMP JUMPDEST PUSH1 0x0 DUP1 REVERT JUMPDEST PUSH1 0x0 DUP1 REVERT JUMPDEST PUSH1 0x0 DUP1 REVERT JUMPDEST PUSH1 0x0 DUP1 REVERT JUMPDEST PUSH1 0x0 DUP1 REVERT JUMPDEST PUSH1 0x0 DUP1 DUP4 PUSH1 0x1F DUP5 ADD SLT PUSH2 0x206 JUMPI PUSH2 0x205 PUSH2 0x1E1 JUMP JUMPDEST JUMPDEST DUP3 CALLDATALOAD SWAP1 POP PUSH8 0xFFFFFFFFFFFFFFFF DUP2 GT ISZERO PUSH2 0x223 JUMPI PUSH2 0x222 PUSH2 0x1E6 JUMP JUMPDEST JUMPDEST PUSH1 0x20 DUP4 ADD SWAP2 POP DUP4 PUSH1 0x20 DUP3 MUL DUP4 ADD GT ISZERO PUSH2 0x23F JUMPI PUSH2 0x23E PUSH2 0x1EB JUMP JUMPDEST JUMPDEST SWAP3 POP SWAP3 SWAP1 POP JUMP JUMPDEST PUSH1 0x0 DUP1 PUSH1 0x20 DUP4 DUP6 SUB SLT ISZERO PUSH2 0x25D JUMPI PUSH2 0x25C PUSH2 0x1D7 JUMP JUMPDEST JUMPDEST PUSH1 0x0 DUP4 ADD CALLDATALOAD PUSH8 0xFFFFFFFFFFFFFFFF DUP2 GT ISZERO PUSH2 0x27B JUMPI PUSH2 0x27A PUSH2 0x1DC JUMP JUMPDEST JUMPDEST PUSH2 0x287 DUP6 DUP3 DUP7 ADD PUSH2 0x1F0 JUMP JUMPDEST SWAP3 POP SWAP3 POP POP SWAP3 POP SWAP3 SWAP1 POP JUMP JUMPDEST PUSH1 0x0 DUP3 DUP3 MSTORE PUSH1 0x20 DUP3 ADD SWAP1 POP SWAP3 SWAP2 POP POP JUMP JUMPDEST PUSH1 0x0 DUP1 REVERT JUMPDEST DUP3 DUP2 DUP4 CALLDATACOPY PUSH1 0x0 DUP4 DUP4 ADD MSTORE POP POP POP JUMP JUMPDEST PUSH1 0x0 PUSH2 0x2C4 DUP4 DUP6 PUSH2 0x293 JUMP JUMPDEST SWAP4 POP PUSH32 0x7FFFFFFFFFFFFFFFFFFFFFFFFFFFFFFFFFFFFFFFFFFFFFFFFFFFFFFFFFFFFFF DUP4 GT ISZERO PUSH2 0x2F7 JUMPI PUSH2 0x2F6 PUSH2 0x2A4 JUMP JUMPDEST JUMPDEST PUSH1 0x20 DUP4 MUL SWAP3 POP PUSH2 0x308 DUP4 DUP6 DUP5 PUSH2 0x2A9 JUMP JUMPDEST DUP3 DUP5 ADD SWAP1 POP SWAP4 SWAP3 POP POP POP JUMP JUMPDEST PUSH1 0x0 PUSH1 0x20 DUP3 ADD SWAP1 POP DUP2 DUP2 SUB PUSH1 0x0 DUP4 ADD MSTORE PUSH2 0x32F DUP2 DUP5 DUP7 PUSH2 0x2B8 JUMP JUMPDEST SWAP1 POP SWAP4 SWAP3 POP POP POP JUMP JUMPDEST PUSH32 0x4E487B7100000000000000000000000000000000000000000000000000000000 PUSH1 0x0 MSTORE PUSH1 0x32 PUSH1 0x4 MSTORE PUSH1 0x24 PUSH1 0x0 REVERT INVALID LOG2 PUSH5 0x6970667358 0x22 SLT KECCAK256 CALLVALUE DUP10 0xE2 MSIZE 0xB7 0x2C PUSH20 0xF5660B614271FC036848B7776E09284131769425 EXTCODECOPY 0xDC 0xDC DUP1 0xBB PUSH5 0x736F6C6343 STOP ADDMOD MULMOD STOP CALLER "
				},
				"gasEstimates": {
					"creation": {
						"codeDepositCost": "185000",
						"executionCost": "infinite",
						"totalCost": "infinite"
					},
					"external": {
						"fCalldata(uint256[])": "infinite",
						"fMemory()": "infinite",
						"fStorage()": "24443"
					}
				},
				"methodIdentifiers": {
					"fCalldata(uint256[])": "9b1a379c",
					"fMemory()": "20028990",
					"fStorage()": "6a8d1e08"
				}
			},
			"storageLayout": {
				"storage": [
					{
						"astId": 8,
						"contract": "contracts/04VarStorage.sol:VarStorage",
						"label": "x",
						"offset": 0,
						"slot": "0",
						"type": "t_array(t_uint256)dyn_storage"
					}
				],
				"types": {
					"t_array(t_uint256)dyn_storage": {
						"base": "t_uint256",
						"encoding": "dynamic_array",
						"label": "uint256[]",
						"numberOfBytes": "32"
					},
					"t_uint256": {
						"encoding": "inplace",
						"label": "uint256",
						"numberOfBytes": "32"
					}
				}
			},
			"userdoc": {
				"kind": "user",
				"methods": {},
				"version": 1
			}
		}
	}
}