{
	"contracts/03FunctionTypes.sol": {
		"FunctionTypes": {
			"abi": [
				{
					"inputs": [],
					"name": "addExternal",
					"outputs": [
						{
							"internalType": "uint256",
							"name": "new_number",
							"type": "uint256"
						}
					],
					"stateMutability": "nonpayable",
					"type": "function"
				},
				{
					"inputs": [],
					"name": "addPayable",
					"outputs": [
						{
							"internalType": "uint256",
							"name": "balance",
							"type": "uint256"
						}
					],
					"stateMutability": "payable",
					"type": "function"
				},
				{
					"inputs": [
						{
							"internalType": "uint256",
							"name": "_number",
							"type": "uint256"
						}
					],
					"name": "addPure",
					"outputs": [
						{
							"internalType": "uint256",
							"name": "new_number",
							"type": "uint256"
						}
					],
					"stateMutability": "pure",
					"type": "function"
				},
				{
					"inputs": [],
					"name": "addView",
					"outputs": [
						{
							"internalType": "uint256",
							"name": "new_number",
							"type": "uint256"
						}
					],
					"stateMutability": "view",
					"type": "function"
				},
				{
					"inputs": [],
					"name": "f",
					"outputs": [
						{
							"internalType": "uint256",
							"name": "",
							"type": "uint256"
						},
						{
							"internalType": "bool",
							"name": "",
							"type": "bool"
						}
					],
					"stateMutability": "view",
					"type": "function"
				},
				{
					"inputs": [],
					"name": "fnReturn",
					"outputs": [
						{
							"internalType": "uint256",
							"name": "",
							"type": "uint256"
						},
						{
							"internalType": "uint256",
							"name": "",
							"type": "uint256"
						},
						{
							"internalType": "bool",
							"name": "boo",
							"type": "bool"
						}
					],
					"stateMutability": "pure",
					"type": "function"
				},
				{
					"inputs": [],
					"name": "fnReturn2",
					"outputs": [
						{
							"internalType": "uint256",
							"name": "",
							"type": "uint256"
						},
						{
							"internalType": "bool",
							"name": "",
							"type": "bool"
						}
					],
					"stateMutability": "view",
					"type": "function"
				},
				{
					"inputs": [],
					"name": "number",
					"outputs": [
						{
							"internalType": "uint256",
							"name": "",
							"type": "uint256"
						}
					],
					"stateMutability": "view",
					"type": "function"
				}
			],
			"devdoc": {
				"kind": "dev",
				"methods": {},
				"version": 1
			},
			"evm": {
				"assembly": "    /* \"contracts/03FunctionTypes.sol\":1426:4105  contract FunctionTypes {... */\n  mstore(0x40, 0x80)\n    /* \"contracts/03FunctionTypes.sol\":1479:1480  0 */\n  0x00\n    /* \"contracts/03FunctionTypes.sol\":1455:1480  uint256 public number = 0 */\n  dup1\n  sstore\n    /* \"contracts/03FunctionTypes.sol\":1426:4105  contract FunctionTypes {... */\n  callvalue\n  dup1\n  iszero\n  tag_1\n  jumpi\n  0x00\n  dup1\n  revert\ntag_1:\n  pop\n  dataSize(sub_0)\n  dup1\n  dataOffset(sub_0)\n  0x00\n  codecopy\n  0x00\n  return\nstop\n\nsub_0: assembly {\n        /* \"contracts/03FunctionTypes.sol\":1426:4105  contract FunctionTypes {... */\n      mstore(0x40, 0x80)\n      jumpi(tag_1, lt(calldatasize, 0x04))\n      shr(0xe0, calldataload(0x00))\n      dup1\n      0x7dcdc261\n      gt\n      tag_10\n      jumpi\n      dup1\n      0x7dcdc261\n      eq\n      tag_6\n      jumpi\n      dup1\n      0x8381f58a\n      eq\n      tag_7\n      jumpi\n      dup1\n      0xb262eb7f\n      eq\n      tag_8\n      jumpi\n      dup1\n      0xf611bfed\n      eq\n      tag_9\n      jumpi\n      jump(tag_1)\n    tag_10:\n      dup1\n      0x26121ff0\n      eq\n      tag_2\n      jumpi\n      dup1\n      0x4f5c05c7\n      eq\n      tag_3\n      jumpi\n      dup1\n      0x64e94cc6\n      eq\n      tag_4\n      jumpi\n      dup1\n      0x7032c4f2\n      eq\n      tag_5\n      jumpi\n    tag_1:\n      0x00\n      dup1\n      revert\n        /* \"contracts/03FunctionTypes.sol\":3961:4102  function f() external view returns(uint256, bool){... */\n    tag_2:\n      callvalue\n      dup1\n      iszero\n      tag_11\n      jumpi\n      0x00\n      dup1\n      revert\n    tag_11:\n      pop\n      tag_12\n      tag_13\n      jump\t// in\n    tag_12:\n      mload(0x40)\n      tag_14\n      swap3\n      swap2\n      swap1\n      tag_15\n      jump\t// in\n    tag_14:\n      mload(0x40)\n      dup1\n      swap2\n      sub\n      swap1\n      return\n        /* \"contracts/03FunctionTypes.sol\":2306:2424  function addExternal() external returns(uint256 new_number){... */\n    tag_3:\n      callvalue\n      dup1\n      iszero\n      tag_16\n      jumpi\n      0x00\n      dup1\n      revert\n    tag_16:\n      pop\n      tag_17\n      tag_18\n      jump\t// in\n    tag_17:\n      mload(0x40)\n      tag_19\n      swap2\n      swap1\n      tag_20\n      jump\t// in\n    tag_19:\n      mload(0x40)\n      dup1\n      swap2\n      sub\n      swap1\n      return\n        /* \"contracts/03FunctionTypes.sol\":3691:3800  function fnReturn() external pure returns(uint256, uint256, bool boo){... */\n    tag_4:\n      callvalue\n      dup1\n      iszero\n      tag_21\n      jumpi\n      0x00\n      dup1\n      revert\n    tag_21:\n      pop\n      tag_22\n      tag_23\n      jump\t// in\n    tag_22:\n      mload(0x40)\n      tag_24\n      swap4\n      swap3\n      swap2\n      swap1\n      tag_25\n      jump\t// in\n    tag_24:\n      mload(0x40)\n      dup1\n      swap2\n      sub\n      swap1\n      return\n        /* \"contracts/03FunctionTypes.sol\":1532:1646  function addPure(uint256 _number) external pure returns(uint256 new_number){... */\n    tag_5:\n      callvalue\n      dup1\n      iszero\n      tag_26\n      jumpi\n      0x00\n      dup1\n      revert\n    tag_26:\n      pop\n      tag_27\n      0x04\n      dup1\n      calldatasize\n      sub\n      dup2\n      add\n      swap1\n      tag_28\n      swap2\n      swap1\n      tag_29\n      jump\t// in\n    tag_28:\n      tag_30\n      jump\t// in\n    tag_27:\n      mload(0x40)\n      tag_31\n      swap2\n      swap1\n      tag_20\n      jump\t// in\n    tag_31:\n      mload(0x40)\n      dup1\n      swap2\n      sub\n      swap1\n      return\n        /* \"contracts/03FunctionTypes.sol\":3806:3955  function fnReturn2() external view returns(uint256, bool){... */\n    tag_6:\n      callvalue\n      dup1\n      iszero\n      tag_32\n      jumpi\n      0x00\n      dup1\n      revert\n    tag_32:\n      pop\n      tag_33\n      tag_34\n      jump\t// in\n    tag_33:\n      mload(0x40)\n      tag_35\n      swap3\n      swap2\n      swap1\n      tag_15\n      jump\t// in\n    tag_35:\n      mload(0x40)\n      dup1\n      swap2\n      sub\n      swap1\n      return\n        /* \"contracts/03FunctionTypes.sol\":1455:1480  uint256 public number = 0 */\n    tag_7:\n      callvalue\n      dup1\n      iszero\n      tag_36\n      jumpi\n      0x00\n      dup1\n      revert\n    tag_36:\n      pop\n      tag_37\n      tag_38\n      jump\t// in\n    tag_37:\n      mload(0x40)\n      tag_39\n      swap2\n      swap1\n      tag_20\n      jump\t// in\n    tag_39:\n      mload(0x40)\n      dup1\n      swap2\n      sub\n      swap1\n      return\n        /* \"contracts/03FunctionTypes.sol\":1709:1809  function addView() external view returns(uint256 new_number){... */\n    tag_8:\n      callvalue\n      dup1\n      iszero\n      tag_40\n      jumpi\n      0x00\n      dup1\n      revert\n    tag_40:\n      pop\n      tag_41\n      tag_42\n      jump\t// in\n    tag_41:\n      mload(0x40)\n      tag_43\n      swap2\n      swap1\n      tag_20\n      jump\t// in\n    tag_43:\n      mload(0x40)\n      dup1\n      swap2\n      sub\n      swap1\n      return\n        /* \"contracts/03FunctionTypes.sol\":2734:2845  function addPayable() external payable returns(uint256 balance){... */\n    tag_9:\n      tag_44\n      tag_45\n      jump\t// in\n    tag_44:\n      mload(0x40)\n      tag_46\n      swap2\n      swap1\n      tag_20\n      jump\t// in\n    tag_46:\n      mload(0x40)\n      dup1\n      swap2\n      sub\n      swap1\n      return\n        /* \"contracts/03FunctionTypes.sol\":3961:4102  function f() external view returns(uint256, bool){... */\n    tag_13:\n        /* \"contracts/03FunctionTypes.sol\":3996:4003  uint256 */\n      0x00\n        /* \"contracts/03FunctionTypes.sol\":4005:4009  bool */\n      dup1\n        /* \"contracts/03FunctionTypes.sol\":4021:4035  uint256 value1 */\n      0x00\n        /* \"contracts/03FunctionTypes.sol\":4038:4046  bool boo */\n      dup1\n        /* \"contracts/03FunctionTypes.sol\":4050:4054  this */\n      address\n        /* \"contracts/03FunctionTypes.sol\":4050:4063  this.fnReturn */\n      0xffffffffffffffffffffffffffffffffffffffff\n      and\n      0x64e94cc6\n        /* \"contracts/03FunctionTypes.sol\":4050:4065  this.fnReturn() */\n      mload(0x40)\n      dup2\n      0xffffffff\n      and\n      0xe0\n      shl\n      dup2\n      mstore\n      0x04\n      add\n      0x60\n      mload(0x40)\n      dup1\n      dup4\n      sub\n      dup2\n      dup7\n      dup1\n      extcodesize\n      iszero\n      dup1\n      iszero\n      tag_48\n      jumpi\n      0x00\n      dup1\n      revert\n    tag_48:\n      pop\n      gas\n      staticcall\n      iszero\n      dup1\n      iszero\n      tag_50\n      jumpi\n      returndatasize\n      0x00\n      dup1\n      returndatacopy\n      revert(0x00, returndatasize)\n    tag_50:\n      pop\n      pop\n      pop\n      pop\n      mload(0x40)\n      returndatasize\n      not(0x1f)\n      0x1f\n      dup3\n      add\n      and\n      dup3\n      add\n      dup1\n      0x40\n      mstore\n      pop\n      dup2\n      add\n      swap1\n      tag_51\n      swap2\n      swap1\n      tag_52\n      jump\t// in\n    tag_51:\n        /* \"contracts/03FunctionTypes.sol\":4020:4065  (uint256 value1, ,bool boo) = this.fnReturn() */\n      swap3\n      pop\n      pop\n      swap2\n      pop\n        /* \"contracts/03FunctionTypes.sol\":4083:4089  value1 */\n      dup2\n        /* \"contracts/03FunctionTypes.sol\":4091:4094  boo */\n      dup2\n        /* \"contracts/03FunctionTypes.sol\":4075:4095  return (value1, boo) */\n      swap4\n      pop\n      swap4\n      pop\n      pop\n      pop\n        /* \"contracts/03FunctionTypes.sol\":3961:4102  function f() external view returns(uint256, bool){... */\n      swap1\n      swap2\n      jump\t// out\n        /* \"contracts/03FunctionTypes.sol\":2306:2424  function addExternal() external returns(uint256 new_number){... */\n    tag_18:\n        /* \"contracts/03FunctionTypes.sol\":2346:2364  uint256 new_number */\n      0x00\n        /* \"contracts/03FunctionTypes.sol\":2375:2388  addInternal() */\n      tag_54\n        /* \"contracts/03FunctionTypes.sol\":2375:2386  addInternal */\n      tag_55\n        /* \"contracts/03FunctionTypes.sol\":2375:2388  addInternal() */\n      jump\t// in\n    tag_54:\n        /* \"contracts/03FunctionTypes.sol\":2411:2417  number */\n      sload(0x00)\n        /* \"contracts/03FunctionTypes.sol\":2398:2417  new_number = number */\n      swap1\n      pop\n        /* \"contracts/03FunctionTypes.sol\":2306:2424  function addExternal() external returns(uint256 new_number){... */\n      swap1\n      jump\t// out\n        /* \"contracts/03FunctionTypes.sol\":3691:3800  function fnReturn() external pure returns(uint256, uint256, bool boo){... */\n    tag_23:\n        /* \"contracts/03FunctionTypes.sol\":3733:3740  uint256 */\n      0x00\n        /* \"contracts/03FunctionTypes.sol\":3742:3749  uint256 */\n      dup1\n        /* \"contracts/03FunctionTypes.sol\":3751:3759  bool boo */\n      0x00\n        /* \"contracts/03FunctionTypes.sol\":3778:3781  111 */\n      0x6f\n        /* \"contracts/03FunctionTypes.sol\":3783:3786  222 */\n      0xde\n        /* \"contracts/03FunctionTypes.sol\":3788:3792  true */\n      0x01\n        /* \"contracts/03FunctionTypes.sol\":3770:3793  return (111, 222, true) */\n      swap3\n      pop\n      swap3\n      pop\n      swap3\n      pop\n        /* \"contracts/03FunctionTypes.sol\":3691:3800  function fnReturn() external pure returns(uint256, uint256, bool boo){... */\n      swap1\n      swap2\n      swap3\n      jump\t// out\n        /* \"contracts/03FunctionTypes.sol\":1532:1646  function addPure(uint256 _number) external pure returns(uint256 new_number){... */\n    tag_30:\n        /* \"contracts/03FunctionTypes.sol\":1588:1606  uint256 new_number */\n      0x00\n        /* \"contracts/03FunctionTypes.sol\":1638:1639  1 */\n      0x01\n        /* \"contracts/03FunctionTypes.sol\":1630:1637  _number */\n      dup3\n        /* \"contracts/03FunctionTypes.sol\":1630:1639  _number+1 */\n      tag_58\n      swap2\n      swap1\n      tag_59\n      jump\t// in\n    tag_58:\n        /* \"contracts/03FunctionTypes.sol\":1617:1639  new_number = _number+1 */\n      swap1\n      pop\n        /* \"contracts/03FunctionTypes.sol\":1532:1646  function addPure(uint256 _number) external pure returns(uint256 new_number){... */\n      swap2\n      swap1\n      pop\n      jump\t// out\n        /* \"contracts/03FunctionTypes.sol\":3806:3955  function fnReturn2() external view returns(uint256, bool){... */\n    tag_34:\n        /* \"contracts/03FunctionTypes.sol\":3849:3856  uint256 */\n      0x00\n        /* \"contracts/03FunctionTypes.sol\":3858:3862  bool */\n      dup1\n        /* \"contracts/03FunctionTypes.sol\":3874:3888  uint256 value1 */\n      0x00\n        /* \"contracts/03FunctionTypes.sol\":3891:3899  bool boo */\n      dup1\n        /* \"contracts/03FunctionTypes.sol\":3903:3907  this */\n      address\n        /* \"contracts/03FunctionTypes.sol\":3903:3916  this.fnReturn */\n      0xffffffffffffffffffffffffffffffffffffffff\n      and\n      0x64e94cc6\n        /* \"contracts/03FunctionTypes.sol\":3903:3918  this.fnReturn() */\n      mload(0x40)\n      dup2\n      0xffffffff\n      and\n      0xe0\n      shl\n      dup2\n      mstore\n      0x04\n      add\n      0x60\n      mload(0x40)\n      dup1\n      dup4\n      sub\n      dup2\n      dup7\n      dup1\n      extcodesize\n      iszero\n      dup1\n      iszero\n      tag_61\n      jumpi\n      0x00\n      dup1\n      revert\n    tag_61:\n      pop\n      gas\n      staticcall\n      iszero\n      dup1\n      iszero\n      tag_63\n      jumpi\n      returndatasize\n      0x00\n      dup1\n      returndatacopy\n      revert(0x00, returndatasize)\n    tag_63:\n      pop\n      pop\n      pop\n      pop\n      mload(0x40)\n      returndatasize\n      not(0x1f)\n      0x1f\n      dup3\n      add\n      and\n      dup3\n      add\n      dup1\n      0x40\n      mstore\n      pop\n      dup2\n      add\n      swap1\n      tag_64\n      swap2\n      swap1\n      tag_52\n      jump\t// in\n    tag_64:\n        /* \"contracts/03FunctionTypes.sol\":3873:3918  (uint256 value1, ,bool boo) = this.fnReturn() */\n      swap3\n      pop\n      pop\n      swap2\n      pop\n        /* \"contracts/03FunctionTypes.sol\":3936:3942  value1 */\n      dup2\n        /* \"contracts/03FunctionTypes.sol\":3944:3947  boo */\n      dup2\n        /* \"contracts/03FunctionTypes.sol\":3928:3948  return (value1, boo) */\n      swap4\n      pop\n      swap4\n      pop\n      pop\n      pop\n        /* \"contracts/03FunctionTypes.sol\":3806:3955  function fnReturn2() external view returns(uint256, bool){... */\n      swap1\n      swap2\n      jump\t// out\n        /* \"contracts/03FunctionTypes.sol\":1455:1480  uint256 public number = 0 */\n    tag_38:\n      sload(0x00)\n      dup2\n      jump\t// out\n        /* \"contracts/03FunctionTypes.sol\":1709:1809  function addView() external view returns(uint256 new_number){... */\n    tag_42:\n        /* \"contracts/03FunctionTypes.sol\":1750:1768  uint256 new_number */\n      0x00\n        /* \"contracts/03FunctionTypes.sol\":1801:1802  1 */\n      0x01\n        /* \"contracts/03FunctionTypes.sol\":1792:1798  number */\n      sload(0x00)\n        /* \"contracts/03FunctionTypes.sol\":1792:1802  number + 1 */\n      tag_66\n      swap2\n      swap1\n      tag_59\n      jump\t// in\n    tag_66:\n        /* \"contracts/03FunctionTypes.sol\":1779:1802  new_number = number + 1 */\n      swap1\n      pop\n        /* \"contracts/03FunctionTypes.sol\":1709:1809  function addView() external view returns(uint256 new_number){... */\n      swap1\n      jump\t// out\n        /* \"contracts/03FunctionTypes.sol\":2734:2845  function addPayable() external payable returns(uint256 balance){... */\n    tag_45:\n        /* \"contracts/03FunctionTypes.sol\":2781:2796  uint256 balance */\n      0x00\n        /* \"contracts/03FunctionTypes.sol\":2817:2838  address(this).balance */\n      selfbalance\n        /* \"contracts/03FunctionTypes.sol\":2807:2838  balance = address(this).balance */\n      swap1\n      pop\n        /* \"contracts/03FunctionTypes.sol\":2734:2845  function addPayable() external payable returns(uint256 balance){... */\n      swap1\n      jump\t// out\n        /* \"contracts/03FunctionTypes.sol\":1990:2057  function addInternal() internal{... */\n    tag_55:\n        /* \"contracts/03FunctionTypes.sol\":2049:2050  1 */\n      0x01\n        /* \"contracts/03FunctionTypes.sol\":2040:2046  number */\n      sload(0x00)\n        /* \"contracts/03FunctionTypes.sol\":2040:2050  number + 1 */\n      tag_69\n      swap2\n      swap1\n      tag_59\n      jump\t// in\n    tag_69:\n        /* \"contracts/03FunctionTypes.sol\":2031:2037  number */\n      0x00\n        /* \"contracts/03FunctionTypes.sol\":2031:2050  number = number + 1 */\n      dup2\n      swap1\n      sstore\n      pop\n        /* \"contracts/03FunctionTypes.sol\":1990:2057  function addInternal() internal{... */\n      jump\t// out\n        /* \"#utility.yul\":7:84   */\n    tag_70:\n        /* \"#utility.yul\":44:51   */\n      0x00\n        /* \"#utility.yul\":73:78   */\n      dup2\n        /* \"#utility.yul\":62:78   */\n      swap1\n      pop\n        /* \"#utility.yul\":7:84   */\n      swap2\n      swap1\n      pop\n      jump\t// out\n        /* \"#utility.yul\":90:208   */\n    tag_71:\n        /* \"#utility.yul\":177:201   */\n      tag_86\n        /* \"#utility.yul\":195:200   */\n      dup2\n        /* \"#utility.yul\":177:201   */\n      tag_70\n      jump\t// in\n    tag_86:\n        /* \"#utility.yul\":172:175   */\n      dup3\n        /* \"#utility.yul\":165:202   */\n      mstore\n        /* \"#utility.yul\":90:208   */\n      pop\n      pop\n      jump\t// out\n        /* \"#utility.yul\":214:304   */\n    tag_72:\n        /* \"#utility.yul\":248:255   */\n      0x00\n        /* \"#utility.yul\":291:296   */\n      dup2\n        /* \"#utility.yul\":284:297   */\n      iszero\n        /* \"#utility.yul\":277:298   */\n      iszero\n        /* \"#utility.yul\":266:298   */\n      swap1\n      pop\n        /* \"#utility.yul\":214:304   */\n      swap2\n      swap1\n      pop\n      jump\t// out\n        /* \"#utility.yul\":310:419   */\n    tag_73:\n        /* \"#utility.yul\":391:412   */\n      tag_89\n        /* \"#utility.yul\":406:411   */\n      dup2\n        /* \"#utility.yul\":391:412   */\n      tag_72\n      jump\t// in\n    tag_89:\n        /* \"#utility.yul\":386:389   */\n      dup3\n        /* \"#utility.yul\":379:413   */\n      mstore\n        /* \"#utility.yul\":310:419   */\n      pop\n      pop\n      jump\t// out\n        /* \"#utility.yul\":425:745   */\n    tag_15:\n        /* \"#utility.yul\":540:544   */\n      0x00\n        /* \"#utility.yul\":578:580   */\n      0x40\n        /* \"#utility.yul\":567:576   */\n      dup3\n        /* \"#utility.yul\":563:581   */\n      add\n        /* \"#utility.yul\":555:581   */\n      swap1\n      pop\n        /* \"#utility.yul\":591:662   */\n      tag_91\n        /* \"#utility.yul\":659:660   */\n      0x00\n        /* \"#utility.yul\":648:657   */\n      dup4\n        /* \"#utility.yul\":644:661   */\n      add\n        /* \"#utility.yul\":635:641   */\n      dup6\n        /* \"#utility.yul\":591:662   */\n      tag_71\n      jump\t// in\n    tag_91:\n        /* \"#utility.yul\":672:738   */\n      tag_92\n        /* \"#utility.yul\":734:736   */\n      0x20\n        /* \"#utility.yul\":723:732   */\n      dup4\n        /* \"#utility.yul\":719:737   */\n      add\n        /* \"#utility.yul\":710:716   */\n      dup5\n        /* \"#utility.yul\":672:738   */\n      tag_73\n      jump\t// in\n    tag_92:\n        /* \"#utility.yul\":425:745   */\n      swap4\n      swap3\n      pop\n      pop\n      pop\n      jump\t// out\n        /* \"#utility.yul\":751:973   */\n    tag_20:\n        /* \"#utility.yul\":844:848   */\n      0x00\n        /* \"#utility.yul\":882:884   */\n      0x20\n        /* \"#utility.yul\":871:880   */\n      dup3\n        /* \"#utility.yul\":867:885   */\n      add\n        /* \"#utility.yul\":859:885   */\n      swap1\n      pop\n        /* \"#utility.yul\":895:966   */\n      tag_94\n        /* \"#utility.yul\":963:964   */\n      0x00\n        /* \"#utility.yul\":952:961   */\n      dup4\n        /* \"#utility.yul\":948:965   */\n      add\n        /* \"#utility.yul\":939:945   */\n      dup5\n        /* \"#utility.yul\":895:966   */\n      tag_71\n      jump\t// in\n    tag_94:\n        /* \"#utility.yul\":751:973   */\n      swap3\n      swap2\n      pop\n      pop\n      jump\t// out\n        /* \"#utility.yul\":979:1409   */\n    tag_25:\n        /* \"#utility.yul\":1122:1126   */\n      0x00\n        /* \"#utility.yul\":1160:1162   */\n      0x60\n        /* \"#utility.yul\":1149:1158   */\n      dup3\n        /* \"#utility.yul\":1145:1163   */\n      add\n        /* \"#utility.yul\":1137:1163   */\n      swap1\n      pop\n        /* \"#utility.yul\":1173:1244   */\n      tag_96\n        /* \"#utility.yul\":1241:1242   */\n      0x00\n        /* \"#utility.yul\":1230:1239   */\n      dup4\n        /* \"#utility.yul\":1226:1243   */\n      add\n        /* \"#utility.yul\":1217:1223   */\n      dup7\n        /* \"#utility.yul\":1173:1244   */\n      tag_71\n      jump\t// in\n    tag_96:\n        /* \"#utility.yul\":1254:1326   */\n      tag_97\n        /* \"#utility.yul\":1322:1324   */\n      0x20\n        /* \"#utility.yul\":1311:1320   */\n      dup4\n        /* \"#utility.yul\":1307:1325   */\n      add\n        /* \"#utility.yul\":1298:1304   */\n      dup6\n        /* \"#utility.yul\":1254:1326   */\n      tag_71\n      jump\t// in\n    tag_97:\n        /* \"#utility.yul\":1336:1402   */\n      tag_98\n        /* \"#utility.yul\":1398:1400   */\n      0x40\n        /* \"#utility.yul\":1387:1396   */\n      dup4\n        /* \"#utility.yul\":1383:1401   */\n      add\n        /* \"#utility.yul\":1374:1380   */\n      dup5\n        /* \"#utility.yul\":1336:1402   */\n      tag_73\n      jump\t// in\n    tag_98:\n        /* \"#utility.yul\":979:1409   */\n      swap5\n      swap4\n      pop\n      pop\n      pop\n      pop\n      jump\t// out\n        /* \"#utility.yul\":1496:1613   */\n    tag_75:\n        /* \"#utility.yul\":1605:1606   */\n      0x00\n        /* \"#utility.yul\":1602:1603   */\n      dup1\n        /* \"#utility.yul\":1595:1607   */\n      revert\n        /* \"#utility.yul\":1742:1864   */\n    tag_77:\n        /* \"#utility.yul\":1815:1839   */\n      tag_103\n        /* \"#utility.yul\":1833:1838   */\n      dup2\n        /* \"#utility.yul\":1815:1839   */\n      tag_70\n      jump\t// in\n    tag_103:\n        /* \"#utility.yul\":1808:1813   */\n      dup2\n        /* \"#utility.yul\":1805:1840   */\n      eq\n        /* \"#utility.yul\":1795:1858   */\n      tag_104\n      jumpi\n        /* \"#utility.yul\":1854:1855   */\n      0x00\n        /* \"#utility.yul\":1851:1852   */\n      dup1\n        /* \"#utility.yul\":1844:1856   */\n      revert\n        /* \"#utility.yul\":1795:1858   */\n    tag_104:\n        /* \"#utility.yul\":1742:1864   */\n      pop\n      jump\t// out\n        /* \"#utility.yul\":1870:2009   */\n    tag_78:\n        /* \"#utility.yul\":1916:1921   */\n      0x00\n        /* \"#utility.yul\":1954:1960   */\n      dup2\n        /* \"#utility.yul\":1941:1961   */\n      calldataload\n        /* \"#utility.yul\":1932:1961   */\n      swap1\n      pop\n        /* \"#utility.yul\":1970:2003   */\n      tag_106\n        /* \"#utility.yul\":1997:2002   */\n      dup2\n        /* \"#utility.yul\":1970:2003   */\n      tag_77\n      jump\t// in\n    tag_106:\n        /* \"#utility.yul\":1870:2009   */\n      swap3\n      swap2\n      pop\n      pop\n      jump\t// out\n        /* \"#utility.yul\":2015:2344   */\n    tag_29:\n        /* \"#utility.yul\":2074:2080   */\n      0x00\n        /* \"#utility.yul\":2123:2125   */\n      0x20\n        /* \"#utility.yul\":2111:2120   */\n      dup3\n        /* \"#utility.yul\":2102:2109   */\n      dup5\n        /* \"#utility.yul\":2098:2121   */\n      sub\n        /* \"#utility.yul\":2094:2126   */\n      slt\n        /* \"#utility.yul\":2091:2210   */\n      iszero\n      tag_108\n      jumpi\n        /* \"#utility.yul\":2129:2208   */\n      tag_109\n      tag_75\n      jump\t// in\n    tag_109:\n        /* \"#utility.yul\":2091:2210   */\n    tag_108:\n        /* \"#utility.yul\":2249:2250   */\n      0x00\n        /* \"#utility.yul\":2274:2327   */\n      tag_110\n        /* \"#utility.yul\":2319:2326   */\n      dup5\n        /* \"#utility.yul\":2310:2316   */\n      dup3\n        /* \"#utility.yul\":2299:2308   */\n      dup6\n        /* \"#utility.yul\":2295:2317   */\n      add\n        /* \"#utility.yul\":2274:2327   */\n      tag_78\n      jump\t// in\n    tag_110:\n        /* \"#utility.yul\":2264:2327   */\n      swap2\n      pop\n        /* \"#utility.yul\":2220:2337   */\n      pop\n        /* \"#utility.yul\":2015:2344   */\n      swap3\n      swap2\n      pop\n      pop\n      jump\t// out\n        /* \"#utility.yul\":2350:2493   */\n    tag_79:\n        /* \"#utility.yul\":2407:2412   */\n      0x00\n        /* \"#utility.yul\":2438:2444   */\n      dup2\n        /* \"#utility.yul\":2432:2445   */\n      mload\n        /* \"#utility.yul\":2423:2445   */\n      swap1\n      pop\n        /* \"#utility.yul\":2454:2487   */\n      tag_112\n        /* \"#utility.yul\":2481:2486   */\n      dup2\n        /* \"#utility.yul\":2454:2487   */\n      tag_77\n      jump\t// in\n    tag_112:\n        /* \"#utility.yul\":2350:2493   */\n      swap3\n      swap2\n      pop\n      pop\n      jump\t// out\n        /* \"#utility.yul\":2499:2615   */\n    tag_80:\n        /* \"#utility.yul\":2569:2590   */\n      tag_114\n        /* \"#utility.yul\":2584:2589   */\n      dup2\n        /* \"#utility.yul\":2569:2590   */\n      tag_72\n      jump\t// in\n    tag_114:\n        /* \"#utility.yul\":2562:2567   */\n      dup2\n        /* \"#utility.yul\":2559:2591   */\n      eq\n        /* \"#utility.yul\":2549:2609   */\n      tag_115\n      jumpi\n        /* \"#utility.yul\":2605:2606   */\n      0x00\n        /* \"#utility.yul\":2602:2603   */\n      dup1\n        /* \"#utility.yul\":2595:2607   */\n      revert\n        /* \"#utility.yul\":2549:2609   */\n    tag_115:\n        /* \"#utility.yul\":2499:2615   */\n      pop\n      jump\t// out\n        /* \"#utility.yul\":2621:2758   */\n    tag_81:\n        /* \"#utility.yul\":2675:2680   */\n      0x00\n        /* \"#utility.yul\":2706:2712   */\n      dup2\n        /* \"#utility.yul\":2700:2713   */\n      mload\n        /* \"#utility.yul\":2691:2713   */\n      swap1\n      pop\n        /* \"#utility.yul\":2722:2752   */\n      tag_117\n        /* \"#utility.yul\":2746:2751   */\n      dup2\n        /* \"#utility.yul\":2722:2752   */\n      tag_80\n      jump\t// in\n    tag_117:\n        /* \"#utility.yul\":2621:2758   */\n      swap3\n      swap2\n      pop\n      pop\n      jump\t// out\n        /* \"#utility.yul\":2764:3421   */\n    tag_52:\n        /* \"#utility.yul\":2849:2855   */\n      0x00\n        /* \"#utility.yul\":2857:2863   */\n      dup1\n        /* \"#utility.yul\":2865:2871   */\n      0x00\n        /* \"#utility.yul\":2914:2916   */\n      0x60\n        /* \"#utility.yul\":2902:2911   */\n      dup5\n        /* \"#utility.yul\":2893:2900   */\n      dup7\n        /* \"#utility.yul\":2889:2912   */\n      sub\n        /* \"#utility.yul\":2885:2917   */\n      slt\n        /* \"#utility.yul\":2882:3001   */\n      iszero\n      tag_119\n      jumpi\n        /* \"#utility.yul\":2920:2999   */\n      tag_120\n      tag_75\n      jump\t// in\n    tag_120:\n        /* \"#utility.yul\":2882:3001   */\n    tag_119:\n        /* \"#utility.yul\":3040:3041   */\n      0x00\n        /* \"#utility.yul\":3065:3129   */\n      tag_121\n        /* \"#utility.yul\":3121:3128   */\n      dup7\n        /* \"#utility.yul\":3112:3118   */\n      dup3\n        /* \"#utility.yul\":3101:3110   */\n      dup8\n        /* \"#utility.yul\":3097:3119   */\n      add\n        /* \"#utility.yul\":3065:3129   */\n      tag_79\n      jump\t// in\n    tag_121:\n        /* \"#utility.yul\":3055:3129   */\n      swap4\n      pop\n        /* \"#utility.yul\":3011:3139   */\n      pop\n        /* \"#utility.yul\":3178:3180   */\n      0x20\n        /* \"#utility.yul\":3204:3268   */\n      tag_122\n        /* \"#utility.yul\":3260:3267   */\n      dup7\n        /* \"#utility.yul\":3251:3257   */\n      dup3\n        /* \"#utility.yul\":3240:3249   */\n      dup8\n        /* \"#utility.yul\":3236:3258   */\n      add\n        /* \"#utility.yul\":3204:3268   */\n      tag_79\n      jump\t// in\n    tag_122:\n        /* \"#utility.yul\":3194:3268   */\n      swap3\n      pop\n        /* \"#utility.yul\":3149:3278   */\n      pop\n        /* \"#utility.yul\":3317:3319   */\n      0x40\n        /* \"#utility.yul\":3343:3404   */\n      tag_123\n        /* \"#utility.yul\":3396:3403   */\n      dup7\n        /* \"#utility.yul\":3387:3393   */\n      dup3\n        /* \"#utility.yul\":3376:3385   */\n      dup8\n        /* \"#utility.yul\":3372:3394   */\n      add\n        /* \"#utility.yul\":3343:3404   */\n      tag_81\n      jump\t// in\n    tag_123:\n        /* \"#utility.yul\":3333:3404   */\n      swap2\n      pop\n        /* \"#utility.yul\":3288:3414   */\n      pop\n        /* \"#utility.yul\":2764:3421   */\n      swap3\n      pop\n      swap3\n      pop\n      swap3\n      jump\t// out\n        /* \"#utility.yul\":3427:3607   */\n    tag_82:\n        /* \"#utility.yul\":3475:3552   */\n      0x4e487b7100000000000000000000000000000000000000000000000000000000\n        /* \"#utility.yul\":3472:3473   */\n      0x00\n        /* \"#utility.yul\":3465:3553   */\n      mstore\n        /* \"#utility.yul\":3572:3576   */\n      0x11\n        /* \"#utility.yul\":3569:3570   */\n      0x04\n        /* \"#utility.yul\":3562:3577   */\n      mstore\n        /* \"#utility.yul\":3596:3600   */\n      0x24\n        /* \"#utility.yul\":3593:3594   */\n      0x00\n        /* \"#utility.yul\":3586:3601   */\n      revert\n        /* \"#utility.yul\":3613:3918   */\n    tag_59:\n        /* \"#utility.yul\":3653:3656   */\n      0x00\n        /* \"#utility.yul\":3672:3692   */\n      tag_126\n        /* \"#utility.yul\":3690:3691   */\n      dup3\n        /* \"#utility.yul\":3672:3692   */\n      tag_70\n      jump\t// in\n    tag_126:\n        /* \"#utility.yul\":3667:3692   */\n      swap2\n      pop\n        /* \"#utility.yul\":3706:3726   */\n      tag_127\n        /* \"#utility.yul\":3724:3725   */\n      dup4\n        /* \"#utility.yul\":3706:3726   */\n      tag_70\n      jump\t// in\n    tag_127:\n        /* \"#utility.yul\":3701:3726   */\n      swap3\n      pop\n        /* \"#utility.yul\":3860:3861   */\n      dup3\n        /* \"#utility.yul\":3792:3858   */\n      0xffffffffffffffffffffffffffffffffffffffffffffffffffffffffffffffff\n        /* \"#utility.yul\":3788:3862   */\n      sub\n        /* \"#utility.yul\":3785:3786   */\n      dup3\n        /* \"#utility.yul\":3782:3863   */\n      gt\n        /* \"#utility.yul\":3779:3886   */\n      iszero\n      tag_128\n      jumpi\n        /* \"#utility.yul\":3866:3884   */\n      tag_129\n      tag_82\n      jump\t// in\n    tag_129:\n        /* \"#utility.yul\":3779:3886   */\n    tag_128:\n        /* \"#utility.yul\":3910:3911   */\n      dup3\n        /* \"#utility.yul\":3907:3908   */\n      dup3\n        /* \"#utility.yul\":3903:3912   */\n      add\n        /* \"#utility.yul\":3896:3912   */\n      swap1\n      pop\n        /* \"#utility.yul\":3613:3918   */\n      swap3\n      swap2\n      pop\n      pop\n      jump\t// out\n\n    auxdata: 0xa2646970667358221220b215236f3fcd06e3b54ab13369f24d5ad54dcd5a155b5a00a10aa3f346de867064736f6c63430008090033\n}\n",
				"bytecode": {
					"linkReferences": {},
					"object": "60806040526000805534801561001457600080fd5b506105e0806100246000396000f3fe60806040526004361061007b5760003560e01c80637dcdc2611161004e5780637dcdc261146101415780638381f58a1461016d578063b262eb7f14610198578063f611bfed146101c35761007b565b806326121ff0146100805780634f5c05c7146100ac57806364e94cc6146100d75780637032c4f214610104575b600080fd5b34801561008c57600080fd5b506100956101e1565b6040516100a39291906103b8565b60405180910390f35b3480156100b857600080fd5b506100c1610276565b6040516100ce91906103e1565b60405180910390f35b3480156100e357600080fd5b506100ec610288565b6040516100fb939291906103fc565b60405180910390f35b34801561011057600080fd5b5061012b60048036038101906101269190610464565b61029e565b60405161013891906103e1565b60405180910390f35b34801561014d57600080fd5b506101566102b4565b6040516101649291906103b8565b60405180910390f35b34801561017957600080fd5b50610182610349565b60405161018f91906103e1565b60405180910390f35b3480156101a457600080fd5b506101ad61034f565b6040516101ba91906103e1565b60405180910390f35b6101cb610365565b6040516101d891906103e1565b60405180910390f35b6000806000803073ffffffffffffffffffffffffffffffffffffffff166364e94cc66040518163ffffffff1660e01b815260040160606040518083038186803b15801561022d57600080fd5b505afa158015610241573d6000803e3d6000fd5b505050506040513d601f19601f8201168201806040525081019061026591906104d2565b925050915081819350935050509091565b600061028061036d565b600054905090565b6000806000606f60de6001925092509250909192565b60006001826102ad9190610554565b9050919050565b6000806000803073ffffffffffffffffffffffffffffffffffffffff166364e94cc66040518163ffffffff1660e01b815260040160606040518083038186803b15801561030057600080fd5b505afa158015610314573d6000803e3d6000fd5b505050506040513d601f19601f8201168201806040525081019061033891906104d2565b925050915081819350935050509091565b60005481565b600060016000546103609190610554565b905090565b600047905090565b600160005461037c9190610554565b600081905550565b6000819050919050565b61039781610384565b82525050565b60008115159050919050565b6103b28161039d565b82525050565b60006040820190506103cd600083018561038e565b6103da60208301846103a9565b9392505050565b60006020820190506103f6600083018461038e565b92915050565b6000606082019050610411600083018661038e565b61041e602083018561038e565b61042b60408301846103a9565b949350505050565b600080fd5b61044181610384565b811461044c57600080fd5b50565b60008135905061045e81610438565b92915050565b60006020828403121561047a57610479610433565b5b60006104888482850161044f565b91505092915050565b6000815190506104a081610438565b92915050565b6104af8161039d565b81146104ba57600080fd5b50565b6000815190506104cc816104a6565b92915050565b6000806000606084860312156104eb576104ea610433565b5b60006104f986828701610491565b935050602061050a86828701610491565b925050604061051b868287016104bd565b9150509250925092565b7f4e487b7100000000000000000000000000000000000000000000000000000000600052601160045260246000fd5b600061055f82610384565b915061056a83610384565b9250827fffffffffffffffffffffffffffffffffffffffffffffffffffffffffffffffff0382111561059f5761059e610525565b5b82820190509291505056fea2646970667358221220b215236f3fcd06e3b54ab13369f24d5ad54dcd5a155b5a00a10aa3f346de867064736f6c63430008090033",
					"opcodes": "PUSH1 0x80 PUSH1 0x40 MSTORE PUSH1 0x0 DUP1 SSTORE CALLVALUE DUP1 ISZERO PUSH2 0x14 JUMPI PUSH1 0x0 DUP1 REVERT JUMPDEST POP PUSH2 0x5E0 DUP1 PUSH2 0x24 PUSH1 0x0 CODECOPY PUSH1 0x0 RETURN INVALID PUSH1 0x80 PUSH1 0x40 MSTORE PUSH1 0x4 CALLDATASIZE LT PUSH2 0x7B JUMPI PUSH1 0x0 CALLDATALOAD PUSH1 0xE0 SHR DUP1 PUSH4 0x7DCDC261 GT PUSH2 0x4E JUMPI DUP1 PUSH4 0x7DCDC261 EQ PUSH2 0x141 JUMPI DUP1 PUSH4 0x8381F58A EQ PUSH2 0x16D JUMPI DUP1 PUSH4 0xB262EB7F EQ PUSH2 0x198 JUMPI DUP1 PUSH4 0xF611BFED EQ PUSH2 0x1C3 JUMPI PUSH2 0x7B JUMP JUMPDEST DUP1 PUSH4 0x26121FF0 EQ PUSH2 0x80 JUMPI DUP1 PUSH4 0x4F5C05C7 EQ PUSH2 0xAC JUMPI DUP1 PUSH4 0x64E94CC6 EQ PUSH2 0xD7 JUMPI DUP1 PUSH4 0x7032C4F2 EQ PUSH2 0x104 JUMPI JUMPDEST PUSH1 0x0 DUP1 REVERT JUMPDEST CALLVALUE DUP1 ISZERO PUSH2 0x8C JUMPI PUSH1 0x0 DUP1 REVERT JUMPDEST POP PUSH2 0x95 PUSH2 0x1E1 JUMP JUMPDEST PUSH1 0x40 MLOAD PUSH2 0xA3 SWAP3 SWAP2 SWAP1 PUSH2 0x3B8 JUMP JUMPDEST PUSH1 0x40 MLOAD DUP1 SWAP2 SUB SWAP1 RETURN JUMPDEST CALLVALUE DUP1 ISZERO PUSH2 0xB8 JUMPI PUSH1 0x0 DUP1 REVERT JUMPDEST POP PUSH2 0xC1 PUSH2 0x276 JUMP JUMPDEST PUSH1 0x40 MLOAD PUSH2 0xCE SWAP2 SWAP1 PUSH2 0x3E1 JUMP JUMPDEST PUSH1 0x40 MLOAD DUP1 SWAP2 SUB SWAP1 RETURN JUMPDEST CALLVALUE DUP1 ISZERO PUSH2 0xE3 JUMPI PUSH1 0x0 DUP1 REVERT JUMPDEST POP PUSH2 0xEC PUSH2 0x288 JUMP JUMPDEST PUSH1 0x40 MLOAD PUSH2 0xFB SWAP4 SWAP3 SWAP2 SWAP1 PUSH2 0x3FC JUMP JUMPDEST PUSH1 0x40 MLOAD DUP1 SWAP2 SUB SWAP1 RETURN JUMPDEST CALLVALUE DUP1 ISZERO PUSH2 0x110 JUMPI PUSH1 0x0 DUP1 REVERT JUMPDEST POP PUSH2 0x12B PUSH1 0x4 DUP1 CALLDATASIZE SUB DUP2 ADD SWAP1 PUSH2 0x126 SWAP2 SWAP1 PUSH2 0x464 JUMP JUMPDEST PUSH2 0x29E JUMP JUMPDEST PUSH1 0x40 MLOAD PUSH2 0x138 SWAP2 SWAP1 PUSH2 0x3E1 JUMP JUMPDEST PUSH1 0x40 MLOAD DUP1 SWAP2 SUB SWAP1 RETURN JUMPDEST CALLVALUE DUP1 ISZERO PUSH2 0x14D JUMPI PUSH1 0x0 DUP1 REVERT JUMPDEST POP PUSH2 0x156 PUSH2 0x2B4 JUMP JUMPDEST PUSH1 0x40 MLOAD PUSH2 0x164 SWAP3 SWAP2 SWAP1 PUSH2 0x3B8 JUMP JUMPDEST PUSH1 0x40 MLOAD DUP1 SWAP2 SUB SWAP1 RETURN JUMPDEST CALLVALUE DUP1 ISZERO PUSH2 0x179 JUMPI PUSH1 0x0 DUP1 REVERT JUMPDEST POP PUSH2 0x182 PUSH2 0x349 JUMP JUMPDEST PUSH1 0x40 MLOAD PUSH2 0x18F SWAP2 SWAP1 PUSH2 0x3E1 JUMP JUMPDEST PUSH1 0x40 MLOAD DUP1 SWAP2 SUB SWAP1 RETURN JUMPDEST CALLVALUE DUP1 ISZERO PUSH2 0x1A4 JUMPI PUSH1 0x0 DUP1 REVERT JUMPDEST POP PUSH2 0x1AD PUSH2 0x34F JUMP JUMPDEST PUSH1 0x40 MLOAD PUSH2 0x1BA SWAP2 SWAP1 PUSH2 0x3E1 JUMP JUMPDEST PUSH1 0x40 MLOAD DUP1 SWAP2 SUB SWAP1 RETURN JUMPDEST PUSH2 0x1CB PUSH2 0x365 JUMP JUMPDEST PUSH1 0x40 MLOAD PUSH2 0x1D8 SWAP2 SWAP1 PUSH2 0x3E1 JUMP JUMPDEST PUSH1 0x40 MLOAD DUP1 SWAP2 SUB SWAP1 RETURN JUMPDEST PUSH1 0x0 DUP1 PUSH1 0x0 DUP1 ADDRESS PUSH20 0xFFFFFFFFFFFFFFFFFFFFFFFFFFFFFFFFFFFFFFFF AND PUSH4 0x64E94CC6 PUSH1 0x40 MLOAD DUP2 PUSH4 0xFFFFFFFF AND PUSH1 0xE0 SHL DUP2 MSTORE PUSH1 0x4 ADD PUSH1 0x60 PUSH1 0x40 MLOAD DUP1 DUP4 SUB DUP2 DUP7 DUP1 EXTCODESIZE ISZERO DUP1 ISZERO PUSH2 0x22D JUMPI PUSH1 0x0 DUP1 REVERT JUMPDEST POP GAS STATICCALL ISZERO DUP1 ISZERO PUSH2 0x241 JUMPI RETURNDATASIZE PUSH1 0x0 DUP1 RETURNDATACOPY RETURNDATASIZE PUSH1 0x0 REVERT JUMPDEST POP POP POP POP PUSH1 0x40 MLOAD RETURNDATASIZE PUSH1 0x1F NOT PUSH1 0x1F DUP3 ADD AND DUP3 ADD DUP1 PUSH1 0x40 MSTORE POP DUP2 ADD SWAP1 PUSH2 0x265 SWAP2 SWAP1 PUSH2 0x4D2 JUMP JUMPDEST SWAP3 POP POP SWAP2 POP DUP2 DUP2 SWAP4 POP SWAP4 POP POP POP SWAP1 SWAP2 JUMP JUMPDEST PUSH1 0x0 PUSH2 0x280 PUSH2 0x36D JUMP JUMPDEST PUSH1 0x0 SLOAD SWAP1 POP SWAP1 JUMP JUMPDEST PUSH1 0x0 DUP1 PUSH1 0x0 PUSH1 0x6F PUSH1 0xDE PUSH1 0x1 SWAP3 POP SWAP3 POP SWAP3 POP SWAP1 SWAP2 SWAP3 JUMP JUMPDEST PUSH1 0x0 PUSH1 0x1 DUP3 PUSH2 0x2AD SWAP2 SWAP1 PUSH2 0x554 JUMP JUMPDEST SWAP1 POP SWAP2 SWAP1 POP JUMP JUMPDEST PUSH1 0x0 DUP1 PUSH1 0x0 DUP1 ADDRESS PUSH20 0xFFFFFFFFFFFFFFFFFFFFFFFFFFFFFFFFFFFFFFFF AND PUSH4 0x64E94CC6 PUSH1 0x40 MLOAD DUP2 PUSH4 0xFFFFFFFF AND PUSH1 0xE0 SHL DUP2 MSTORE PUSH1 0x4 ADD PUSH1 0x60 PUSH1 0x40 MLOAD DUP1 DUP4 SUB DUP2 DUP7 DUP1 EXTCODESIZE ISZERO DUP1 ISZERO PUSH2 0x300 JUMPI PUSH1 0x0 DUP1 REVERT JUMPDEST POP GAS STATICCALL ISZERO DUP1 ISZERO PUSH2 0x314 JUMPI RETURNDATASIZE PUSH1 0x0 DUP1 RETURNDATACOPY RETURNDATASIZE PUSH1 0x0 REVERT JUMPDEST POP POP POP POP PUSH1 0x40 MLOAD RETURNDATASIZE PUSH1 0x1F NOT PUSH1 0x1F DUP3 ADD AND DUP3 ADD DUP1 PUSH1 0x40 MSTORE POP DUP2 ADD SWAP1 PUSH2 0x338 SWAP2 SWAP1 PUSH2 0x4D2 JUMP JUMPDEST SWAP3 POP POP SWAP2 POP DUP2 DUP2 SWAP4 POP SWAP4 POP POP POP SWAP1 SWAP2 JUMP JUMPDEST PUSH1 0x0 SLOAD DUP2 JUMP JUMPDEST PUSH1 0x0 PUSH1 0x1 PUSH1 0x0 SLOAD PUSH2 0x360 SWAP2 SWAP1 PUSH2 0x554 JUMP JUMPDEST SWAP1 POP SWAP1 JUMP JUMPDEST PUSH1 0x0 SELFBALANCE SWAP1 POP SWAP1 JUMP JUMPDEST PUSH1 0x1 PUSH1 0x0 SLOAD PUSH2 0x37C SWAP2 SWAP1 PUSH2 0x554 JUMP JUMPDEST PUSH1 0x0 DUP2 SWAP1 SSTORE POP JUMP JUMPDEST PUSH1 0x0 DUP2 SWAP1 POP SWAP2 SWAP1 POP JUMP JUMPDEST PUSH2 0x397 DUP2 PUSH2 0x384 JUMP JUMPDEST DUP3 MSTORE POP POP JUMP JUMPDEST PUSH1 0x0 DUP2 ISZERO ISZERO SWAP1 POP SWAP2 SWAP1 POP JUMP JUMPDEST PUSH2 0x3B2 DUP2 PUSH2 0x39D JUMP JUMPDEST DUP3 MSTORE POP POP JUMP JUMPDEST PUSH1 0x0 PUSH1 0x40 DUP3 ADD SWAP1 POP PUSH2 0x3CD PUSH1 0x0 DUP4 ADD DUP6 PUSH2 0x38E JUMP JUMPDEST PUSH2 0x3DA PUSH1 0x20 DUP4 ADD DUP5 PUSH2 0x3A9 JUMP JUMPDEST SWAP4 SWAP3 POP POP POP JUMP JUMPDEST PUSH1 0x0 PUSH1 0x20 DUP3 ADD SWAP1 POP PUSH2 0x3F6 PUSH1 0x0 DUP4 ADD DUP5 PUSH2 0x38E JUMP JUMPDEST SWAP3 SWAP2 POP POP JUMP JUMPDEST PUSH1 0x0 PUSH1 0x60 DUP3 ADD SWAP1 POP PUSH2 0x411 PUSH1 0x0 DUP4 ADD DUP7 PUSH2 0x38E JUMP JUMPDEST PUSH2 0x41E PUSH1 0x20 DUP4 ADD DUP6 PUSH2 0x38E JUMP JUMPDEST PUSH2 0x42B PUSH1 0x40 DUP4 ADD DUP5 PUSH2 0x3A9 JUMP JUMPDEST SWAP5 SWAP4 POP POP POP POP JUMP JUMPDEST PUSH1 0x0 DUP1 REVERT JUMPDEST PUSH2 0x441 DUP2 PUSH2 0x384 JUMP JUMPDEST DUP2 EQ PUSH2 0x44C JUMPI PUSH1 0x0 DUP1 REVERT JUMPDEST POP JUMP JUMPDEST PUSH1 0x0 DUP2 CALLDATALOAD SWAP1 POP PUSH2 0x45E DUP2 PUSH2 0x438 JUMP JUMPDEST SWAP3 SWAP2 POP POP JUMP JUMPDEST PUSH1 0x0 PUSH1 0x20 DUP3 DUP5 SUB SLT ISZERO PUSH2 0x47A JUMPI PUSH2 0x479 PUSH2 0x433 JUMP JUMPDEST JUMPDEST PUSH1 0x0 PUSH2 0x488 DUP5 DUP3 DUP6 ADD PUSH2 0x44F JUMP JUMPDEST SWAP2 POP POP SWAP3 SWAP2 POP POP JUMP JUMPDEST PUSH1 0x0 DUP2 MLOAD SWAP1 POP PUSH2 0x4A0 DUP2 PUSH2 0x438 JUMP JUMPDEST SWAP3 SWAP2 POP POP JUMP JUMPDEST PUSH2 0x4AF DUP2 PUSH2 0x39D JUMP JUMPDEST DUP2 EQ PUSH2 0x4BA JUMPI PUSH1 0x0 DUP1 REVERT JUMPDEST POP JUMP JUMPDEST PUSH1 0x0 DUP2 MLOAD SWAP1 POP PUSH2 0x4CC DUP2 PUSH2 0x4A6 JUMP JUMPDEST SWAP3 SWAP2 POP POP JUMP JUMPDEST PUSH1 0x0 DUP1 PUSH1 0x0 PUSH1 0x60 DUP5 DUP7 SUB SLT ISZERO PUSH2 0x4EB JUMPI PUSH2 0x4EA PUSH2 0x433 JUMP JUMPDEST JUMPDEST PUSH1 0x0 PUSH2 0x4F9 DUP7 DUP3 DUP8 ADD PUSH2 0x491 JUMP JUMPDEST SWAP4 POP POP PUSH1 0x20 PUSH2 0x50A DUP7 DUP3 DUP8 ADD PUSH2 0x491 JUMP JUMPDEST SWAP3 POP POP PUSH1 0x40 PUSH2 0x51B DUP7 DUP3 DUP8 ADD PUSH2 0x4BD JUMP JUMPDEST SWAP2 POP POP SWAP3 POP SWAP3 POP SWAP3 JUMP JUMPDEST PUSH32 0x4E487B7100000000000000000000000000000000000000000000000000000000 PUSH1 0x0 MSTORE PUSH1 0x11 PUSH1 0x4 MSTORE PUSH1 0x24 PUSH1 0x0 REVERT JUMPDEST PUSH1 0x0 PUSH2 0x55F DUP3 PUSH2 0x384 JUMP JUMPDEST SWAP2 POP PUSH2 0x56A DUP4 PUSH2 0x384 JUMP JUMPDEST SWAP3 POP DUP3 PUSH32 0xFFFFFFFFFFFFFFFFFFFFFFFFFFFFFFFFFFFFFFFFFFFFFFFFFFFFFFFFFFFFFFFF SUB DUP3 GT ISZERO PUSH2 0x59F JUMPI PUSH2 0x59E PUSH2 0x525 JUMP JUMPDEST JUMPDEST DUP3 DUP3 ADD SWAP1 POP SWAP3 SWAP2 POP POP JUMP INVALID LOG2 PUSH5 0x6970667358 0x22 SLT KECCAK256 0xB2 ISZERO 0x23 PUSH16 0x3FCD06E3B54AB13369F24D5AD54DCD5A ISZERO JUMPDEST GAS STOP LOG1 EXP LOG3 RETURN CHAINID 0xDE DUP7 PUSH17 0x64736F6C63430008090033000000000000 "
				},
				"gasEstimates": {
					"creation": {
						"codeDepositCost": "300800",
						"executionCost": "5343",
						"totalCost": "306143"
					},
					"external": {
						"addExternal()": "infinite",
						"addPayable()": "381",
						"addPure(uint256)": "infinite",
						"addView()": "infinite",
						"f()": "infinite",
						"fnReturn()": "infinite",
						"fnReturn2()": "infinite",
						"number()": "2451"
					},
					"internal": {
						"addInternal()": "infinite"
					}
				},
				"methodIdentifiers": {
					"addExternal()": "4f5c05c7",
					"addPayable()": "f611bfed",
					"addPure(uint256)": "7032c4f2",
					"addView()": "b262eb7f",
					"f()": "26121ff0",
					"fnReturn()": "64e94cc6",
					"fnReturn2()": "7dcdc261",
					"number()": "8381f58a"
				}
			},
			"storageLayout": {
				"storage": [
					{
						"astId": 4,
						"contract": "contracts/03FunctionTypes.sol:FunctionTypes",
						"label": "number",
						"offset": 0,
						"slot": "0",
						"type": "t_uint256"
					}
				],
				"types": {
					"t_uint256": {
						"encoding": "inplace",
						"label": "uint256",
						"numberOfBytes": "32"
					}
				}
			},
			"userdoc": {
				"kind": "user",
				"methods": {},
				"version": 1
			}
		}
	}
}