{
	"contracts/04VarStorage.sol": {
		"VarStorage": {
			"abi": [
				{
					"inputs": [
						{
							"internalType": "uint256",
							"name": "",
							"type": "uint256"
						}
					],
					"name": "arr1",
					"outputs": [
						{
							"internalType": "uint256",
							"name": "",
							"type": "uint256"
						}
					],
					"stateMutability": "view",
					"type": "function"
				},
				{
					"inputs": [
						{
							"internalType": "uint256",
							"name": "",
							"type": "uint256"
						}
					],
					"name": "arr2",
					"outputs": [
						{
							"internalType": "uint256",
							"name": "",
							"type": "uint256"
						}
					],
					"stateMutability": "view",
					"type": "function"
				},
				{
					"inputs": [
						{
							"internalType": "uint256[]",
							"name": "_x",
							"type": "uint256[]"
						}
					],
					"name": "fCalldata",
					"outputs": [
						{
							"internalType": "uint256[]",
							"name": "",
							"type": "uint256[]"
						}
					],
					"stateMutability": "pure",
					"type": "function"
				},
				{
					"inputs": [],
					"name": "modify",
					"outputs": [
						{
							"internalType": "uint256",
							"name": "",
							"type": "uint256"
						},
						{
							"internalType": "uint256",
							"name": "",
							"type": "uint256"
						}
					],
					"stateMutability": "nonpayable",
					"type": "function"
				}
			],
			"devdoc": {
				"kind": "dev",
				"methods": {},
				"version": 1
			},
			"evm": {
				"assembly": "    /* \"contracts/04VarStorage.sol\":1166:1746  contract VarStorage{... */\n  mstore(0x40, 0x80)\n  callvalue\n  dup1\n  iszero\n  tag_1\n  jumpi\n  0x00\n  dup1\n  revert\ntag_1:\n  pop\n  dataSize(sub_0)\n  dup1\n  dataOffset(sub_0)\n  0x00\n  codecopy\n  0x00\n  return\nstop\n\nsub_0: assembly {\n        /* \"contracts/04VarStorage.sol\":1166:1746  contract VarStorage{... */\n      mstore(0x40, 0x80)\n      callvalue\n      dup1\n      iszero\n      tag_1\n      jumpi\n      0x00\n      dup1\n      revert\n    tag_1:\n      pop\n      jumpi(tag_2, lt(calldatasize, 0x04))\n      shr(0xe0, calldataload(0x00))\n      dup1\n      0x64cf33b8\n      eq\n      tag_3\n      jumpi\n      dup1\n      0x6987b1fb\n      eq\n      tag_4\n      jumpi\n      dup1\n      0x9b1a379c\n      eq\n      tag_5\n      jumpi\n      dup1\n      0xedf0099b\n      eq\n      tag_6\n      jumpi\n    tag_2:\n      0x00\n      dup1\n      revert\n        /* \"contracts/04VarStorage.sol\":1532:1743  function modify() public returns(uint, uint){... */\n    tag_3:\n      tag_7\n      tag_8\n      jump\t// in\n    tag_7:\n      mload(0x40)\n      tag_9\n      swap3\n      swap2\n      swap1\n      tag_10\n      jump\t// in\n    tag_9:\n      mload(0x40)\n      dup1\n      swap2\n      sub\n      swap1\n      return\n        /* \"contracts/04VarStorage.sol\":1192:1210  uint[] public arr1 */\n    tag_4:\n      tag_11\n      0x04\n      dup1\n      calldatasize\n      sub\n      dup2\n      add\n      swap1\n      tag_12\n      swap2\n      swap1\n      tag_13\n      jump\t// in\n    tag_12:\n      tag_14\n      jump\t// in\n    tag_11:\n      mload(0x40)\n      tag_15\n      swap2\n      swap1\n      tag_16\n      jump\t// in\n    tag_15:\n      mload(0x40)\n      dup1\n      swap2\n      sub\n      swap1\n      return\n        /* \"contracts/04VarStorage.sol\":1244:1447  function fCalldata(uint[] calldata _x) public pure returns(uint[] calldata){... */\n    tag_5:\n      tag_17\n      0x04\n      dup1\n      calldatasize\n      sub\n      dup2\n      add\n      swap1\n      tag_18\n      swap2\n      swap1\n      tag_19\n      jump\t// in\n    tag_18:\n      tag_20\n      jump\t// in\n    tag_17:\n      mload(0x40)\n      tag_21\n      swap3\n      swap2\n      swap1\n      tag_22\n      jump\t// in\n    tag_21:\n      mload(0x40)\n      dup1\n      swap2\n      sub\n      swap1\n      return\n        /* \"contracts/04VarStorage.sol\":1217:1235  uint[] public arr2 */\n    tag_6:\n      tag_23\n      0x04\n      dup1\n      calldatasize\n      sub\n      dup2\n      add\n      swap1\n      tag_24\n      swap2\n      swap1\n      tag_13\n      jump\t// in\n    tag_24:\n      tag_25\n      jump\t// in\n    tag_23:\n      mload(0x40)\n      tag_26\n      swap2\n      swap1\n      tag_16\n      jump\t// in\n    tag_26:\n      mload(0x40)\n      dup1\n      swap2\n      sub\n      swap1\n      return\n        /* \"contracts/04VarStorage.sol\":1532:1743  function modify() public returns(uint, uint){... */\n    tag_8:\n        /* \"contracts/04VarStorage.sol\":1565:1569  uint */\n      0x00\n        /* \"contracts/04VarStorage.sol\":1571:1575  uint */\n      dup1\n        /* \"contracts/04VarStorage.sol\":1587:1606  uint[] memory _arr1 */\n      0x00\n        /* \"contracts/04VarStorage.sol\":1609:1613  arr1 */\n      dup1\n        /* \"contracts/04VarStorage.sol\":1587:1613  uint[] memory _arr1 = arr1 */\n      dup1\n      sload\n      dup1\n      0x20\n      mul\n      0x20\n      add\n      mload(0x40)\n      swap1\n      dup2\n      add\n      0x40\n      mstore\n      dup1\n      swap3\n      swap2\n      swap1\n      dup2\n      dup2\n      mstore\n      0x20\n      add\n      dup3\n      dup1\n      sload\n      dup1\n      iszero\n      tag_28\n      jumpi\n      0x20\n      mul\n      dup3\n      add\n      swap2\n      swap1\n      0x00\n      mstore\n      keccak256(0x00, 0x20)\n      swap1\n    tag_29:\n      dup2\n      sload\n      dup2\n      mstore\n      0x20\n      add\n      swap1\n      0x01\n      add\n      swap1\n      dup1\n      dup4\n      gt\n      tag_29\n      jumpi\n    tag_28:\n      pop\n      pop\n      pop\n      pop\n      pop\n      swap1\n      pop\n        /* \"contracts/04VarStorage.sol\":1624:1644  uint[] storage _arr2 */\n      0x00\n        /* \"contracts/04VarStorage.sol\":1647:1651  arr2 */\n      0x01\n        /* \"contracts/04VarStorage.sol\":1624:1651  uint[] storage _arr2 = arr2 */\n      swap1\n      pop\n        /* \"contracts/04VarStorage.sol\":1673:1674  1 */\n      0x01\n        /* \"contracts/04VarStorage.sol\":1662:1667  _arr1 */\n      dup3\n        /* \"contracts/04VarStorage.sol\":1668:1669  0 */\n      0x00\n        /* \"contracts/04VarStorage.sol\":1662:1670  _arr1[0] */\n      dup2\n      mload\n      dup2\n      lt\n      tag_30\n      jumpi\n      tag_31\n      tag_32\n      jump\t// in\n    tag_31:\n    tag_30:\n      0x20\n      mul\n      0x20\n      add\n      add\n        /* \"contracts/04VarStorage.sol\":1662:1674  _arr1[0] = 1 */\n      dup2\n      dup2\n      mstore\n      pop\n      pop\n        /* \"contracts/04VarStorage.sol\":1696:1697  2 */\n      0x02\n        /* \"contracts/04VarStorage.sol\":1685:1690  _arr2 */\n      dup2\n        /* \"contracts/04VarStorage.sol\":1691:1692  0 */\n      0x00\n        /* \"contracts/04VarStorage.sol\":1685:1693  _arr2[0] */\n      dup2\n      sload\n      dup2\n      lt\n      tag_33\n      jumpi\n      tag_34\n      tag_32\n      jump\t// in\n    tag_34:\n    tag_33:\n      swap1\n      0x00\n      mstore\n      keccak256(0x00, 0x20)\n      add\n        /* \"contracts/04VarStorage.sol\":1685:1697  _arr2[0] = 2 */\n      dup2\n      swap1\n      sstore\n      pop\n        /* \"contracts/04VarStorage.sol\":1716:1721  _arr1 */\n      dup2\n        /* \"contracts/04VarStorage.sol\":1722:1723  0 */\n      0x00\n        /* \"contracts/04VarStorage.sol\":1716:1724  _arr1[0] */\n      dup2\n      mload\n      dup2\n      lt\n      tag_36\n      jumpi\n      tag_37\n      tag_32\n      jump\t// in\n    tag_37:\n    tag_36:\n      0x20\n      mul\n      0x20\n      add\n      add\n      mload\n        /* \"contracts/04VarStorage.sol\":1726:1731  _arr2 */\n      dup2\n        /* \"contracts/04VarStorage.sol\":1732:1733  0 */\n      0x00\n        /* \"contracts/04VarStorage.sol\":1726:1734  _arr2[0] */\n      dup2\n      sload\n      dup2\n      lt\n      tag_38\n      jumpi\n      tag_39\n      tag_32\n      jump\t// in\n    tag_39:\n    tag_38:\n      swap1\n      0x00\n      mstore\n      keccak256(0x00, 0x20)\n      add\n      sload\n        /* \"contracts/04VarStorage.sol\":1708:1735  return (_arr1[0], _arr2[0]) */\n      swap4\n      pop\n      swap4\n      pop\n      pop\n      pop\n        /* \"contracts/04VarStorage.sol\":1532:1743  function modify() public returns(uint, uint){... */\n      swap1\n      swap2\n      jump\t// out\n        /* \"contracts/04VarStorage.sol\":1192:1210  uint[] public arr1 */\n    tag_14:\n      0x00\n      dup2\n      dup2\n      sload\n      dup2\n      lt\n      tag_41\n      jumpi\n      0x00\n      dup1\n      revert\n    tag_41:\n      swap1\n      0x00\n      mstore\n      keccak256(0x00, 0x20)\n      add\n      0x00\n      swap2\n      pop\n      swap1\n      pop\n      sload\n      dup2\n      jump\t// out\n        /* \"contracts/04VarStorage.sol\":1244:1447  function fCalldata(uint[] calldata _x) public pure returns(uint[] calldata){... */\n    tag_20:\n        /* \"contracts/04VarStorage.sol\":1303:1318  uint[] calldata */\n      calldatasize\n      0x00\n        /* \"contracts/04VarStorage.sol\":1436:1438  _x */\n      dup4\n      dup4\n        /* \"contracts/04VarStorage.sol\":1429:1439  return(_x) */\n      swap2\n      pop\n      swap2\n      pop\n        /* \"contracts/04VarStorage.sol\":1244:1447  function fCalldata(uint[] calldata _x) public pure returns(uint[] calldata){... */\n      swap3\n      pop\n      swap3\n      swap1\n      pop\n      jump\t// out\n        /* \"contracts/04VarStorage.sol\":1217:1235  uint[] public arr2 */\n    tag_25:\n      0x01\n      dup2\n      dup2\n      sload\n      dup2\n      lt\n      tag_44\n      jumpi\n      0x00\n      dup1\n      revert\n    tag_44:\n      swap1\n      0x00\n      mstore\n      keccak256(0x00, 0x20)\n      add\n      0x00\n      swap2\n      pop\n      swap1\n      pop\n      sload\n      dup2\n      jump\t// out\n        /* \"#utility.yul\":7:84   */\n    tag_46:\n        /* \"#utility.yul\":44:51   */\n      0x00\n        /* \"#utility.yul\":73:78   */\n      dup2\n        /* \"#utility.yul\":62:78   */\n      swap1\n      pop\n        /* \"#utility.yul\":7:84   */\n      swap2\n      swap1\n      pop\n      jump\t// out\n        /* \"#utility.yul\":90:208   */\n    tag_47:\n        /* \"#utility.yul\":177:201   */\n      tag_64\n        /* \"#utility.yul\":195:200   */\n      dup2\n        /* \"#utility.yul\":177:201   */\n      tag_46\n      jump\t// in\n    tag_64:\n        /* \"#utility.yul\":172:175   */\n      dup3\n        /* \"#utility.yul\":165:202   */\n      mstore\n        /* \"#utility.yul\":90:208   */\n      pop\n      pop\n      jump\t// out\n        /* \"#utility.yul\":214:546   */\n    tag_10:\n        /* \"#utility.yul\":335:339   */\n      0x00\n        /* \"#utility.yul\":373:375   */\n      0x40\n        /* \"#utility.yul\":362:371   */\n      dup3\n        /* \"#utility.yul\":358:376   */\n      add\n        /* \"#utility.yul\":350:376   */\n      swap1\n      pop\n        /* \"#utility.yul\":386:457   */\n      tag_66\n        /* \"#utility.yul\":454:455   */\n      0x00\n        /* \"#utility.yul\":443:452   */\n      dup4\n        /* \"#utility.yul\":439:456   */\n      add\n        /* \"#utility.yul\":430:436   */\n      dup6\n        /* \"#utility.yul\":386:457   */\n      tag_47\n      jump\t// in\n    tag_66:\n        /* \"#utility.yul\":467:539   */\n      tag_67\n        /* \"#utility.yul\":535:537   */\n      0x20\n        /* \"#utility.yul\":524:533   */\n      dup4\n        /* \"#utility.yul\":520:538   */\n      add\n        /* \"#utility.yul\":511:517   */\n      dup5\n        /* \"#utility.yul\":467:539   */\n      tag_47\n      jump\t// in\n    tag_67:\n        /* \"#utility.yul\":214:546   */\n      swap4\n      swap3\n      pop\n      pop\n      pop\n      jump\t// out\n        /* \"#utility.yul\":633:750   */\n    tag_49:\n        /* \"#utility.yul\":742:743   */\n      0x00\n        /* \"#utility.yul\":739:740   */\n      dup1\n        /* \"#utility.yul\":732:744   */\n      revert\n        /* \"#utility.yul\":756:873   */\n    tag_50:\n        /* \"#utility.yul\":865:866   */\n      0x00\n        /* \"#utility.yul\":862:863   */\n      dup1\n        /* \"#utility.yul\":855:867   */\n      revert\n        /* \"#utility.yul\":879:1001   */\n    tag_51:\n        /* \"#utility.yul\":952:976   */\n      tag_72\n        /* \"#utility.yul\":970:975   */\n      dup2\n        /* \"#utility.yul\":952:976   */\n      tag_46\n      jump\t// in\n    tag_72:\n        /* \"#utility.yul\":945:950   */\n      dup2\n        /* \"#utility.yul\":942:977   */\n      eq\n        /* \"#utility.yul\":932:995   */\n      tag_73\n      jumpi\n        /* \"#utility.yul\":991:992   */\n      0x00\n        /* \"#utility.yul\":988:989   */\n      dup1\n        /* \"#utility.yul\":981:993   */\n      revert\n        /* \"#utility.yul\":932:995   */\n    tag_73:\n        /* \"#utility.yul\":879:1001   */\n      pop\n      jump\t// out\n        /* \"#utility.yul\":1007:1146   */\n    tag_52:\n        /* \"#utility.yul\":1053:1058   */\n      0x00\n        /* \"#utility.yul\":1091:1097   */\n      dup2\n        /* \"#utility.yul\":1078:1098   */\n      calldataload\n        /* \"#utility.yul\":1069:1098   */\n      swap1\n      pop\n        /* \"#utility.yul\":1107:1140   */\n      tag_75\n        /* \"#utility.yul\":1134:1139   */\n      dup2\n        /* \"#utility.yul\":1107:1140   */\n      tag_51\n      jump\t// in\n    tag_75:\n        /* \"#utility.yul\":1007:1146   */\n      swap3\n      swap2\n      pop\n      pop\n      jump\t// out\n        /* \"#utility.yul\":1152:1481   */\n    tag_13:\n        /* \"#utility.yul\":1211:1217   */\n      0x00\n        /* \"#utility.yul\":1260:1262   */\n      0x20\n        /* \"#utility.yul\":1248:1257   */\n      dup3\n        /* \"#utility.yul\":1239:1246   */\n      dup5\n        /* \"#utility.yul\":1235:1258   */\n      sub\n        /* \"#utility.yul\":1231:1263   */\n      slt\n        /* \"#utility.yul\":1228:1347   */\n      iszero\n      tag_77\n      jumpi\n        /* \"#utility.yul\":1266:1345   */\n      tag_78\n      tag_49\n      jump\t// in\n    tag_78:\n        /* \"#utility.yul\":1228:1347   */\n    tag_77:\n        /* \"#utility.yul\":1386:1387   */\n      0x00\n        /* \"#utility.yul\":1411:1464   */\n      tag_79\n        /* \"#utility.yul\":1456:1463   */\n      dup5\n        /* \"#utility.yul\":1447:1453   */\n      dup3\n        /* \"#utility.yul\":1436:1445   */\n      dup6\n        /* \"#utility.yul\":1432:1454   */\n      add\n        /* \"#utility.yul\":1411:1464   */\n      tag_52\n      jump\t// in\n    tag_79:\n        /* \"#utility.yul\":1401:1464   */\n      swap2\n      pop\n        /* \"#utility.yul\":1357:1474   */\n      pop\n        /* \"#utility.yul\":1152:1481   */\n      swap3\n      swap2\n      pop\n      pop\n      jump\t// out\n        /* \"#utility.yul\":1487:1709   */\n    tag_16:\n        /* \"#utility.yul\":1580:1584   */\n      0x00\n        /* \"#utility.yul\":1618:1620   */\n      0x20\n        /* \"#utility.yul\":1607:1616   */\n      dup3\n        /* \"#utility.yul\":1603:1621   */\n      add\n        /* \"#utility.yul\":1595:1621   */\n      swap1\n      pop\n        /* \"#utility.yul\":1631:1702   */\n      tag_81\n        /* \"#utility.yul\":1699:1700   */\n      0x00\n        /* \"#utility.yul\":1688:1697   */\n      dup4\n        /* \"#utility.yul\":1684:1701   */\n      add\n        /* \"#utility.yul\":1675:1681   */\n      dup5\n        /* \"#utility.yul\":1631:1702   */\n      tag_47\n      jump\t// in\n    tag_81:\n        /* \"#utility.yul\":1487:1709   */\n      swap3\n      swap2\n      pop\n      pop\n      jump\t// out\n        /* \"#utility.yul\":1715:1832   */\n    tag_53:\n        /* \"#utility.yul\":1824:1825   */\n      0x00\n        /* \"#utility.yul\":1821:1822   */\n      dup1\n        /* \"#utility.yul\":1814:1826   */\n      revert\n        /* \"#utility.yul\":1838:1955   */\n    tag_54:\n        /* \"#utility.yul\":1947:1948   */\n      0x00\n        /* \"#utility.yul\":1944:1945   */\n      dup1\n        /* \"#utility.yul\":1937:1949   */\n      revert\n        /* \"#utility.yul\":1961:2078   */\n    tag_55:\n        /* \"#utility.yul\":2070:2071   */\n      0x00\n        /* \"#utility.yul\":2067:2068   */\n      dup1\n        /* \"#utility.yul\":2060:2072   */\n      revert\n        /* \"#utility.yul\":2101:2669   */\n    tag_56:\n        /* \"#utility.yul\":2174:2182   */\n      0x00\n        /* \"#utility.yul\":2184:2190   */\n      dup1\n        /* \"#utility.yul\":2234:2237   */\n      dup4\n        /* \"#utility.yul\":2227:2231   */\n      0x1f\n        /* \"#utility.yul\":2219:2225   */\n      dup5\n        /* \"#utility.yul\":2215:2232   */\n      add\n        /* \"#utility.yul\":2211:2238   */\n      slt\n        /* \"#utility.yul\":2201:2323   */\n      tag_86\n      jumpi\n        /* \"#utility.yul\":2242:2321   */\n      tag_87\n      tag_53\n      jump\t// in\n    tag_87:\n        /* \"#utility.yul\":2201:2323   */\n    tag_86:\n        /* \"#utility.yul\":2355:2361   */\n      dup3\n        /* \"#utility.yul\":2342:2362   */\n      calldataload\n        /* \"#utility.yul\":2332:2362   */\n      swap1\n      pop\n        /* \"#utility.yul\":2385:2403   */\n      0xffffffffffffffff\n        /* \"#utility.yul\":2377:2383   */\n      dup2\n        /* \"#utility.yul\":2374:2404   */\n      gt\n        /* \"#utility.yul\":2371:2488   */\n      iszero\n      tag_88\n      jumpi\n        /* \"#utility.yul\":2407:2486   */\n      tag_89\n      tag_54\n      jump\t// in\n    tag_89:\n        /* \"#utility.yul\":2371:2488   */\n    tag_88:\n        /* \"#utility.yul\":2521:2525   */\n      0x20\n        /* \"#utility.yul\":2513:2519   */\n      dup4\n        /* \"#utility.yul\":2509:2526   */\n      add\n        /* \"#utility.yul\":2497:2526   */\n      swap2\n      pop\n        /* \"#utility.yul\":2575:2578   */\n      dup4\n        /* \"#utility.yul\":2567:2571   */\n      0x20\n        /* \"#utility.yul\":2559:2565   */\n      dup3\n        /* \"#utility.yul\":2555:2572   */\n      mul\n        /* \"#utility.yul\":2545:2553   */\n      dup4\n        /* \"#utility.yul\":2541:2573   */\n      add\n        /* \"#utility.yul\":2538:2579   */\n      gt\n        /* \"#utility.yul\":2535:2663   */\n      iszero\n      tag_90\n      jumpi\n        /* \"#utility.yul\":2582:2661   */\n      tag_91\n      tag_55\n      jump\t// in\n    tag_91:\n        /* \"#utility.yul\":2535:2663   */\n    tag_90:\n        /* \"#utility.yul\":2101:2669   */\n      swap3\n      pop\n      swap3\n      swap1\n      pop\n      jump\t// out\n        /* \"#utility.yul\":2675:3234   */\n    tag_19:\n        /* \"#utility.yul\":2761:2767   */\n      0x00\n        /* \"#utility.yul\":2769:2775   */\n      dup1\n        /* \"#utility.yul\":2818:2820   */\n      0x20\n        /* \"#utility.yul\":2806:2815   */\n      dup4\n        /* \"#utility.yul\":2797:2804   */\n      dup6\n        /* \"#utility.yul\":2793:2816   */\n      sub\n        /* \"#utility.yul\":2789:2821   */\n      slt\n        /* \"#utility.yul\":2786:2905   */\n      iszero\n      tag_93\n      jumpi\n        /* \"#utility.yul\":2824:2903   */\n      tag_94\n      tag_49\n      jump\t// in\n    tag_94:\n        /* \"#utility.yul\":2786:2905   */\n    tag_93:\n        /* \"#utility.yul\":2972:2973   */\n      0x00\n        /* \"#utility.yul\":2961:2970   */\n      dup4\n        /* \"#utility.yul\":2957:2974   */\n      add\n        /* \"#utility.yul\":2944:2975   */\n      calldataload\n        /* \"#utility.yul\":3002:3020   */\n      0xffffffffffffffff\n        /* \"#utility.yul\":2994:3000   */\n      dup2\n        /* \"#utility.yul\":2991:3021   */\n      gt\n        /* \"#utility.yul\":2988:3105   */\n      iszero\n      tag_95\n      jumpi\n        /* \"#utility.yul\":3024:3103   */\n      tag_96\n      tag_50\n      jump\t// in\n    tag_96:\n        /* \"#utility.yul\":2988:3105   */\n    tag_95:\n        /* \"#utility.yul\":3137:3217   */\n      tag_97\n        /* \"#utility.yul\":3209:3216   */\n      dup6\n        /* \"#utility.yul\":3200:3206   */\n      dup3\n        /* \"#utility.yul\":3189:3198   */\n      dup7\n        /* \"#utility.yul\":3185:3207   */\n      add\n        /* \"#utility.yul\":3137:3217   */\n      tag_56\n      jump\t// in\n    tag_97:\n        /* \"#utility.yul\":3119:3217   */\n      swap3\n      pop\n      swap3\n      pop\n        /* \"#utility.yul\":2915:3227   */\n      pop\n        /* \"#utility.yul\":2675:3234   */\n      swap3\n      pop\n      swap3\n      swap1\n      pop\n      jump\t// out\n        /* \"#utility.yul\":3240:3424   */\n    tag_57:\n        /* \"#utility.yul\":3339:3350   */\n      0x00\n        /* \"#utility.yul\":3373:3379   */\n      dup3\n        /* \"#utility.yul\":3368:3371   */\n      dup3\n        /* \"#utility.yul\":3361:3380   */\n      mstore\n        /* \"#utility.yul\":3413:3417   */\n      0x20\n        /* \"#utility.yul\":3408:3411   */\n      dup3\n        /* \"#utility.yul\":3404:3418   */\n      add\n        /* \"#utility.yul\":3389:3418   */\n      swap1\n      pop\n        /* \"#utility.yul\":3240:3424   */\n      swap3\n      swap2\n      pop\n      pop\n      jump\t// out\n        /* \"#utility.yul\":3430:3547   */\n    tag_58:\n        /* \"#utility.yul\":3539:3540   */\n      0x00\n        /* \"#utility.yul\":3536:3537   */\n      dup1\n        /* \"#utility.yul\":3529:3541   */\n      revert\n        /* \"#utility.yul\":3553:3707   */\n    tag_59:\n        /* \"#utility.yul\":3637:3643   */\n      dup3\n        /* \"#utility.yul\":3632:3635   */\n      dup2\n        /* \"#utility.yul\":3627:3630   */\n      dup4\n        /* \"#utility.yul\":3614:3644   */\n      calldatacopy\n        /* \"#utility.yul\":3699:3700   */\n      0x00\n        /* \"#utility.yul\":3690:3696   */\n      dup4\n        /* \"#utility.yul\":3685:3688   */\n      dup4\n        /* \"#utility.yul\":3681:3697   */\n      add\n        /* \"#utility.yul\":3674:3701   */\n      mstore\n        /* \"#utility.yul\":3553:3707   */\n      pop\n      pop\n      pop\n      jump\t// out\n        /* \"#utility.yul\":3743:4280   */\n    tag_60:\n        /* \"#utility.yul\":3871:3874   */\n      0x00\n        /* \"#utility.yul\":3892:3978   */\n      tag_102\n        /* \"#utility.yul\":3971:3977   */\n      dup4\n        /* \"#utility.yul\":3966:3969   */\n      dup6\n        /* \"#utility.yul\":3892:3978   */\n      tag_57\n      jump\t// in\n    tag_102:\n        /* \"#utility.yul\":3885:3978   */\n      swap4\n      pop\n        /* \"#utility.yul\":4002:4068   */\n      0x07ffffffffffffffffffffffffffffffffffffffffffffffffffffffffffffff\n        /* \"#utility.yul\":3994:4000   */\n      dup4\n        /* \"#utility.yul\":3991:4069   */\n      gt\n        /* \"#utility.yul\":3988:4153   */\n      iszero\n      tag_103\n      jumpi\n        /* \"#utility.yul\":4072:4151   */\n      tag_104\n      tag_58\n      jump\t// in\n    tag_104:\n        /* \"#utility.yul\":3988:4153   */\n    tag_103:\n        /* \"#utility.yul\":4184:4188   */\n      0x20\n        /* \"#utility.yul\":4176:4182   */\n      dup4\n        /* \"#utility.yul\":4172:4189   */\n      mul\n        /* \"#utility.yul\":4162:4189   */\n      swap3\n      pop\n        /* \"#utility.yul\":4199:4242   */\n      tag_105\n        /* \"#utility.yul\":4235:4241   */\n      dup4\n        /* \"#utility.yul\":4230:4233   */\n      dup6\n        /* \"#utility.yul\":4223:4228   */\n      dup5\n        /* \"#utility.yul\":4199:4242   */\n      tag_59\n      jump\t// in\n    tag_105:\n        /* \"#utility.yul\":4267:4273   */\n      dup3\n        /* \"#utility.yul\":4262:4265   */\n      dup5\n        /* \"#utility.yul\":4258:4274   */\n      add\n        /* \"#utility.yul\":4251:4274   */\n      swap1\n      pop\n        /* \"#utility.yul\":3743:4280   */\n      swap4\n      swap3\n      pop\n      pop\n      pop\n      jump\t// out\n        /* \"#utility.yul\":4286:4679   */\n    tag_22:\n        /* \"#utility.yul\":4439:4443   */\n      0x00\n        /* \"#utility.yul\":4477:4479   */\n      0x20\n        /* \"#utility.yul\":4466:4475   */\n      dup3\n        /* \"#utility.yul\":4462:4480   */\n      add\n        /* \"#utility.yul\":4454:4480   */\n      swap1\n      pop\n        /* \"#utility.yul\":4526:4535   */\n      dup2\n        /* \"#utility.yul\":4520:4524   */\n      dup2\n        /* \"#utility.yul\":4516:4536   */\n      sub\n        /* \"#utility.yul\":4512:4513   */\n      0x00\n        /* \"#utility.yul\":4501:4510   */\n      dup4\n        /* \"#utility.yul\":4497:4514   */\n      add\n        /* \"#utility.yul\":4490:4537   */\n      mstore\n        /* \"#utility.yul\":4554:4672   */\n      tag_107\n        /* \"#utility.yul\":4667:4671   */\n      dup2\n        /* \"#utility.yul\":4658:4664   */\n      dup5\n        /* \"#utility.yul\":4650:4656   */\n      dup7\n        /* \"#utility.yul\":4554:4672   */\n      tag_60\n      jump\t// in\n    tag_107:\n        /* \"#utility.yul\":4546:4672   */\n      swap1\n      pop\n        /* \"#utility.yul\":4286:4679   */\n      swap4\n      swap3\n      pop\n      pop\n      pop\n      jump\t// out\n        /* \"#utility.yul\":4685:4865   */\n    tag_32:\n        /* \"#utility.yul\":4733:4810   */\n      0x4e487b7100000000000000000000000000000000000000000000000000000000\n        /* \"#utility.yul\":4730:4731   */\n      0x00\n        /* \"#utility.yul\":4723:4811   */\n      mstore\n        /* \"#utility.yul\":4830:4834   */\n      0x32\n        /* \"#utility.yul\":4827:4828   */\n      0x04\n        /* \"#utility.yul\":4820:4835   */\n      mstore\n        /* \"#utility.yul\":4854:4858   */\n      0x24\n        /* \"#utility.yul\":4851:4852   */\n      0x00\n        /* \"#utility.yul\":4844:4859   */\n      revert\n\n    auxdata: 0xa2646970667358221220e9d9b2bbc0fae319954fbd274da662a9ba3b34b0484d2e082fad8c5396f5bf7b64736f6c63430008090033\n}\n",
				"bytecode": {
					"linkReferences": {},
					"object": "608060405234801561001057600080fd5b506104bd806100206000396000f3fe608060405234801561001057600080fd5b506004361061004c5760003560e01c806364cf33b8146100515780636987b1fb146100705780639b1a379c146100a0578063edf0099b146100d1575b600080fd5b610059610101565b60405161006792919061025a565b60405180910390f35b61008a600480360381019061008591906102b9565b6101e9565b60405161009791906102e6565b60405180910390f35b6100ba60048036038101906100b59190610366565b61020d565b6040516100c8929190610434565b60405180910390f35b6100eb60048036038101906100e691906102b9565b61021d565b6040516100f891906102e6565b60405180910390f35b60008060008080548060200260200160405190810160405280929190818152602001828054801561015157602002820191906000526020600020905b81548152602001906001019080831161013d575b5050505050905060006001905060018260008151811061017457610173610458565b5b60200260200101818152505060028160008154811061019657610195610458565b5b9060005260206000200181905550816000815181106101b8576101b7610458565b5b6020026020010151816000815481106101d4576101d3610458565b5b90600052602060002001549350935050509091565b600081815481106101f957600080fd5b906000526020600020016000915090505481565b3660008383915091509250929050565b6001818154811061022d57600080fd5b906000526020600020016000915090505481565b6000819050919050565b61025481610241565b82525050565b600060408201905061026f600083018561024b565b61027c602083018461024b565b9392505050565b600080fd5b600080fd5b61029681610241565b81146102a157600080fd5b50565b6000813590506102b38161028d565b92915050565b6000602082840312156102cf576102ce610283565b5b60006102dd848285016102a4565b91505092915050565b60006020820190506102fb600083018461024b565b92915050565b600080fd5b600080fd5b600080fd5b60008083601f84011261032657610325610301565b5b8235905067ffffffffffffffff81111561034357610342610306565b5b60208301915083602082028301111561035f5761035e61030b565b5b9250929050565b6000806020838503121561037d5761037c610283565b5b600083013567ffffffffffffffff81111561039b5761039a610288565b5b6103a785828601610310565b92509250509250929050565b600082825260208201905092915050565b600080fd5b82818337600083830152505050565b60006103e483856103b3565b93507f07ffffffffffffffffffffffffffffffffffffffffffffffffffffffffffffff831115610417576104166103c4565b5b6020830292506104288385846103c9565b82840190509392505050565b6000602082019050818103600083015261044f8184866103d8565b90509392505050565b7f4e487b7100000000000000000000000000000000000000000000000000000000600052603260045260246000fdfea2646970667358221220e9d9b2bbc0fae319954fbd274da662a9ba3b34b0484d2e082fad8c5396f5bf7b64736f6c63430008090033",
					"opcodes": "PUSH1 0x80 PUSH1 0x40 MSTORE CALLVALUE DUP1 ISZERO PUSH2 0x10 JUMPI PUSH1 0x0 DUP1 REVERT JUMPDEST POP PUSH2 0x4BD DUP1 PUSH2 0x20 PUSH1 0x0 CODECOPY PUSH1 0x0 RETURN INVALID PUSH1 0x80 PUSH1 0x40 MSTORE CALLVALUE DUP1 ISZERO PUSH2 0x10 JUMPI PUSH1 0x0 DUP1 REVERT JUMPDEST POP PUSH1 0x4 CALLDATASIZE LT PUSH2 0x4C JUMPI PUSH1 0x0 CALLDATALOAD PUSH1 0xE0 SHR DUP1 PUSH4 0x64CF33B8 EQ PUSH2 0x51 JUMPI DUP1 PUSH4 0x6987B1FB EQ PUSH2 0x70 JUMPI DUP1 PUSH4 0x9B1A379C EQ PUSH2 0xA0 JUMPI DUP1 PUSH4 0xEDF0099B EQ PUSH2 0xD1 JUMPI JUMPDEST PUSH1 0x0 DUP1 REVERT JUMPDEST PUSH2 0x59 PUSH2 0x101 JUMP JUMPDEST PUSH1 0x40 MLOAD PUSH2 0x67 SWAP3 SWAP2 SWAP1 PUSH2 0x25A JUMP JUMPDEST PUSH1 0x40 MLOAD DUP1 SWAP2 SUB SWAP1 RETURN JUMPDEST PUSH2 0x8A PUSH1 0x4 DUP1 CALLDATASIZE SUB DUP2 ADD SWAP1 PUSH2 0x85 SWAP2 SWAP1 PUSH2 0x2B9 JUMP JUMPDEST PUSH2 0x1E9 JUMP JUMPDEST PUSH1 0x40 MLOAD PUSH2 0x97 SWAP2 SWAP1 PUSH2 0x2E6 JUMP JUMPDEST PUSH1 0x40 MLOAD DUP1 SWAP2 SUB SWAP1 RETURN JUMPDEST PUSH2 0xBA PUSH1 0x4 DUP1 CALLDATASIZE SUB DUP2 ADD SWAP1 PUSH2 0xB5 SWAP2 SWAP1 PUSH2 0x366 JUMP JUMPDEST PUSH2 0x20D JUMP JUMPDEST PUSH1 0x40 MLOAD PUSH2 0xC8 SWAP3 SWAP2 SWAP1 PUSH2 0x434 JUMP JUMPDEST PUSH1 0x40 MLOAD DUP1 SWAP2 SUB SWAP1 RETURN JUMPDEST PUSH2 0xEB PUSH1 0x4 DUP1 CALLDATASIZE SUB DUP2 ADD SWAP1 PUSH2 0xE6 SWAP2 SWAP1 PUSH2 0x2B9 JUMP JUMPDEST PUSH2 0x21D JUMP JUMPDEST PUSH1 0x40 MLOAD PUSH2 0xF8 SWAP2 SWAP1 PUSH2 0x2E6 JUMP JUMPDEST PUSH1 0x40 MLOAD DUP1 SWAP2 SUB SWAP1 RETURN JUMPDEST PUSH1 0x0 DUP1 PUSH1 0x0 DUP1 DUP1 SLOAD DUP1 PUSH1 0x20 MUL PUSH1 0x20 ADD PUSH1 0x40 MLOAD SWAP1 DUP2 ADD PUSH1 0x40 MSTORE DUP1 SWAP3 SWAP2 SWAP1 DUP2 DUP2 MSTORE PUSH1 0x20 ADD DUP3 DUP1 SLOAD DUP1 ISZERO PUSH2 0x151 JUMPI PUSH1 0x20 MUL DUP3 ADD SWAP2 SWAP1 PUSH1 0x0 MSTORE PUSH1 0x20 PUSH1 0x0 KECCAK256 SWAP1 JUMPDEST DUP2 SLOAD DUP2 MSTORE PUSH1 0x20 ADD SWAP1 PUSH1 0x1 ADD SWAP1 DUP1 DUP4 GT PUSH2 0x13D JUMPI JUMPDEST POP POP POP POP POP SWAP1 POP PUSH1 0x0 PUSH1 0x1 SWAP1 POP PUSH1 0x1 DUP3 PUSH1 0x0 DUP2 MLOAD DUP2 LT PUSH2 0x174 JUMPI PUSH2 0x173 PUSH2 0x458 JUMP JUMPDEST JUMPDEST PUSH1 0x20 MUL PUSH1 0x20 ADD ADD DUP2 DUP2 MSTORE POP POP PUSH1 0x2 DUP2 PUSH1 0x0 DUP2 SLOAD DUP2 LT PUSH2 0x196 JUMPI PUSH2 0x195 PUSH2 0x458 JUMP JUMPDEST JUMPDEST SWAP1 PUSH1 0x0 MSTORE PUSH1 0x20 PUSH1 0x0 KECCAK256 ADD DUP2 SWAP1 SSTORE POP DUP2 PUSH1 0x0 DUP2 MLOAD DUP2 LT PUSH2 0x1B8 JUMPI PUSH2 0x1B7 PUSH2 0x458 JUMP JUMPDEST JUMPDEST PUSH1 0x20 MUL PUSH1 0x20 ADD ADD MLOAD DUP2 PUSH1 0x0 DUP2 SLOAD DUP2 LT PUSH2 0x1D4 JUMPI PUSH2 0x1D3 PUSH2 0x458 JUMP JUMPDEST JUMPDEST SWAP1 PUSH1 0x0 MSTORE PUSH1 0x20 PUSH1 0x0 KECCAK256 ADD SLOAD SWAP4 POP SWAP4 POP POP POP SWAP1 SWAP2 JUMP JUMPDEST PUSH1 0x0 DUP2 DUP2 SLOAD DUP2 LT PUSH2 0x1F9 JUMPI PUSH1 0x0 DUP1 REVERT JUMPDEST SWAP1 PUSH1 0x0 MSTORE PUSH1 0x20 PUSH1 0x0 KECCAK256 ADD PUSH1 0x0 SWAP2 POP SWAP1 POP SLOAD DUP2 JUMP JUMPDEST CALLDATASIZE PUSH1 0x0 DUP4 DUP4 SWAP2 POP SWAP2 POP SWAP3 POP SWAP3 SWAP1 POP JUMP JUMPDEST PUSH1 0x1 DUP2 DUP2 SLOAD DUP2 LT PUSH2 0x22D JUMPI PUSH1 0x0 DUP1 REVERT JUMPDEST SWAP1 PUSH1 0x0 MSTORE PUSH1 0x20 PUSH1 0x0 KECCAK256 ADD PUSH1 0x0 SWAP2 POP SWAP1 POP SLOAD DUP2 JUMP JUMPDEST PUSH1 0x0 DUP2 SWAP1 POP SWAP2 SWAP1 POP JUMP JUMPDEST PUSH2 0x254 DUP2 PUSH2 0x241 JUMP JUMPDEST DUP3 MSTORE POP POP JUMP JUMPDEST PUSH1 0x0 PUSH1 0x40 DUP3 ADD SWAP1 POP PUSH2 0x26F PUSH1 0x0 DUP4 ADD DUP6 PUSH2 0x24B JUMP JUMPDEST PUSH2 0x27C PUSH1 0x20 DUP4 ADD DUP5 PUSH2 0x24B JUMP JUMPDEST SWAP4 SWAP3 POP POP POP JUMP JUMPDEST PUSH1 0x0 DUP1 REVERT JUMPDEST PUSH1 0x0 DUP1 REVERT JUMPDEST PUSH2 0x296 DUP2 PUSH2 0x241 JUMP JUMPDEST DUP2 EQ PUSH2 0x2A1 JUMPI PUSH1 0x0 DUP1 REVERT JUMPDEST POP JUMP JUMPDEST PUSH1 0x0 DUP2 CALLDATALOAD SWAP1 POP PUSH2 0x2B3 DUP2 PUSH2 0x28D JUMP JUMPDEST SWAP3 SWAP2 POP POP JUMP JUMPDEST PUSH1 0x0 PUSH1 0x20 DUP3 DUP5 SUB SLT ISZERO PUSH2 0x2CF JUMPI PUSH2 0x2CE PUSH2 0x283 JUMP JUMPDEST JUMPDEST PUSH1 0x0 PUSH2 0x2DD DUP5 DUP3 DUP6 ADD PUSH2 0x2A4 JUMP JUMPDEST SWAP2 POP POP SWAP3 SWAP2 POP POP JUMP JUMPDEST PUSH1 0x0 PUSH1 0x20 DUP3 ADD SWAP1 POP PUSH2 0x2FB PUSH1 0x0 DUP4 ADD DUP5 PUSH2 0x24B JUMP JUMPDEST SWAP3 SWAP2 POP POP JUMP JUMPDEST PUSH1 0x0 DUP1 REVERT JUMPDEST PUSH1 0x0 DUP1 REVERT JUMPDEST PUSH1 0x0 DUP1 REVERT JUMPDEST PUSH1 0x0 DUP1 DUP4 PUSH1 0x1F DUP5 ADD SLT PUSH2 0x326 JUMPI PUSH2 0x325 PUSH2 0x301 JUMP JUMPDEST JUMPDEST DUP3 CALLDATALOAD SWAP1 POP PUSH8 0xFFFFFFFFFFFFFFFF DUP2 GT ISZERO PUSH2 0x343 JUMPI PUSH2 0x342 PUSH2 0x306 JUMP JUMPDEST JUMPDEST PUSH1 0x20 DUP4 ADD SWAP2 POP DUP4 PUSH1 0x20 DUP3 MUL DUP4 ADD GT ISZERO PUSH2 0x35F JUMPI PUSH2 0x35E PUSH2 0x30B JUMP JUMPDEST JUMPDEST SWAP3 POP SWAP3 SWAP1 POP JUMP JUMPDEST PUSH1 0x0 DUP1 PUSH1 0x20 DUP4 DUP6 SUB SLT ISZERO PUSH2 0x37D JUMPI PUSH2 0x37C PUSH2 0x283 JUMP JUMPDEST JUMPDEST PUSH1 0x0 DUP4 ADD CALLDATALOAD PUSH8 0xFFFFFFFFFFFFFFFF DUP2 GT ISZERO PUSH2 0x39B JUMPI PUSH2 0x39A PUSH2 0x288 JUMP JUMPDEST JUMPDEST PUSH2 0x3A7 DUP6 DUP3 DUP7 ADD PUSH2 0x310 JUMP JUMPDEST SWAP3 POP SWAP3 POP POP SWAP3 POP SWAP3 SWAP1 POP JUMP JUMPDEST PUSH1 0x0 DUP3 DUP3 MSTORE PUSH1 0x20 DUP3 ADD SWAP1 POP SWAP3 SWAP2 POP POP JUMP JUMPDEST PUSH1 0x0 DUP1 REVERT JUMPDEST DUP3 DUP2 DUP4 CALLDATACOPY PUSH1 0x0 DUP4 DUP4 ADD MSTORE POP POP POP JUMP JUMPDEST PUSH1 0x0 PUSH2 0x3E4 DUP4 DUP6 PUSH2 0x3B3 JUMP JUMPDEST SWAP4 POP PUSH32 0x7FFFFFFFFFFFFFFFFFFFFFFFFFFFFFFFFFFFFFFFFFFFFFFFFFFFFFFFFFFFFFF DUP4 GT ISZERO PUSH2 0x417 JUMPI PUSH2 0x416 PUSH2 0x3C4 JUMP JUMPDEST JUMPDEST PUSH1 0x20 DUP4 MUL SWAP3 POP PUSH2 0x428 DUP4 DUP6 DUP5 PUSH2 0x3C9 JUMP JUMPDEST DUP3 DUP5 ADD SWAP1 POP SWAP4 SWAP3 POP POP POP JUMP JUMPDEST PUSH1 0x0 PUSH1 0x20 DUP3 ADD SWAP1 POP DUP2 DUP2 SUB PUSH1 0x0 DUP4 ADD MSTORE PUSH2 0x44F DUP2 DUP5 DUP7 PUSH2 0x3D8 JUMP JUMPDEST SWAP1 POP SWAP4 SWAP3 POP POP POP JUMP JUMPDEST PUSH32 0x4E487B7100000000000000000000000000000000000000000000000000000000 PUSH1 0x0 MSTORE PUSH1 0x32 PUSH1 0x4 MSTORE PUSH1 0x24 PUSH1 0x0 REVERT INVALID LOG2 PUSH5 0x6970667358 0x22 SLT KECCAK256 0xE9 0xD9 0xB2 0xBB 0xC0 STATICCALL 0xE3 NOT SWAP6 0x4F 0xBD 0x27 0x4D 0xA6 PUSH3 0xA9BA3B CALLVALUE 0xB0 BASEFEE 0x4D 0x2E ADDMOD 0x2F 0xAD DUP13 MSTORE8 SWAP7 CREATE2 0xBF PUSH28 0x64736F6C634300080900330000000000000000000000000000000000 "
				},
				"gasEstimates": {
					"creation": {
						"codeDepositCost": "242600",
						"executionCost": "281",
						"totalCost": "242881"
					},
					"external": {
						"arr1(uint256)": "infinite",
						"arr2(uint256)": "infinite",
						"fCalldata(uint256[])": "infinite",
						"modify()": "infinite"
					}
				},
				"methodIdentifiers": {
					"arr1(uint256)": "6987b1fb",
					"arr2(uint256)": "edf0099b",
					"fCalldata(uint256[])": "9b1a379c",
					"modify()": "64cf33b8"
				}
			},
			"storageLayout": {
				"storage": [
					{
						"astId": 4,
						"contract": "contracts/04VarStorage.sol:VarStorage",
						"label": "arr1",
						"offset": 0,
						"slot": "0",
						"type": "t_array(t_uint256)dyn_storage"
					},
					{
						"astId": 7,
						"contract": "contracts/04VarStorage.sol:VarStorage",
						"label": "arr2",
						"offset": 0,
						"slot": "1",
						"type": "t_array(t_uint256)dyn_storage"
					}
				],
				"types": {
					"t_array(t_uint256)dyn_storage": {
						"base": "t_uint256",
						"encoding": "dynamic_array",
						"label": "uint256[]",
						"numberOfBytes": "32"
					},
					"t_uint256": {
						"encoding": "inplace",
						"label": "uint256",
						"numberOfBytes": "32"
					}
				}
			},
			"userdoc": {
				"kind": "user",
				"methods": {},
				"version": 1
			}
		}
	}
}