{
	"contracts/03FunctionTypes.sol": {
		"FunctionTypes": {
			"abi": [
				{
					"inputs": [],
					"name": "addExternal",
					"outputs": [
						{
							"internalType": "uint256",
							"name": "new_number",
							"type": "uint256"
						}
					],
					"stateMutability": "nonpayable",
					"type": "function"
				},
				{
					"inputs": [],
					"name": "addPayable",
					"outputs": [
						{
							"internalType": "uint256",
							"name": "balance",
							"type": "uint256"
						}
					],
					"stateMutability": "payable",
					"type": "function"
				},
				{
					"inputs": [
						{
							"internalType": "uint256",
							"name": "_number",
							"type": "uint256"
						}
					],
					"name": "addPure",
					"outputs": [
						{
							"internalType": "uint256",
							"name": "new_number",
							"type": "uint256"
						}
					],
					"stateMutability": "pure",
					"type": "function"
				},
				{
					"inputs": [],
					"name": "addView",
					"outputs": [
						{
							"internalType": "uint256",
							"name": "new_number",
							"type": "uint256"
						}
					],
					"stateMutability": "view",
					"type": "function"
				},
				{
					"inputs": [
						{
							"internalType": "uint256[]",
							"name": "a",
							"type": "uint256[]"
						}
					],
					"name": "f",
					"outputs": [
						{
							"internalType": "uint256[]",
							"name": "",
							"type": "uint256[]"
						}
					],
					"stateMutability": "pure",
					"type": "function"
				},
				{
					"inputs": [],
					"name": "fnReturn",
					"outputs": [
						{
							"internalType": "uint256",
							"name": "",
							"type": "uint256"
						},
						{
							"internalType": "uint256",
							"name": "",
							"type": "uint256"
						},
						{
							"internalType": "bool",
							"name": "boo",
							"type": "bool"
						}
					],
					"stateMutability": "pure",
					"type": "function"
				},
				{
					"inputs": [],
					"name": "fnReturn2",
					"outputs": [
						{
							"internalType": "uint256",
							"name": "",
							"type": "uint256"
						},
						{
							"internalType": "bool",
							"name": "",
							"type": "bool"
						}
					],
					"stateMutability": "view",
					"type": "function"
				},
				{
					"inputs": [],
					"name": "number",
					"outputs": [
						{
							"internalType": "uint256",
							"name": "",
							"type": "uint256"
						}
					],
					"stateMutability": "view",
					"type": "function"
				}
			],
			"devdoc": {
				"kind": "dev",
				"methods": {},
				"version": 1
			},
			"evm": {
				"assembly": "    /* \"contracts/03FunctionTypes.sol\":1426:4138  contract FunctionTypes {... */\n  mstore(0x40, 0x80)\n    /* \"contracts/03FunctionTypes.sol\":1479:1480  0 */\n  0x00\n    /* \"contracts/03FunctionTypes.sol\":1455:1480  uint256 public number = 0 */\n  dup1\n  sstore\n    /* \"contracts/03FunctionTypes.sol\":1426:4138  contract FunctionTypes {... */\n  callvalue\n  dup1\n  iszero\n  tag_1\n  jumpi\n  0x00\n  dup1\n  revert\ntag_1:\n  pop\n  dataSize(sub_0)\n  dup1\n  dataOffset(sub_0)\n  0x00\n  codecopy\n  0x00\n  return\nstop\n\nsub_0: assembly {\n        /* \"contracts/03FunctionTypes.sol\":1426:4138  contract FunctionTypes {... */\n      mstore(0x40, 0x80)\n      jumpi(tag_1, lt(calldatasize, 0x04))\n      shr(0xe0, calldataload(0x00))\n      dup1\n      0x7dcdc261\n      gt\n      tag_10\n      jumpi\n      dup1\n      0x7dcdc261\n      eq\n      tag_6\n      jumpi\n      dup1\n      0x8381f58a\n      eq\n      tag_7\n      jumpi\n      dup1\n      0xb262eb7f\n      eq\n      tag_8\n      jumpi\n      dup1\n      0xf611bfed\n      eq\n      tag_9\n      jumpi\n      jump(tag_1)\n    tag_10:\n      dup1\n      0x4f5c05c7\n      eq\n      tag_2\n      jumpi\n      dup1\n      0x64e94cc6\n      eq\n      tag_3\n      jumpi\n      dup1\n      0x7032c4f2\n      eq\n      tag_4\n      jumpi\n      dup1\n      0x7bc5bbbf\n      eq\n      tag_5\n      jumpi\n    tag_1:\n      0x00\n      dup1\n      revert\n        /* \"contracts/03FunctionTypes.sol\":2306:2424  function addExternal() external returns(uint256 new_number){... */\n    tag_2:\n      callvalue\n      dup1\n      iszero\n      tag_11\n      jumpi\n      0x00\n      dup1\n      revert\n    tag_11:\n      pop\n      tag_12\n      tag_13\n      jump\t// in\n    tag_12:\n      mload(0x40)\n      tag_14\n      swap2\n      swap1\n      tag_15\n      jump\t// in\n    tag_14:\n      mload(0x40)\n      dup1\n      swap2\n      sub\n      swap1\n      return\n        /* \"contracts/03FunctionTypes.sol\":3691:3800  function fnReturn() external pure returns(uint256, uint256, bool boo){... */\n    tag_3:\n      callvalue\n      dup1\n      iszero\n      tag_16\n      jumpi\n      0x00\n      dup1\n      revert\n    tag_16:\n      pop\n      tag_17\n      tag_18\n      jump\t// in\n    tag_17:\n      mload(0x40)\n      tag_19\n      swap4\n      swap3\n      swap2\n      swap1\n      tag_20\n      jump\t// in\n    tag_19:\n      mload(0x40)\n      dup1\n      swap2\n      sub\n      swap1\n      return\n        /* \"contracts/03FunctionTypes.sol\":1532:1646  function addPure(uint256 _number) external pure returns(uint256 new_number){... */\n    tag_4:\n      callvalue\n      dup1\n      iszero\n      tag_21\n      jumpi\n      0x00\n      dup1\n      revert\n    tag_21:\n      pop\n      tag_22\n      0x04\n      dup1\n      calldatasize\n      sub\n      dup2\n      add\n      swap1\n      tag_23\n      swap2\n      swap1\n      tag_24\n      jump\t// in\n    tag_23:\n      tag_25\n      jump\t// in\n    tag_22:\n      mload(0x40)\n      tag_26\n      swap2\n      swap1\n      tag_15\n      jump\t// in\n    tag_26:\n      mload(0x40)\n      dup1\n      swap2\n      sub\n      swap1\n      return\n        /* \"contracts/03FunctionTypes.sol\":3962:4135  function f(uint256[] calldata a) external pure returns(uint256[] calldata){... */\n    tag_5:\n      callvalue\n      dup1\n      iszero\n      tag_27\n      jumpi\n      0x00\n      dup1\n      revert\n    tag_27:\n      pop\n      tag_28\n      0x04\n      dup1\n      calldatasize\n      sub\n      dup2\n      add\n      swap1\n      tag_29\n      swap2\n      swap1\n      tag_30\n      jump\t// in\n    tag_29:\n      tag_31\n      jump\t// in\n    tag_28:\n      mload(0x40)\n      tag_32\n      swap3\n      swap2\n      swap1\n      tag_33\n      jump\t// in\n    tag_32:\n      mload(0x40)\n      dup1\n      swap2\n      sub\n      swap1\n      return\n        /* \"contracts/03FunctionTypes.sol\":3806:3955  function fnReturn2() external view returns(uint256, bool){... */\n    tag_6:\n      callvalue\n      dup1\n      iszero\n      tag_34\n      jumpi\n      0x00\n      dup1\n      revert\n    tag_34:\n      pop\n      tag_35\n      tag_36\n      jump\t// in\n    tag_35:\n      mload(0x40)\n      tag_37\n      swap3\n      swap2\n      swap1\n      tag_38\n      jump\t// in\n    tag_37:\n      mload(0x40)\n      dup1\n      swap2\n      sub\n      swap1\n      return\n        /* \"contracts/03FunctionTypes.sol\":1455:1480  uint256 public number = 0 */\n    tag_7:\n      callvalue\n      dup1\n      iszero\n      tag_39\n      jumpi\n      0x00\n      dup1\n      revert\n    tag_39:\n      pop\n      tag_40\n      tag_41\n      jump\t// in\n    tag_40:\n      mload(0x40)\n      tag_42\n      swap2\n      swap1\n      tag_15\n      jump\t// in\n    tag_42:\n      mload(0x40)\n      dup1\n      swap2\n      sub\n      swap1\n      return\n        /* \"contracts/03FunctionTypes.sol\":1709:1809  function addView() external view returns(uint256 new_number){... */\n    tag_8:\n      callvalue\n      dup1\n      iszero\n      tag_43\n      jumpi\n      0x00\n      dup1\n      revert\n    tag_43:\n      pop\n      tag_44\n      tag_45\n      jump\t// in\n    tag_44:\n      mload(0x40)\n      tag_46\n      swap2\n      swap1\n      tag_15\n      jump\t// in\n    tag_46:\n      mload(0x40)\n      dup1\n      swap2\n      sub\n      swap1\n      return\n        /* \"contracts/03FunctionTypes.sol\":2734:2845  function addPayable() external payable returns(uint256 balance){... */\n    tag_9:\n      tag_47\n      tag_48\n      jump\t// in\n    tag_47:\n      mload(0x40)\n      tag_49\n      swap2\n      swap1\n      tag_15\n      jump\t// in\n    tag_49:\n      mload(0x40)\n      dup1\n      swap2\n      sub\n      swap1\n      return\n        /* \"contracts/03FunctionTypes.sol\":2306:2424  function addExternal() external returns(uint256 new_number){... */\n    tag_13:\n        /* \"contracts/03FunctionTypes.sol\":2346:2364  uint256 new_number */\n      0x00\n        /* \"contracts/03FunctionTypes.sol\":2375:2388  addInternal() */\n      tag_51\n        /* \"contracts/03FunctionTypes.sol\":2375:2386  addInternal */\n      tag_52\n        /* \"contracts/03FunctionTypes.sol\":2375:2388  addInternal() */\n      jump\t// in\n    tag_51:\n        /* \"contracts/03FunctionTypes.sol\":2411:2417  number */\n      sload(0x00)\n        /* \"contracts/03FunctionTypes.sol\":2398:2417  new_number = number */\n      swap1\n      pop\n        /* \"contracts/03FunctionTypes.sol\":2306:2424  function addExternal() external returns(uint256 new_number){... */\n      swap1\n      jump\t// out\n        /* \"contracts/03FunctionTypes.sol\":3691:3800  function fnReturn() external pure returns(uint256, uint256, bool boo){... */\n    tag_18:\n        /* \"contracts/03FunctionTypes.sol\":3733:3740  uint256 */\n      0x00\n        /* \"contracts/03FunctionTypes.sol\":3742:3749  uint256 */\n      dup1\n        /* \"contracts/03FunctionTypes.sol\":3751:3759  bool boo */\n      0x00\n        /* \"contracts/03FunctionTypes.sol\":3778:3781  111 */\n      0x6f\n        /* \"contracts/03FunctionTypes.sol\":3783:3786  222 */\n      0xde\n        /* \"contracts/03FunctionTypes.sol\":3788:3792  true */\n      0x01\n        /* \"contracts/03FunctionTypes.sol\":3770:3793  return (111, 222, true) */\n      swap3\n      pop\n      swap3\n      pop\n      swap3\n      pop\n        /* \"contracts/03FunctionTypes.sol\":3691:3800  function fnReturn() external pure returns(uint256, uint256, bool boo){... */\n      swap1\n      swap2\n      swap3\n      jump\t// out\n        /* \"contracts/03FunctionTypes.sol\":1532:1646  function addPure(uint256 _number) external pure returns(uint256 new_number){... */\n    tag_25:\n        /* \"contracts/03FunctionTypes.sol\":1588:1606  uint256 new_number */\n      0x00\n        /* \"contracts/03FunctionTypes.sol\":1638:1639  1 */\n      0x01\n        /* \"contracts/03FunctionTypes.sol\":1630:1637  _number */\n      dup3\n        /* \"contracts/03FunctionTypes.sol\":1630:1639  _number+1 */\n      tag_55\n      swap2\n      swap1\n      tag_56\n      jump\t// in\n    tag_55:\n        /* \"contracts/03FunctionTypes.sol\":1617:1639  new_number = _number+1 */\n      swap1\n      pop\n        /* \"contracts/03FunctionTypes.sol\":1532:1646  function addPure(uint256 _number) external pure returns(uint256 new_number){... */\n      swap2\n      swap1\n      pop\n      jump\t// out\n        /* \"contracts/03FunctionTypes.sol\":3962:4135  function f(uint256[] calldata a) external pure returns(uint256[] calldata){... */\n    tag_31:\n        /* \"contracts/03FunctionTypes.sol\":4017:4035  uint256[] calldata */\n      calldatasize\n      0x00\n        /* \"contracts/03FunctionTypes.sol\":4127:4128  a */\n      dup4\n      dup4\n        /* \"contracts/03FunctionTypes.sol\":4120:4128  return a */\n      swap2\n      pop\n      swap2\n      pop\n        /* \"contracts/03FunctionTypes.sol\":3962:4135  function f(uint256[] calldata a) external pure returns(uint256[] calldata){... */\n      swap3\n      pop\n      swap3\n      swap1\n      pop\n      jump\t// out\n        /* \"contracts/03FunctionTypes.sol\":3806:3955  function fnReturn2() external view returns(uint256, bool){... */\n    tag_36:\n        /* \"contracts/03FunctionTypes.sol\":3849:3856  uint256 */\n      0x00\n        /* \"contracts/03FunctionTypes.sol\":3858:3862  bool */\n      dup1\n        /* \"contracts/03FunctionTypes.sol\":3874:3888  uint256 value1 */\n      0x00\n        /* \"contracts/03FunctionTypes.sol\":3891:3899  bool boo */\n      dup1\n        /* \"contracts/03FunctionTypes.sol\":3903:3907  this */\n      address\n        /* \"contracts/03FunctionTypes.sol\":3903:3916  this.fnReturn */\n      0xffffffffffffffffffffffffffffffffffffffff\n      and\n      0x64e94cc6\n        /* \"contracts/03FunctionTypes.sol\":3903:3918  this.fnReturn() */\n      mload(0x40)\n      dup2\n      0xffffffff\n      and\n      0xe0\n      shl\n      dup2\n      mstore\n      0x04\n      add\n      0x60\n      mload(0x40)\n      dup1\n      dup4\n      sub\n      dup2\n      dup7\n      dup1\n      extcodesize\n      iszero\n      dup1\n      iszero\n      tag_59\n      jumpi\n      0x00\n      dup1\n      revert\n    tag_59:\n      pop\n      gas\n      staticcall\n      iszero\n      dup1\n      iszero\n      tag_61\n      jumpi\n      returndatasize\n      0x00\n      dup1\n      returndatacopy\n      revert(0x00, returndatasize)\n    tag_61:\n      pop\n      pop\n      pop\n      pop\n      mload(0x40)\n      returndatasize\n      not(0x1f)\n      0x1f\n      dup3\n      add\n      and\n      dup3\n      add\n      dup1\n      0x40\n      mstore\n      pop\n      dup2\n      add\n      swap1\n      tag_62\n      swap2\n      swap1\n      tag_63\n      jump\t// in\n    tag_62:\n        /* \"contracts/03FunctionTypes.sol\":3873:3918  (uint256 value1, ,bool boo) = this.fnReturn() */\n      swap3\n      pop\n      pop\n      swap2\n      pop\n        /* \"contracts/03FunctionTypes.sol\":3936:3942  value1 */\n      dup2\n        /* \"contracts/03FunctionTypes.sol\":3944:3947  boo */\n      dup2\n        /* \"contracts/03FunctionTypes.sol\":3928:3948  return (value1, boo) */\n      swap4\n      pop\n      swap4\n      pop\n      pop\n      pop\n        /* \"contracts/03FunctionTypes.sol\":3806:3955  function fnReturn2() external view returns(uint256, bool){... */\n      swap1\n      swap2\n      jump\t// out\n        /* \"contracts/03FunctionTypes.sol\":1455:1480  uint256 public number = 0 */\n    tag_41:\n      sload(0x00)\n      dup2\n      jump\t// out\n        /* \"contracts/03FunctionTypes.sol\":1709:1809  function addView() external view returns(uint256 new_number){... */\n    tag_45:\n        /* \"contracts/03FunctionTypes.sol\":1750:1768  uint256 new_number */\n      0x00\n        /* \"contracts/03FunctionTypes.sol\":1801:1802  1 */\n      0x01\n        /* \"contracts/03FunctionTypes.sol\":1792:1798  number */\n      sload(0x00)\n        /* \"contracts/03FunctionTypes.sol\":1792:1802  number + 1 */\n      tag_65\n      swap2\n      swap1\n      tag_56\n      jump\t// in\n    tag_65:\n        /* \"contracts/03FunctionTypes.sol\":1779:1802  new_number = number + 1 */\n      swap1\n      pop\n        /* \"contracts/03FunctionTypes.sol\":1709:1809  function addView() external view returns(uint256 new_number){... */\n      swap1\n      jump\t// out\n        /* \"contracts/03FunctionTypes.sol\":2734:2845  function addPayable() external payable returns(uint256 balance){... */\n    tag_48:\n        /* \"contracts/03FunctionTypes.sol\":2781:2796  uint256 balance */\n      0x00\n        /* \"contracts/03FunctionTypes.sol\":2817:2838  address(this).balance */\n      selfbalance\n        /* \"contracts/03FunctionTypes.sol\":2807:2838  balance = address(this).balance */\n      swap1\n      pop\n        /* \"contracts/03FunctionTypes.sol\":2734:2845  function addPayable() external payable returns(uint256 balance){... */\n      swap1\n      jump\t// out\n        /* \"contracts/03FunctionTypes.sol\":1990:2057  function addInternal() internal{... */\n    tag_52:\n        /* \"contracts/03FunctionTypes.sol\":2049:2050  1 */\n      0x01\n        /* \"contracts/03FunctionTypes.sol\":2040:2046  number */\n      sload(0x00)\n        /* \"contracts/03FunctionTypes.sol\":2040:2050  number + 1 */\n      tag_68\n      swap2\n      swap1\n      tag_56\n      jump\t// in\n    tag_68:\n        /* \"contracts/03FunctionTypes.sol\":2031:2037  number */\n      0x00\n        /* \"contracts/03FunctionTypes.sol\":2031:2050  number = number + 1 */\n      dup2\n      swap1\n      sstore\n      pop\n        /* \"contracts/03FunctionTypes.sol\":1990:2057  function addInternal() internal{... */\n      jump\t// out\n        /* \"#utility.yul\":7:84   */\n    tag_69:\n        /* \"#utility.yul\":44:51   */\n      0x00\n        /* \"#utility.yul\":73:78   */\n      dup2\n        /* \"#utility.yul\":62:78   */\n      swap1\n      pop\n        /* \"#utility.yul\":7:84   */\n      swap2\n      swap1\n      pop\n      jump\t// out\n        /* \"#utility.yul\":90:208   */\n    tag_70:\n        /* \"#utility.yul\":177:201   */\n      tag_93\n        /* \"#utility.yul\":195:200   */\n      dup2\n        /* \"#utility.yul\":177:201   */\n      tag_69\n      jump\t// in\n    tag_93:\n        /* \"#utility.yul\":172:175   */\n      dup3\n        /* \"#utility.yul\":165:202   */\n      mstore\n        /* \"#utility.yul\":90:208   */\n      pop\n      pop\n      jump\t// out\n        /* \"#utility.yul\":214:436   */\n    tag_15:\n        /* \"#utility.yul\":307:311   */\n      0x00\n        /* \"#utility.yul\":345:347   */\n      0x20\n        /* \"#utility.yul\":334:343   */\n      dup3\n        /* \"#utility.yul\":330:348   */\n      add\n        /* \"#utility.yul\":322:348   */\n      swap1\n      pop\n        /* \"#utility.yul\":358:429   */\n      tag_95\n        /* \"#utility.yul\":426:427   */\n      0x00\n        /* \"#utility.yul\":415:424   */\n      dup4\n        /* \"#utility.yul\":411:428   */\n      add\n        /* \"#utility.yul\":402:408   */\n      dup5\n        /* \"#utility.yul\":358:429   */\n      tag_70\n      jump\t// in\n    tag_95:\n        /* \"#utility.yul\":214:436   */\n      swap3\n      swap2\n      pop\n      pop\n      jump\t// out\n        /* \"#utility.yul\":442:532   */\n    tag_71:\n        /* \"#utility.yul\":476:483   */\n      0x00\n        /* \"#utility.yul\":519:524   */\n      dup2\n        /* \"#utility.yul\":512:525   */\n      iszero\n        /* \"#utility.yul\":505:526   */\n      iszero\n        /* \"#utility.yul\":494:526   */\n      swap1\n      pop\n        /* \"#utility.yul\":442:532   */\n      swap2\n      swap1\n      pop\n      jump\t// out\n        /* \"#utility.yul\":538:647   */\n    tag_72:\n        /* \"#utility.yul\":619:640   */\n      tag_98\n        /* \"#utility.yul\":634:639   */\n      dup2\n        /* \"#utility.yul\":619:640   */\n      tag_71\n      jump\t// in\n    tag_98:\n        /* \"#utility.yul\":614:617   */\n      dup3\n        /* \"#utility.yul\":607:641   */\n      mstore\n        /* \"#utility.yul\":538:647   */\n      pop\n      pop\n      jump\t// out\n        /* \"#utility.yul\":653:1083   */\n    tag_20:\n        /* \"#utility.yul\":796:800   */\n      0x00\n        /* \"#utility.yul\":834:836   */\n      0x60\n        /* \"#utility.yul\":823:832   */\n      dup3\n        /* \"#utility.yul\":819:837   */\n      add\n        /* \"#utility.yul\":811:837   */\n      swap1\n      pop\n        /* \"#utility.yul\":847:918   */\n      tag_100\n        /* \"#utility.yul\":915:916   */\n      0x00\n        /* \"#utility.yul\":904:913   */\n      dup4\n        /* \"#utility.yul\":900:917   */\n      add\n        /* \"#utility.yul\":891:897   */\n      dup7\n        /* \"#utility.yul\":847:918   */\n      tag_70\n      jump\t// in\n    tag_100:\n        /* \"#utility.yul\":928:1000   */\n      tag_101\n        /* \"#utility.yul\":996:998   */\n      0x20\n        /* \"#utility.yul\":985:994   */\n      dup4\n        /* \"#utility.yul\":981:999   */\n      add\n        /* \"#utility.yul\":972:978   */\n      dup6\n        /* \"#utility.yul\":928:1000   */\n      tag_70\n      jump\t// in\n    tag_101:\n        /* \"#utility.yul\":1010:1076   */\n      tag_102\n        /* \"#utility.yul\":1072:1074   */\n      0x40\n        /* \"#utility.yul\":1061:1070   */\n      dup4\n        /* \"#utility.yul\":1057:1075   */\n      add\n        /* \"#utility.yul\":1048:1054   */\n      dup5\n        /* \"#utility.yul\":1010:1076   */\n      tag_72\n      jump\t// in\n    tag_102:\n        /* \"#utility.yul\":653:1083   */\n      swap5\n      swap4\n      pop\n      pop\n      pop\n      pop\n      jump\t// out\n        /* \"#utility.yul\":1170:1287   */\n    tag_74:\n        /* \"#utility.yul\":1279:1280   */\n      0x00\n        /* \"#utility.yul\":1276:1277   */\n      dup1\n        /* \"#utility.yul\":1269:1281   */\n      revert\n        /* \"#utility.yul\":1293:1410   */\n    tag_75:\n        /* \"#utility.yul\":1402:1403   */\n      0x00\n        /* \"#utility.yul\":1399:1400   */\n      dup1\n        /* \"#utility.yul\":1392:1404   */\n      revert\n        /* \"#utility.yul\":1416:1538   */\n    tag_76:\n        /* \"#utility.yul\":1489:1513   */\n      tag_107\n        /* \"#utility.yul\":1507:1512   */\n      dup2\n        /* \"#utility.yul\":1489:1513   */\n      tag_69\n      jump\t// in\n    tag_107:\n        /* \"#utility.yul\":1482:1487   */\n      dup2\n        /* \"#utility.yul\":1479:1514   */\n      eq\n        /* \"#utility.yul\":1469:1532   */\n      tag_108\n      jumpi\n        /* \"#utility.yul\":1528:1529   */\n      0x00\n        /* \"#utility.yul\":1525:1526   */\n      dup1\n        /* \"#utility.yul\":1518:1530   */\n      revert\n        /* \"#utility.yul\":1469:1532   */\n    tag_108:\n        /* \"#utility.yul\":1416:1538   */\n      pop\n      jump\t// out\n        /* \"#utility.yul\":1544:1683   */\n    tag_77:\n        /* \"#utility.yul\":1590:1595   */\n      0x00\n        /* \"#utility.yul\":1628:1634   */\n      dup2\n        /* \"#utility.yul\":1615:1635   */\n      calldataload\n        /* \"#utility.yul\":1606:1635   */\n      swap1\n      pop\n        /* \"#utility.yul\":1644:1677   */\n      tag_110\n        /* \"#utility.yul\":1671:1676   */\n      dup2\n        /* \"#utility.yul\":1644:1677   */\n      tag_76\n      jump\t// in\n    tag_110:\n        /* \"#utility.yul\":1544:1683   */\n      swap3\n      swap2\n      pop\n      pop\n      jump\t// out\n        /* \"#utility.yul\":1689:2018   */\n    tag_24:\n        /* \"#utility.yul\":1748:1754   */\n      0x00\n        /* \"#utility.yul\":1797:1799   */\n      0x20\n        /* \"#utility.yul\":1785:1794   */\n      dup3\n        /* \"#utility.yul\":1776:1783   */\n      dup5\n        /* \"#utility.yul\":1772:1795   */\n      sub\n        /* \"#utility.yul\":1768:1800   */\n      slt\n        /* \"#utility.yul\":1765:1884   */\n      iszero\n      tag_112\n      jumpi\n        /* \"#utility.yul\":1803:1882   */\n      tag_113\n      tag_74\n      jump\t// in\n    tag_113:\n        /* \"#utility.yul\":1765:1884   */\n    tag_112:\n        /* \"#utility.yul\":1923:1924   */\n      0x00\n        /* \"#utility.yul\":1948:2001   */\n      tag_114\n        /* \"#utility.yul\":1993:2000   */\n      dup5\n        /* \"#utility.yul\":1984:1990   */\n      dup3\n        /* \"#utility.yul\":1973:1982   */\n      dup6\n        /* \"#utility.yul\":1969:1991   */\n      add\n        /* \"#utility.yul\":1948:2001   */\n      tag_77\n      jump\t// in\n    tag_114:\n        /* \"#utility.yul\":1938:2001   */\n      swap2\n      pop\n        /* \"#utility.yul\":1894:2011   */\n      pop\n        /* \"#utility.yul\":1689:2018   */\n      swap3\n      swap2\n      pop\n      pop\n      jump\t// out\n        /* \"#utility.yul\":2024:2141   */\n    tag_78:\n        /* \"#utility.yul\":2133:2134   */\n      0x00\n        /* \"#utility.yul\":2130:2131   */\n      dup1\n        /* \"#utility.yul\":2123:2135   */\n      revert\n        /* \"#utility.yul\":2147:2264   */\n    tag_79:\n        /* \"#utility.yul\":2256:2257   */\n      0x00\n        /* \"#utility.yul\":2253:2254   */\n      dup1\n        /* \"#utility.yul\":2246:2258   */\n      revert\n        /* \"#utility.yul\":2270:2387   */\n    tag_80:\n        /* \"#utility.yul\":2379:2380   */\n      0x00\n        /* \"#utility.yul\":2376:2377   */\n      dup1\n        /* \"#utility.yul\":2369:2381   */\n      revert\n        /* \"#utility.yul\":2410:2978   */\n    tag_81:\n        /* \"#utility.yul\":2483:2491   */\n      0x00\n        /* \"#utility.yul\":2493:2499   */\n      dup1\n        /* \"#utility.yul\":2543:2546   */\n      dup4\n        /* \"#utility.yul\":2536:2540   */\n      0x1f\n        /* \"#utility.yul\":2528:2534   */\n      dup5\n        /* \"#utility.yul\":2524:2541   */\n      add\n        /* \"#utility.yul\":2520:2547   */\n      slt\n        /* \"#utility.yul\":2510:2632   */\n      tag_119\n      jumpi\n        /* \"#utility.yul\":2551:2630   */\n      tag_120\n      tag_78\n      jump\t// in\n    tag_120:\n        /* \"#utility.yul\":2510:2632   */\n    tag_119:\n        /* \"#utility.yul\":2664:2670   */\n      dup3\n        /* \"#utility.yul\":2651:2671   */\n      calldataload\n        /* \"#utility.yul\":2641:2671   */\n      swap1\n      pop\n        /* \"#utility.yul\":2694:2712   */\n      0xffffffffffffffff\n        /* \"#utility.yul\":2686:2692   */\n      dup2\n        /* \"#utility.yul\":2683:2713   */\n      gt\n        /* \"#utility.yul\":2680:2797   */\n      iszero\n      tag_121\n      jumpi\n        /* \"#utility.yul\":2716:2795   */\n      tag_122\n      tag_79\n      jump\t// in\n    tag_122:\n        /* \"#utility.yul\":2680:2797   */\n    tag_121:\n        /* \"#utility.yul\":2830:2834   */\n      0x20\n        /* \"#utility.yul\":2822:2828   */\n      dup4\n        /* \"#utility.yul\":2818:2835   */\n      add\n        /* \"#utility.yul\":2806:2835   */\n      swap2\n      pop\n        /* \"#utility.yul\":2884:2887   */\n      dup4\n        /* \"#utility.yul\":2876:2880   */\n      0x20\n        /* \"#utility.yul\":2868:2874   */\n      dup3\n        /* \"#utility.yul\":2864:2881   */\n      mul\n        /* \"#utility.yul\":2854:2862   */\n      dup4\n        /* \"#utility.yul\":2850:2882   */\n      add\n        /* \"#utility.yul\":2847:2888   */\n      gt\n        /* \"#utility.yul\":2844:2972   */\n      iszero\n      tag_123\n      jumpi\n        /* \"#utility.yul\":2891:2970   */\n      tag_124\n      tag_80\n      jump\t// in\n    tag_124:\n        /* \"#utility.yul\":2844:2972   */\n    tag_123:\n        /* \"#utility.yul\":2410:2978   */\n      swap3\n      pop\n      swap3\n      swap1\n      pop\n      jump\t// out\n        /* \"#utility.yul\":2984:3543   */\n    tag_30:\n        /* \"#utility.yul\":3070:3076   */\n      0x00\n        /* \"#utility.yul\":3078:3084   */\n      dup1\n        /* \"#utility.yul\":3127:3129   */\n      0x20\n        /* \"#utility.yul\":3115:3124   */\n      dup4\n        /* \"#utility.yul\":3106:3113   */\n      dup6\n        /* \"#utility.yul\":3102:3125   */\n      sub\n        /* \"#utility.yul\":3098:3130   */\n      slt\n        /* \"#utility.yul\":3095:3214   */\n      iszero\n      tag_126\n      jumpi\n        /* \"#utility.yul\":3133:3212   */\n      tag_127\n      tag_74\n      jump\t// in\n    tag_127:\n        /* \"#utility.yul\":3095:3214   */\n    tag_126:\n        /* \"#utility.yul\":3281:3282   */\n      0x00\n        /* \"#utility.yul\":3270:3279   */\n      dup4\n        /* \"#utility.yul\":3266:3283   */\n      add\n        /* \"#utility.yul\":3253:3284   */\n      calldataload\n        /* \"#utility.yul\":3311:3329   */\n      0xffffffffffffffff\n        /* \"#utility.yul\":3303:3309   */\n      dup2\n        /* \"#utility.yul\":3300:3330   */\n      gt\n        /* \"#utility.yul\":3297:3414   */\n      iszero\n      tag_128\n      jumpi\n        /* \"#utility.yul\":3333:3412   */\n      tag_129\n      tag_75\n      jump\t// in\n    tag_129:\n        /* \"#utility.yul\":3297:3414   */\n    tag_128:\n        /* \"#utility.yul\":3446:3526   */\n      tag_130\n        /* \"#utility.yul\":3518:3525   */\n      dup6\n        /* \"#utility.yul\":3509:3515   */\n      dup3\n        /* \"#utility.yul\":3498:3507   */\n      dup7\n        /* \"#utility.yul\":3494:3516   */\n      add\n        /* \"#utility.yul\":3446:3526   */\n      tag_81\n      jump\t// in\n    tag_130:\n        /* \"#utility.yul\":3428:3526   */\n      swap3\n      pop\n      swap3\n      pop\n        /* \"#utility.yul\":3224:3536   */\n      pop\n        /* \"#utility.yul\":2984:3543   */\n      swap3\n      pop\n      swap3\n      swap1\n      pop\n      jump\t// out\n        /* \"#utility.yul\":3549:3733   */\n    tag_82:\n        /* \"#utility.yul\":3648:3659   */\n      0x00\n        /* \"#utility.yul\":3682:3688   */\n      dup3\n        /* \"#utility.yul\":3677:3680   */\n      dup3\n        /* \"#utility.yul\":3670:3689   */\n      mstore\n        /* \"#utility.yul\":3722:3726   */\n      0x20\n        /* \"#utility.yul\":3717:3720   */\n      dup3\n        /* \"#utility.yul\":3713:3727   */\n      add\n        /* \"#utility.yul\":3698:3727   */\n      swap1\n      pop\n        /* \"#utility.yul\":3549:3733   */\n      swap3\n      swap2\n      pop\n      pop\n      jump\t// out\n        /* \"#utility.yul\":3739:3856   */\n    tag_83:\n        /* \"#utility.yul\":3848:3849   */\n      0x00\n        /* \"#utility.yul\":3845:3846   */\n      dup1\n        /* \"#utility.yul\":3838:3850   */\n      revert\n        /* \"#utility.yul\":3862:4016   */\n    tag_84:\n        /* \"#utility.yul\":3946:3952   */\n      dup3\n        /* \"#utility.yul\":3941:3944   */\n      dup2\n        /* \"#utility.yul\":3936:3939   */\n      dup4\n        /* \"#utility.yul\":3923:3953   */\n      calldatacopy\n        /* \"#utility.yul\":4008:4009   */\n      0x00\n        /* \"#utility.yul\":3999:4005   */\n      dup4\n        /* \"#utility.yul\":3994:3997   */\n      dup4\n        /* \"#utility.yul\":3990:4006   */\n      add\n        /* \"#utility.yul\":3983:4010   */\n      mstore\n        /* \"#utility.yul\":3862:4016   */\n      pop\n      pop\n      pop\n      jump\t// out\n        /* \"#utility.yul\":4052:4589   */\n    tag_85:\n        /* \"#utility.yul\":4180:4183   */\n      0x00\n        /* \"#utility.yul\":4201:4287   */\n      tag_135\n        /* \"#utility.yul\":4280:4286   */\n      dup4\n        /* \"#utility.yul\":4275:4278   */\n      dup6\n        /* \"#utility.yul\":4201:4287   */\n      tag_82\n      jump\t// in\n    tag_135:\n        /* \"#utility.yul\":4194:4287   */\n      swap4\n      pop\n        /* \"#utility.yul\":4311:4377   */\n      0x07ffffffffffffffffffffffffffffffffffffffffffffffffffffffffffffff\n        /* \"#utility.yul\":4303:4309   */\n      dup4\n        /* \"#utility.yul\":4300:4378   */\n      gt\n        /* \"#utility.yul\":4297:4462   */\n      iszero\n      tag_136\n      jumpi\n        /* \"#utility.yul\":4381:4460   */\n      tag_137\n      tag_83\n      jump\t// in\n    tag_137:\n        /* \"#utility.yul\":4297:4462   */\n    tag_136:\n        /* \"#utility.yul\":4493:4497   */\n      0x20\n        /* \"#utility.yul\":4485:4491   */\n      dup4\n        /* \"#utility.yul\":4481:4498   */\n      mul\n        /* \"#utility.yul\":4471:4498   */\n      swap3\n      pop\n        /* \"#utility.yul\":4508:4551   */\n      tag_138\n        /* \"#utility.yul\":4544:4550   */\n      dup4\n        /* \"#utility.yul\":4539:4542   */\n      dup6\n        /* \"#utility.yul\":4532:4537   */\n      dup5\n        /* \"#utility.yul\":4508:4551   */\n      tag_84\n      jump\t// in\n    tag_138:\n        /* \"#utility.yul\":4576:4582   */\n      dup3\n        /* \"#utility.yul\":4571:4574   */\n      dup5\n        /* \"#utility.yul\":4567:4583   */\n      add\n        /* \"#utility.yul\":4560:4583   */\n      swap1\n      pop\n        /* \"#utility.yul\":4052:4589   */\n      swap4\n      swap3\n      pop\n      pop\n      pop\n      jump\t// out\n        /* \"#utility.yul\":4595:4988   */\n    tag_33:\n        /* \"#utility.yul\":4748:4752   */\n      0x00\n        /* \"#utility.yul\":4786:4788   */\n      0x20\n        /* \"#utility.yul\":4775:4784   */\n      dup3\n        /* \"#utility.yul\":4771:4789   */\n      add\n        /* \"#utility.yul\":4763:4789   */\n      swap1\n      pop\n        /* \"#utility.yul\":4835:4844   */\n      dup2\n        /* \"#utility.yul\":4829:4833   */\n      dup2\n        /* \"#utility.yul\":4825:4845   */\n      sub\n        /* \"#utility.yul\":4821:4822   */\n      0x00\n        /* \"#utility.yul\":4810:4819   */\n      dup4\n        /* \"#utility.yul\":4806:4823   */\n      add\n        /* \"#utility.yul\":4799:4846   */\n      mstore\n        /* \"#utility.yul\":4863:4981   */\n      tag_140\n        /* \"#utility.yul\":4976:4980   */\n      dup2\n        /* \"#utility.yul\":4967:4973   */\n      dup5\n        /* \"#utility.yul\":4959:4965   */\n      dup7\n        /* \"#utility.yul\":4863:4981   */\n      tag_85\n      jump\t// in\n    tag_140:\n        /* \"#utility.yul\":4855:4981   */\n      swap1\n      pop\n        /* \"#utility.yul\":4595:4988   */\n      swap4\n      swap3\n      pop\n      pop\n      pop\n      jump\t// out\n        /* \"#utility.yul\":4994:5314   */\n    tag_38:\n        /* \"#utility.yul\":5109:5113   */\n      0x00\n        /* \"#utility.yul\":5147:5149   */\n      0x40\n        /* \"#utility.yul\":5136:5145   */\n      dup3\n        /* \"#utility.yul\":5132:5150   */\n      add\n        /* \"#utility.yul\":5124:5150   */\n      swap1\n      pop\n        /* \"#utility.yul\":5160:5231   */\n      tag_142\n        /* \"#utility.yul\":5228:5229   */\n      0x00\n        /* \"#utility.yul\":5217:5226   */\n      dup4\n        /* \"#utility.yul\":5213:5230   */\n      add\n        /* \"#utility.yul\":5204:5210   */\n      dup6\n        /* \"#utility.yul\":5160:5231   */\n      tag_70\n      jump\t// in\n    tag_142:\n        /* \"#utility.yul\":5241:5307   */\n      tag_143\n        /* \"#utility.yul\":5303:5305   */\n      0x20\n        /* \"#utility.yul\":5292:5301   */\n      dup4\n        /* \"#utility.yul\":5288:5306   */\n      add\n        /* \"#utility.yul\":5279:5285   */\n      dup5\n        /* \"#utility.yul\":5241:5307   */\n      tag_72\n      jump\t// in\n    tag_143:\n        /* \"#utility.yul\":4994:5314   */\n      swap4\n      swap3\n      pop\n      pop\n      pop\n      jump\t// out\n        /* \"#utility.yul\":5320:5500   */\n    tag_86:\n        /* \"#utility.yul\":5368:5445   */\n      0x4e487b7100000000000000000000000000000000000000000000000000000000\n        /* \"#utility.yul\":5365:5366   */\n      0x00\n        /* \"#utility.yul\":5358:5446   */\n      mstore\n        /* \"#utility.yul\":5465:5469   */\n      0x11\n        /* \"#utility.yul\":5462:5463   */\n      0x04\n        /* \"#utility.yul\":5455:5470   */\n      mstore\n        /* \"#utility.yul\":5489:5493   */\n      0x24\n        /* \"#utility.yul\":5486:5487   */\n      0x00\n        /* \"#utility.yul\":5479:5494   */\n      revert\n        /* \"#utility.yul\":5506:5811   */\n    tag_56:\n        /* \"#utility.yul\":5546:5549   */\n      0x00\n        /* \"#utility.yul\":5565:5585   */\n      tag_146\n        /* \"#utility.yul\":5583:5584   */\n      dup3\n        /* \"#utility.yul\":5565:5585   */\n      tag_69\n      jump\t// in\n    tag_146:\n        /* \"#utility.yul\":5560:5585   */\n      swap2\n      pop\n        /* \"#utility.yul\":5599:5619   */\n      tag_147\n        /* \"#utility.yul\":5617:5618   */\n      dup4\n        /* \"#utility.yul\":5599:5619   */\n      tag_69\n      jump\t// in\n    tag_147:\n        /* \"#utility.yul\":5594:5619   */\n      swap3\n      pop\n        /* \"#utility.yul\":5753:5754   */\n      dup3\n        /* \"#utility.yul\":5685:5751   */\n      0xffffffffffffffffffffffffffffffffffffffffffffffffffffffffffffffff\n        /* \"#utility.yul\":5681:5755   */\n      sub\n        /* \"#utility.yul\":5678:5679   */\n      dup3\n        /* \"#utility.yul\":5675:5756   */\n      gt\n        /* \"#utility.yul\":5672:5779   */\n      iszero\n      tag_148\n      jumpi\n        /* \"#utility.yul\":5759:5777   */\n      tag_149\n      tag_86\n      jump\t// in\n    tag_149:\n        /* \"#utility.yul\":5672:5779   */\n    tag_148:\n        /* \"#utility.yul\":5803:5804   */\n      dup3\n        /* \"#utility.yul\":5800:5801   */\n      dup3\n        /* \"#utility.yul\":5796:5805   */\n      add\n        /* \"#utility.yul\":5789:5805   */\n      swap1\n      pop\n        /* \"#utility.yul\":5506:5811   */\n      swap3\n      swap2\n      pop\n      pop\n      jump\t// out\n        /* \"#utility.yul\":5817:5960   */\n    tag_87:\n        /* \"#utility.yul\":5874:5879   */\n      0x00\n        /* \"#utility.yul\":5905:5911   */\n      dup2\n        /* \"#utility.yul\":5899:5912   */\n      mload\n        /* \"#utility.yul\":5890:5912   */\n      swap1\n      pop\n        /* \"#utility.yul\":5921:5954   */\n      tag_151\n        /* \"#utility.yul\":5948:5953   */\n      dup2\n        /* \"#utility.yul\":5921:5954   */\n      tag_76\n      jump\t// in\n    tag_151:\n        /* \"#utility.yul\":5817:5960   */\n      swap3\n      swap2\n      pop\n      pop\n      jump\t// out\n        /* \"#utility.yul\":5966:6082   */\n    tag_88:\n        /* \"#utility.yul\":6036:6057   */\n      tag_153\n        /* \"#utility.yul\":6051:6056   */\n      dup2\n        /* \"#utility.yul\":6036:6057   */\n      tag_71\n      jump\t// in\n    tag_153:\n        /* \"#utility.yul\":6029:6034   */\n      dup2\n        /* \"#utility.yul\":6026:6058   */\n      eq\n        /* \"#utility.yul\":6016:6076   */\n      tag_154\n      jumpi\n        /* \"#utility.yul\":6072:6073   */\n      0x00\n        /* \"#utility.yul\":6069:6070   */\n      dup1\n        /* \"#utility.yul\":6062:6074   */\n      revert\n        /* \"#utility.yul\":6016:6076   */\n    tag_154:\n        /* \"#utility.yul\":5966:6082   */\n      pop\n      jump\t// out\n        /* \"#utility.yul\":6088:6225   */\n    tag_89:\n        /* \"#utility.yul\":6142:6147   */\n      0x00\n        /* \"#utility.yul\":6173:6179   */\n      dup2\n        /* \"#utility.yul\":6167:6180   */\n      mload\n        /* \"#utility.yul\":6158:6180   */\n      swap1\n      pop\n        /* \"#utility.yul\":6189:6219   */\n      tag_156\n        /* \"#utility.yul\":6213:6218   */\n      dup2\n        /* \"#utility.yul\":6189:6219   */\n      tag_88\n      jump\t// in\n    tag_156:\n        /* \"#utility.yul\":6088:6225   */\n      swap3\n      swap2\n      pop\n      pop\n      jump\t// out\n        /* \"#utility.yul\":6231:6888   */\n    tag_63:\n        /* \"#utility.yul\":6316:6322   */\n      0x00\n        /* \"#utility.yul\":6324:6330   */\n      dup1\n        /* \"#utility.yul\":6332:6338   */\n      0x00\n        /* \"#utility.yul\":6381:6383   */\n      0x60\n        /* \"#utility.yul\":6369:6378   */\n      dup5\n        /* \"#utility.yul\":6360:6367   */\n      dup7\n        /* \"#utility.yul\":6356:6379   */\n      sub\n        /* \"#utility.yul\":6352:6384   */\n      slt\n        /* \"#utility.yul\":6349:6468   */\n      iszero\n      tag_158\n      jumpi\n        /* \"#utility.yul\":6387:6466   */\n      tag_159\n      tag_74\n      jump\t// in\n    tag_159:\n        /* \"#utility.yul\":6349:6468   */\n    tag_158:\n        /* \"#utility.yul\":6507:6508   */\n      0x00\n        /* \"#utility.yul\":6532:6596   */\n      tag_160\n        /* \"#utility.yul\":6588:6595   */\n      dup7\n        /* \"#utility.yul\":6579:6585   */\n      dup3\n        /* \"#utility.yul\":6568:6577   */\n      dup8\n        /* \"#utility.yul\":6564:6586   */\n      add\n        /* \"#utility.yul\":6532:6596   */\n      tag_87\n      jump\t// in\n    tag_160:\n        /* \"#utility.yul\":6522:6596   */\n      swap4\n      pop\n        /* \"#utility.yul\":6478:6606   */\n      pop\n        /* \"#utility.yul\":6645:6647   */\n      0x20\n        /* \"#utility.yul\":6671:6735   */\n      tag_161\n        /* \"#utility.yul\":6727:6734   */\n      dup7\n        /* \"#utility.yul\":6718:6724   */\n      dup3\n        /* \"#utility.yul\":6707:6716   */\n      dup8\n        /* \"#utility.yul\":6703:6725   */\n      add\n        /* \"#utility.yul\":6671:6735   */\n      tag_87\n      jump\t// in\n    tag_161:\n        /* \"#utility.yul\":6661:6735   */\n      swap3\n      pop\n        /* \"#utility.yul\":6616:6745   */\n      pop\n        /* \"#utility.yul\":6784:6786   */\n      0x40\n        /* \"#utility.yul\":6810:6871   */\n      tag_162\n        /* \"#utility.yul\":6863:6870   */\n      dup7\n        /* \"#utility.yul\":6854:6860   */\n      dup3\n        /* \"#utility.yul\":6843:6852   */\n      dup8\n        /* \"#utility.yul\":6839:6861   */\n      add\n        /* \"#utility.yul\":6810:6871   */\n      tag_89\n      jump\t// in\n    tag_162:\n        /* \"#utility.yul\":6800:6871   */\n      swap2\n      pop\n        /* \"#utility.yul\":6755:6881   */\n      pop\n        /* \"#utility.yul\":6231:6888   */\n      swap3\n      pop\n      swap3\n      pop\n      swap3\n      jump\t// out\n\n    auxdata: 0xa2646970667358221220d0666a48934050bf4b4e28173ad28718e7a9086670bc88ae73f25c86670a3c5f64736f6c63430008090033\n}\n",
				"bytecode": {
					"linkReferences": {},
					"object": "60806040526000805534801561001457600080fd5b506106c9806100246000396000f3fe60806040526004361061007b5760003560e01c80637dcdc2611161004e5780637dcdc261146101535780638381f58a1461017f578063b262eb7f146101aa578063f611bfed146101d55761007b565b80634f5c05c71461008057806364e94cc6146100ab5780637032c4f2146100d85780637bc5bbbf14610115575b600080fd5b34801561008c57600080fd5b506100956101f3565b6040516100a2919061032a565b60405180910390f35b3480156100b757600080fd5b506100c0610205565b6040516100cf93929190610360565b60405180910390f35b3480156100e457600080fd5b506100ff60048036038101906100fa91906103cd565b61021b565b60405161010c919061032a565b60405180910390f35b34801561012157600080fd5b5061013c6004803603810190610137919061045f565b610231565b60405161014a92919061052d565b60405180910390f35b34801561015f57600080fd5b50610168610241565b604051610176929190610551565b60405180910390f35b34801561018b57600080fd5b506101946102d6565b6040516101a1919061032a565b60405180910390f35b3480156101b657600080fd5b506101bf6102dc565b6040516101cc919061032a565b60405180910390f35b6101dd6102f2565b6040516101ea919061032a565b60405180910390f35b60006101fd6102fa565b600054905090565b6000806000606f60de6001925092509250909192565b600060018261022a91906105a9565b9050919050565b3660008383915091509250929050565b6000806000803073ffffffffffffffffffffffffffffffffffffffff166364e94cc66040518163ffffffff1660e01b815260040160606040518083038186803b15801561028d57600080fd5b505afa1580156102a1573d6000803e3d6000fd5b505050506040513d601f19601f820116820180604052508101906102c59190610640565b925050915081819350935050509091565b60005481565b600060016000546102ed91906105a9565b905090565b600047905090565b600160005461030991906105a9565b600081905550565b6000819050919050565b61032481610311565b82525050565b600060208201905061033f600083018461031b565b92915050565b60008115159050919050565b61035a81610345565b82525050565b6000606082019050610375600083018661031b565b610382602083018561031b565b61038f6040830184610351565b949350505050565b600080fd5b600080fd5b6103aa81610311565b81146103b557600080fd5b50565b6000813590506103c7816103a1565b92915050565b6000602082840312156103e3576103e2610397565b5b60006103f1848285016103b8565b91505092915050565b600080fd5b600080fd5b600080fd5b60008083601f84011261041f5761041e6103fa565b5b8235905067ffffffffffffffff81111561043c5761043b6103ff565b5b60208301915083602082028301111561045857610457610404565b5b9250929050565b6000806020838503121561047657610475610397565b5b600083013567ffffffffffffffff8111156104945761049361039c565b5b6104a085828601610409565b92509250509250929050565b600082825260208201905092915050565b600080fd5b82818337600083830152505050565b60006104dd83856104ac565b93507f07ffffffffffffffffffffffffffffffffffffffffffffffffffffffffffffff8311156105105761050f6104bd565b5b6020830292506105218385846104c2565b82840190509392505050565b600060208201905081810360008301526105488184866104d1565b90509392505050565b6000604082019050610566600083018561031b565b6105736020830184610351565b9392505050565b7f4e487b7100000000000000000000000000000000000000000000000000000000600052601160045260246000fd5b60006105b482610311565b91506105bf83610311565b9250827fffffffffffffffffffffffffffffffffffffffffffffffffffffffffffffffff038211156105f4576105f361057a565b5b828201905092915050565b60008151905061060e816103a1565b92915050565b61061d81610345565b811461062857600080fd5b50565b60008151905061063a81610614565b92915050565b60008060006060848603121561065957610658610397565b5b6000610667868287016105ff565b9350506020610678868287016105ff565b92505060406106898682870161062b565b915050925092509256fea2646970667358221220d0666a48934050bf4b4e28173ad28718e7a9086670bc88ae73f25c86670a3c5f64736f6c63430008090033",
					"opcodes": "PUSH1 0x80 PUSH1 0x40 MSTORE PUSH1 0x0 DUP1 SSTORE CALLVALUE DUP1 ISZERO PUSH2 0x14 JUMPI PUSH1 0x0 DUP1 REVERT JUMPDEST POP PUSH2 0x6C9 DUP1 PUSH2 0x24 PUSH1 0x0 CODECOPY PUSH1 0x0 RETURN INVALID PUSH1 0x80 PUSH1 0x40 MSTORE PUSH1 0x4 CALLDATASIZE LT PUSH2 0x7B JUMPI PUSH1 0x0 CALLDATALOAD PUSH1 0xE0 SHR DUP1 PUSH4 0x7DCDC261 GT PUSH2 0x4E JUMPI DUP1 PUSH4 0x7DCDC261 EQ PUSH2 0x153 JUMPI DUP1 PUSH4 0x8381F58A EQ PUSH2 0x17F JUMPI DUP1 PUSH4 0xB262EB7F EQ PUSH2 0x1AA JUMPI DUP1 PUSH4 0xF611BFED EQ PUSH2 0x1D5 JUMPI PUSH2 0x7B JUMP JUMPDEST DUP1 PUSH4 0x4F5C05C7 EQ PUSH2 0x80 JUMPI DUP1 PUSH4 0x64E94CC6 EQ PUSH2 0xAB JUMPI DUP1 PUSH4 0x7032C4F2 EQ PUSH2 0xD8 JUMPI DUP1 PUSH4 0x7BC5BBBF EQ PUSH2 0x115 JUMPI JUMPDEST PUSH1 0x0 DUP1 REVERT JUMPDEST CALLVALUE DUP1 ISZERO PUSH2 0x8C JUMPI PUSH1 0x0 DUP1 REVERT JUMPDEST POP PUSH2 0x95 PUSH2 0x1F3 JUMP JUMPDEST PUSH1 0x40 MLOAD PUSH2 0xA2 SWAP2 SWAP1 PUSH2 0x32A JUMP JUMPDEST PUSH1 0x40 MLOAD DUP1 SWAP2 SUB SWAP1 RETURN JUMPDEST CALLVALUE DUP1 ISZERO PUSH2 0xB7 JUMPI PUSH1 0x0 DUP1 REVERT JUMPDEST POP PUSH2 0xC0 PUSH2 0x205 JUMP JUMPDEST PUSH1 0x40 MLOAD PUSH2 0xCF SWAP4 SWAP3 SWAP2 SWAP1 PUSH2 0x360 JUMP JUMPDEST PUSH1 0x40 MLOAD DUP1 SWAP2 SUB SWAP1 RETURN JUMPDEST CALLVALUE DUP1 ISZERO PUSH2 0xE4 JUMPI PUSH1 0x0 DUP1 REVERT JUMPDEST POP PUSH2 0xFF PUSH1 0x4 DUP1 CALLDATASIZE SUB DUP2 ADD SWAP1 PUSH2 0xFA SWAP2 SWAP1 PUSH2 0x3CD JUMP JUMPDEST PUSH2 0x21B JUMP JUMPDEST PUSH1 0x40 MLOAD PUSH2 0x10C SWAP2 SWAP1 PUSH2 0x32A JUMP JUMPDEST PUSH1 0x40 MLOAD DUP1 SWAP2 SUB SWAP1 RETURN JUMPDEST CALLVALUE DUP1 ISZERO PUSH2 0x121 JUMPI PUSH1 0x0 DUP1 REVERT JUMPDEST POP PUSH2 0x13C PUSH1 0x4 DUP1 CALLDATASIZE SUB DUP2 ADD SWAP1 PUSH2 0x137 SWAP2 SWAP1 PUSH2 0x45F JUMP JUMPDEST PUSH2 0x231 JUMP JUMPDEST PUSH1 0x40 MLOAD PUSH2 0x14A SWAP3 SWAP2 SWAP1 PUSH2 0x52D JUMP JUMPDEST PUSH1 0x40 MLOAD DUP1 SWAP2 SUB SWAP1 RETURN JUMPDEST CALLVALUE DUP1 ISZERO PUSH2 0x15F JUMPI PUSH1 0x0 DUP1 REVERT JUMPDEST POP PUSH2 0x168 PUSH2 0x241 JUMP JUMPDEST PUSH1 0x40 MLOAD PUSH2 0x176 SWAP3 SWAP2 SWAP1 PUSH2 0x551 JUMP JUMPDEST PUSH1 0x40 MLOAD DUP1 SWAP2 SUB SWAP1 RETURN JUMPDEST CALLVALUE DUP1 ISZERO PUSH2 0x18B JUMPI PUSH1 0x0 DUP1 REVERT JUMPDEST POP PUSH2 0x194 PUSH2 0x2D6 JUMP JUMPDEST PUSH1 0x40 MLOAD PUSH2 0x1A1 SWAP2 SWAP1 PUSH2 0x32A JUMP JUMPDEST PUSH1 0x40 MLOAD DUP1 SWAP2 SUB SWAP1 RETURN JUMPDEST CALLVALUE DUP1 ISZERO PUSH2 0x1B6 JUMPI PUSH1 0x0 DUP1 REVERT JUMPDEST POP PUSH2 0x1BF PUSH2 0x2DC JUMP JUMPDEST PUSH1 0x40 MLOAD PUSH2 0x1CC SWAP2 SWAP1 PUSH2 0x32A JUMP JUMPDEST PUSH1 0x40 MLOAD DUP1 SWAP2 SUB SWAP1 RETURN JUMPDEST PUSH2 0x1DD PUSH2 0x2F2 JUMP JUMPDEST PUSH1 0x40 MLOAD PUSH2 0x1EA SWAP2 SWAP1 PUSH2 0x32A JUMP JUMPDEST PUSH1 0x40 MLOAD DUP1 SWAP2 SUB SWAP1 RETURN JUMPDEST PUSH1 0x0 PUSH2 0x1FD PUSH2 0x2FA JUMP JUMPDEST PUSH1 0x0 SLOAD SWAP1 POP SWAP1 JUMP JUMPDEST PUSH1 0x0 DUP1 PUSH1 0x0 PUSH1 0x6F PUSH1 0xDE PUSH1 0x1 SWAP3 POP SWAP3 POP SWAP3 POP SWAP1 SWAP2 SWAP3 JUMP JUMPDEST PUSH1 0x0 PUSH1 0x1 DUP3 PUSH2 0x22A SWAP2 SWAP1 PUSH2 0x5A9 JUMP JUMPDEST SWAP1 POP SWAP2 SWAP1 POP JUMP JUMPDEST CALLDATASIZE PUSH1 0x0 DUP4 DUP4 SWAP2 POP SWAP2 POP SWAP3 POP SWAP3 SWAP1 POP JUMP JUMPDEST PUSH1 0x0 DUP1 PUSH1 0x0 DUP1 ADDRESS PUSH20 0xFFFFFFFFFFFFFFFFFFFFFFFFFFFFFFFFFFFFFFFF AND PUSH4 0x64E94CC6 PUSH1 0x40 MLOAD DUP2 PUSH4 0xFFFFFFFF AND PUSH1 0xE0 SHL DUP2 MSTORE PUSH1 0x4 ADD PUSH1 0x60 PUSH1 0x40 MLOAD DUP1 DUP4 SUB DUP2 DUP7 DUP1 EXTCODESIZE ISZERO DUP1 ISZERO PUSH2 0x28D JUMPI PUSH1 0x0 DUP1 REVERT JUMPDEST POP GAS STATICCALL ISZERO DUP1 ISZERO PUSH2 0x2A1 JUMPI RETURNDATASIZE PUSH1 0x0 DUP1 RETURNDATACOPY RETURNDATASIZE PUSH1 0x0 REVERT JUMPDEST POP POP POP POP PUSH1 0x40 MLOAD RETURNDATASIZE PUSH1 0x1F NOT PUSH1 0x1F DUP3 ADD AND DUP3 ADD DUP1 PUSH1 0x40 MSTORE POP DUP2 ADD SWAP1 PUSH2 0x2C5 SWAP2 SWAP1 PUSH2 0x640 JUMP JUMPDEST SWAP3 POP POP SWAP2 POP DUP2 DUP2 SWAP4 POP SWAP4 POP POP POP SWAP1 SWAP2 JUMP JUMPDEST PUSH1 0x0 SLOAD DUP2 JUMP JUMPDEST PUSH1 0x0 PUSH1 0x1 PUSH1 0x0 SLOAD PUSH2 0x2ED SWAP2 SWAP1 PUSH2 0x5A9 JUMP JUMPDEST SWAP1 POP SWAP1 JUMP JUMPDEST PUSH1 0x0 SELFBALANCE SWAP1 POP SWAP1 JUMP JUMPDEST PUSH1 0x1 PUSH1 0x0 SLOAD PUSH2 0x309 SWAP2 SWAP1 PUSH2 0x5A9 JUMP JUMPDEST PUSH1 0x0 DUP2 SWAP1 SSTORE POP JUMP JUMPDEST PUSH1 0x0 DUP2 SWAP1 POP SWAP2 SWAP1 POP JUMP JUMPDEST PUSH2 0x324 DUP2 PUSH2 0x311 JUMP JUMPDEST DUP3 MSTORE POP POP JUMP JUMPDEST PUSH1 0x0 PUSH1 0x20 DUP3 ADD SWAP1 POP PUSH2 0x33F PUSH1 0x0 DUP4 ADD DUP5 PUSH2 0x31B JUMP JUMPDEST SWAP3 SWAP2 POP POP JUMP JUMPDEST PUSH1 0x0 DUP2 ISZERO ISZERO SWAP1 POP SWAP2 SWAP1 POP JUMP JUMPDEST PUSH2 0x35A DUP2 PUSH2 0x345 JUMP JUMPDEST DUP3 MSTORE POP POP JUMP JUMPDEST PUSH1 0x0 PUSH1 0x60 DUP3 ADD SWAP1 POP PUSH2 0x375 PUSH1 0x0 DUP4 ADD DUP7 PUSH2 0x31B JUMP JUMPDEST PUSH2 0x382 PUSH1 0x20 DUP4 ADD DUP6 PUSH2 0x31B JUMP JUMPDEST PUSH2 0x38F PUSH1 0x40 DUP4 ADD DUP5 PUSH2 0x351 JUMP JUMPDEST SWAP5 SWAP4 POP POP POP POP JUMP JUMPDEST PUSH1 0x0 DUP1 REVERT JUMPDEST PUSH1 0x0 DUP1 REVERT JUMPDEST PUSH2 0x3AA DUP2 PUSH2 0x311 JUMP JUMPDEST DUP2 EQ PUSH2 0x3B5 JUMPI PUSH1 0x0 DUP1 REVERT JUMPDEST POP JUMP JUMPDEST PUSH1 0x0 DUP2 CALLDATALOAD SWAP1 POP PUSH2 0x3C7 DUP2 PUSH2 0x3A1 JUMP JUMPDEST SWAP3 SWAP2 POP POP JUMP JUMPDEST PUSH1 0x0 PUSH1 0x20 DUP3 DUP5 SUB SLT ISZERO PUSH2 0x3E3 JUMPI PUSH2 0x3E2 PUSH2 0x397 JUMP JUMPDEST JUMPDEST PUSH1 0x0 PUSH2 0x3F1 DUP5 DUP3 DUP6 ADD PUSH2 0x3B8 JUMP JUMPDEST SWAP2 POP POP SWAP3 SWAP2 POP POP JUMP JUMPDEST PUSH1 0x0 DUP1 REVERT JUMPDEST PUSH1 0x0 DUP1 REVERT JUMPDEST PUSH1 0x0 DUP1 REVERT JUMPDEST PUSH1 0x0 DUP1 DUP4 PUSH1 0x1F DUP5 ADD SLT PUSH2 0x41F JUMPI PUSH2 0x41E PUSH2 0x3FA JUMP JUMPDEST JUMPDEST DUP3 CALLDATALOAD SWAP1 POP PUSH8 0xFFFFFFFFFFFFFFFF DUP2 GT ISZERO PUSH2 0x43C JUMPI PUSH2 0x43B PUSH2 0x3FF JUMP JUMPDEST JUMPDEST PUSH1 0x20 DUP4 ADD SWAP2 POP DUP4 PUSH1 0x20 DUP3 MUL DUP4 ADD GT ISZERO PUSH2 0x458 JUMPI PUSH2 0x457 PUSH2 0x404 JUMP JUMPDEST JUMPDEST SWAP3 POP SWAP3 SWAP1 POP JUMP JUMPDEST PUSH1 0x0 DUP1 PUSH1 0x20 DUP4 DUP6 SUB SLT ISZERO PUSH2 0x476 JUMPI PUSH2 0x475 PUSH2 0x397 JUMP JUMPDEST JUMPDEST PUSH1 0x0 DUP4 ADD CALLDATALOAD PUSH8 0xFFFFFFFFFFFFFFFF DUP2 GT ISZERO PUSH2 0x494 JUMPI PUSH2 0x493 PUSH2 0x39C JUMP JUMPDEST JUMPDEST PUSH2 0x4A0 DUP6 DUP3 DUP7 ADD PUSH2 0x409 JUMP JUMPDEST SWAP3 POP SWAP3 POP POP SWAP3 POP SWAP3 SWAP1 POP JUMP JUMPDEST PUSH1 0x0 DUP3 DUP3 MSTORE PUSH1 0x20 DUP3 ADD SWAP1 POP SWAP3 SWAP2 POP POP JUMP JUMPDEST PUSH1 0x0 DUP1 REVERT JUMPDEST DUP3 DUP2 DUP4 CALLDATACOPY PUSH1 0x0 DUP4 DUP4 ADD MSTORE POP POP POP JUMP JUMPDEST PUSH1 0x0 PUSH2 0x4DD DUP4 DUP6 PUSH2 0x4AC JUMP JUMPDEST SWAP4 POP PUSH32 0x7FFFFFFFFFFFFFFFFFFFFFFFFFFFFFFFFFFFFFFFFFFFFFFFFFFFFFFFFFFFFFF DUP4 GT ISZERO PUSH2 0x510 JUMPI PUSH2 0x50F PUSH2 0x4BD JUMP JUMPDEST JUMPDEST PUSH1 0x20 DUP4 MUL SWAP3 POP PUSH2 0x521 DUP4 DUP6 DUP5 PUSH2 0x4C2 JUMP JUMPDEST DUP3 DUP5 ADD SWAP1 POP SWAP4 SWAP3 POP POP POP JUMP JUMPDEST PUSH1 0x0 PUSH1 0x20 DUP3 ADD SWAP1 POP DUP2 DUP2 SUB PUSH1 0x0 DUP4 ADD MSTORE PUSH2 0x548 DUP2 DUP5 DUP7 PUSH2 0x4D1 JUMP JUMPDEST SWAP1 POP SWAP4 SWAP3 POP POP POP JUMP JUMPDEST PUSH1 0x0 PUSH1 0x40 DUP3 ADD SWAP1 POP PUSH2 0x566 PUSH1 0x0 DUP4 ADD DUP6 PUSH2 0x31B JUMP JUMPDEST PUSH2 0x573 PUSH1 0x20 DUP4 ADD DUP5 PUSH2 0x351 JUMP JUMPDEST SWAP4 SWAP3 POP POP POP JUMP JUMPDEST PUSH32 0x4E487B7100000000000000000000000000000000000000000000000000000000 PUSH1 0x0 MSTORE PUSH1 0x11 PUSH1 0x4 MSTORE PUSH1 0x24 PUSH1 0x0 REVERT JUMPDEST PUSH1 0x0 PUSH2 0x5B4 DUP3 PUSH2 0x311 JUMP JUMPDEST SWAP2 POP PUSH2 0x5BF DUP4 PUSH2 0x311 JUMP JUMPDEST SWAP3 POP DUP3 PUSH32 0xFFFFFFFFFFFFFFFFFFFFFFFFFFFFFFFFFFFFFFFFFFFFFFFFFFFFFFFFFFFFFFFF SUB DUP3 GT ISZERO PUSH2 0x5F4 JUMPI PUSH2 0x5F3 PUSH2 0x57A JUMP JUMPDEST JUMPDEST DUP3 DUP3 ADD SWAP1 POP SWAP3 SWAP2 POP POP JUMP JUMPDEST PUSH1 0x0 DUP2 MLOAD SWAP1 POP PUSH2 0x60E DUP2 PUSH2 0x3A1 JUMP JUMPDEST SWAP3 SWAP2 POP POP JUMP JUMPDEST PUSH2 0x61D DUP2 PUSH2 0x345 JUMP JUMPDEST DUP2 EQ PUSH2 0x628 JUMPI PUSH1 0x0 DUP1 REVERT JUMPDEST POP JUMP JUMPDEST PUSH1 0x0 DUP2 MLOAD SWAP1 POP PUSH2 0x63A DUP2 PUSH2 0x614 JUMP JUMPDEST SWAP3 SWAP2 POP POP JUMP JUMPDEST PUSH1 0x0 DUP1 PUSH1 0x0 PUSH1 0x60 DUP5 DUP7 SUB SLT ISZERO PUSH2 0x659 JUMPI PUSH2 0x658 PUSH2 0x397 JUMP JUMPDEST JUMPDEST PUSH1 0x0 PUSH2 0x667 DUP7 DUP3 DUP8 ADD PUSH2 0x5FF JUMP JUMPDEST SWAP4 POP POP PUSH1 0x20 PUSH2 0x678 DUP7 DUP3 DUP8 ADD PUSH2 0x5FF JUMP JUMPDEST SWAP3 POP POP PUSH1 0x40 PUSH2 0x689 DUP7 DUP3 DUP8 ADD PUSH2 0x62B JUMP JUMPDEST SWAP2 POP POP SWAP3 POP SWAP3 POP SWAP3 JUMP INVALID LOG2 PUSH5 0x6970667358 0x22 SLT KECCAK256 0xD0 PUSH7 0x6A48934050BF4B 0x4E 0x28 OR GASPRICE 0xD2 DUP8 XOR 0xE7 0xA9 ADDMOD PUSH7 0x70BC88AE73F25C DUP7 PUSH8 0xA3C5F64736F6C63 NUMBER STOP ADDMOD MULMOD STOP CALLER "
				},
				"gasEstimates": {
					"creation": {
						"codeDepositCost": "347400",
						"executionCost": "5392",
						"totalCost": "352792"
					},
					"external": {
						"addExternal()": "infinite",
						"addPayable()": "381",
						"addPure(uint256)": "infinite",
						"addView()": "infinite",
						"f(uint256[])": "infinite",
						"fnReturn()": "infinite",
						"fnReturn2()": "infinite",
						"number()": "2451"
					},
					"internal": {
						"addInternal()": "infinite"
					}
				},
				"methodIdentifiers": {
					"addExternal()": "4f5c05c7",
					"addPayable()": "f611bfed",
					"addPure(uint256)": "7032c4f2",
					"addView()": "b262eb7f",
					"f(uint256[])": "7bc5bbbf",
					"fnReturn()": "64e94cc6",
					"fnReturn2()": "7dcdc261",
					"number()": "8381f58a"
				}
			},
			"storageLayout": {
				"storage": [
					{
						"astId": 4,
						"contract": "contracts/03FunctionTypes.sol:FunctionTypes",
						"label": "number",
						"offset": 0,
						"slot": "0",
						"type": "t_uint256"
					}
				],
				"types": {
					"t_uint256": {
						"encoding": "inplace",
						"label": "uint256",
						"numberOfBytes": "32"
					}
				}
			},
			"userdoc": {
				"kind": "user",
				"methods": {},
				"version": 1
			}
		}
	}
}