{
	"contracts/03FunctionTypes.sol": {
		"FunctionTypes": {
			"abi": [
				{
					"inputs": [],
					"name": "addExternal",
					"outputs": [
						{
							"internalType": "uint256",
							"name": "new_number",
							"type": "uint256"
						}
					],
					"stateMutability": "nonpayable",
					"type": "function"
				},
				{
					"inputs": [],
					"name": "addPayable",
					"outputs": [
						{
							"internalType": "uint256",
							"name": "balance",
							"type": "uint256"
						}
					],
					"stateMutability": "payable",
					"type": "function"
				},
				{
					"inputs": [
						{
							"internalType": "uint256",
							"name": "_number",
							"type": "uint256"
						}
					],
					"name": "addPure",
					"outputs": [
						{
							"internalType": "uint256",
							"name": "new_number",
							"type": "uint256"
						}
					],
					"stateMutability": "pure",
					"type": "function"
				},
				{
					"inputs": [],
					"name": "addView",
					"outputs": [
						{
							"internalType": "uint256",
							"name": "new_number",
							"type": "uint256"
						}
					],
					"stateMutability": "view",
					"type": "function"
				},
				{
					"inputs": [],
					"name": "fnReturn",
					"outputs": [
						{
							"internalType": "uint256",
							"name": "",
							"type": "uint256"
						},
						{
							"internalType": "uint256",
							"name": "",
							"type": "uint256"
						},
						{
							"internalType": "bool",
							"name": "boo",
							"type": "bool"
						}
					],
					"stateMutability": "pure",
					"type": "function"
				},
				{
					"inputs": [],
					"name": "fnReturn2",
					"outputs": [
						{
							"internalType": "uint256",
							"name": "",
							"type": "uint256"
						},
						{
							"internalType": "bool",
							"name": "",
							"type": "bool"
						}
					],
					"stateMutability": "view",
					"type": "function"
				},
				{
					"inputs": [],
					"name": "number",
					"outputs": [
						{
							"internalType": "uint256",
							"name": "",
							"type": "uint256"
						}
					],
					"stateMutability": "view",
					"type": "function"
				}
			],
			"devdoc": {
				"kind": "dev",
				"methods": {},
				"version": 1
			},
			"evm": {
				"assembly": "    /* \"contracts/03FunctionTypes.sol\":1426:3958  contract FunctionTypes {... */\n  mstore(0x40, 0x80)\n    /* \"contracts/03FunctionTypes.sol\":1479:1480  0 */\n  0x00\n    /* \"contracts/03FunctionTypes.sol\":1455:1480  uint256 public number = 0 */\n  dup1\n  sstore\n    /* \"contracts/03FunctionTypes.sol\":1426:3958  contract FunctionTypes {... */\n  callvalue\n  dup1\n  iszero\n  tag_1\n  jumpi\n  0x00\n  dup1\n  revert\ntag_1:\n  pop\n  dataSize(sub_0)\n  dup1\n  dataOffset(sub_0)\n  0x00\n  codecopy\n  0x00\n  return\nstop\n\nsub_0: assembly {\n        /* \"contracts/03FunctionTypes.sol\":1426:3958  contract FunctionTypes {... */\n      mstore(0x40, 0x80)\n      jumpi(tag_1, lt(calldatasize, 0x04))\n      shr(0xe0, calldataload(0x00))\n      dup1\n      0x7dcdc261\n      gt\n      tag_9\n      jumpi\n      dup1\n      0x7dcdc261\n      eq\n      tag_5\n      jumpi\n      dup1\n      0x8381f58a\n      eq\n      tag_6\n      jumpi\n      dup1\n      0xb262eb7f\n      eq\n      tag_7\n      jumpi\n      dup1\n      0xf611bfed\n      eq\n      tag_8\n      jumpi\n      jump(tag_1)\n    tag_9:\n      dup1\n      0x4f5c05c7\n      eq\n      tag_2\n      jumpi\n      dup1\n      0x64e94cc6\n      eq\n      tag_3\n      jumpi\n      dup1\n      0x7032c4f2\n      eq\n      tag_4\n      jumpi\n    tag_1:\n      0x00\n      dup1\n      revert\n        /* \"contracts/03FunctionTypes.sol\":2306:2424  function addExternal() external returns(uint256 new_number){... */\n    tag_2:\n      callvalue\n      dup1\n      iszero\n      tag_10\n      jumpi\n      0x00\n      dup1\n      revert\n    tag_10:\n      pop\n      tag_11\n      tag_12\n      jump\t// in\n    tag_11:\n      mload(0x40)\n      tag_13\n      swap2\n      swap1\n      tag_14\n      jump\t// in\n    tag_13:\n      mload(0x40)\n      dup1\n      swap2\n      sub\n      swap1\n      return\n        /* \"contracts/03FunctionTypes.sol\":3691:3800  function fnReturn() external pure returns(uint256, uint256, bool boo){... */\n    tag_3:\n      callvalue\n      dup1\n      iszero\n      tag_15\n      jumpi\n      0x00\n      dup1\n      revert\n    tag_15:\n      pop\n      tag_16\n      tag_17\n      jump\t// in\n    tag_16:\n      mload(0x40)\n      tag_18\n      swap4\n      swap3\n      swap2\n      swap1\n      tag_19\n      jump\t// in\n    tag_18:\n      mload(0x40)\n      dup1\n      swap2\n      sub\n      swap1\n      return\n        /* \"contracts/03FunctionTypes.sol\":1532:1646  function addPure(uint256 _number) external pure returns(uint256 new_number){... */\n    tag_4:\n      callvalue\n      dup1\n      iszero\n      tag_20\n      jumpi\n      0x00\n      dup1\n      revert\n    tag_20:\n      pop\n      tag_21\n      0x04\n      dup1\n      calldatasize\n      sub\n      dup2\n      add\n      swap1\n      tag_22\n      swap2\n      swap1\n      tag_23\n      jump\t// in\n    tag_22:\n      tag_24\n      jump\t// in\n    tag_21:\n      mload(0x40)\n      tag_25\n      swap2\n      swap1\n      tag_14\n      jump\t// in\n    tag_25:\n      mload(0x40)\n      dup1\n      swap2\n      sub\n      swap1\n      return\n        /* \"contracts/03FunctionTypes.sol\":3806:3955  function fnReturn2() external view returns(uint256, bool){... */\n    tag_5:\n      callvalue\n      dup1\n      iszero\n      tag_26\n      jumpi\n      0x00\n      dup1\n      revert\n    tag_26:\n      pop\n      tag_27\n      tag_28\n      jump\t// in\n    tag_27:\n      mload(0x40)\n      tag_29\n      swap3\n      swap2\n      swap1\n      tag_30\n      jump\t// in\n    tag_29:\n      mload(0x40)\n      dup1\n      swap2\n      sub\n      swap1\n      return\n        /* \"contracts/03FunctionTypes.sol\":1455:1480  uint256 public number = 0 */\n    tag_6:\n      callvalue\n      dup1\n      iszero\n      tag_31\n      jumpi\n      0x00\n      dup1\n      revert\n    tag_31:\n      pop\n      tag_32\n      tag_33\n      jump\t// in\n    tag_32:\n      mload(0x40)\n      tag_34\n      swap2\n      swap1\n      tag_14\n      jump\t// in\n    tag_34:\n      mload(0x40)\n      dup1\n      swap2\n      sub\n      swap1\n      return\n        /* \"contracts/03FunctionTypes.sol\":1709:1809  function addView() external view returns(uint256 new_number){... */\n    tag_7:\n      callvalue\n      dup1\n      iszero\n      tag_35\n      jumpi\n      0x00\n      dup1\n      revert\n    tag_35:\n      pop\n      tag_36\n      tag_37\n      jump\t// in\n    tag_36:\n      mload(0x40)\n      tag_38\n      swap2\n      swap1\n      tag_14\n      jump\t// in\n    tag_38:\n      mload(0x40)\n      dup1\n      swap2\n      sub\n      swap1\n      return\n        /* \"contracts/03FunctionTypes.sol\":2734:2845  function addPayable() external payable returns(uint256 balance){... */\n    tag_8:\n      tag_39\n      tag_40\n      jump\t// in\n    tag_39:\n      mload(0x40)\n      tag_41\n      swap2\n      swap1\n      tag_14\n      jump\t// in\n    tag_41:\n      mload(0x40)\n      dup1\n      swap2\n      sub\n      swap1\n      return\n        /* \"contracts/03FunctionTypes.sol\":2306:2424  function addExternal() external returns(uint256 new_number){... */\n    tag_12:\n        /* \"contracts/03FunctionTypes.sol\":2346:2364  uint256 new_number */\n      0x00\n        /* \"contracts/03FunctionTypes.sol\":2375:2388  addInternal() */\n      tag_43\n        /* \"contracts/03FunctionTypes.sol\":2375:2386  addInternal */\n      tag_44\n        /* \"contracts/03FunctionTypes.sol\":2375:2388  addInternal() */\n      jump\t// in\n    tag_43:\n        /* \"contracts/03FunctionTypes.sol\":2411:2417  number */\n      sload(0x00)\n        /* \"contracts/03FunctionTypes.sol\":2398:2417  new_number = number */\n      swap1\n      pop\n        /* \"contracts/03FunctionTypes.sol\":2306:2424  function addExternal() external returns(uint256 new_number){... */\n      swap1\n      jump\t// out\n        /* \"contracts/03FunctionTypes.sol\":3691:3800  function fnReturn() external pure returns(uint256, uint256, bool boo){... */\n    tag_17:\n        /* \"contracts/03FunctionTypes.sol\":3733:3740  uint256 */\n      0x00\n        /* \"contracts/03FunctionTypes.sol\":3742:3749  uint256 */\n      dup1\n        /* \"contracts/03FunctionTypes.sol\":3751:3759  bool boo */\n      0x00\n        /* \"contracts/03FunctionTypes.sol\":3778:3781  111 */\n      0x6f\n        /* \"contracts/03FunctionTypes.sol\":3783:3786  222 */\n      0xde\n        /* \"contracts/03FunctionTypes.sol\":3788:3792  true */\n      0x01\n        /* \"contracts/03FunctionTypes.sol\":3770:3793  return (111, 222, true) */\n      swap3\n      pop\n      swap3\n      pop\n      swap3\n      pop\n        /* \"contracts/03FunctionTypes.sol\":3691:3800  function fnReturn() external pure returns(uint256, uint256, bool boo){... */\n      swap1\n      swap2\n      swap3\n      jump\t// out\n        /* \"contracts/03FunctionTypes.sol\":1532:1646  function addPure(uint256 _number) external pure returns(uint256 new_number){... */\n    tag_24:\n        /* \"contracts/03FunctionTypes.sol\":1588:1606  uint256 new_number */\n      0x00\n        /* \"contracts/03FunctionTypes.sol\":1638:1639  1 */\n      0x01\n        /* \"contracts/03FunctionTypes.sol\":1630:1637  _number */\n      dup3\n        /* \"contracts/03FunctionTypes.sol\":1630:1639  _number+1 */\n      tag_47\n      swap2\n      swap1\n      tag_48\n      jump\t// in\n    tag_47:\n        /* \"contracts/03FunctionTypes.sol\":1617:1639  new_number = _number+1 */\n      swap1\n      pop\n        /* \"contracts/03FunctionTypes.sol\":1532:1646  function addPure(uint256 _number) external pure returns(uint256 new_number){... */\n      swap2\n      swap1\n      pop\n      jump\t// out\n        /* \"contracts/03FunctionTypes.sol\":3806:3955  function fnReturn2() external view returns(uint256, bool){... */\n    tag_28:\n        /* \"contracts/03FunctionTypes.sol\":3849:3856  uint256 */\n      0x00\n        /* \"contracts/03FunctionTypes.sol\":3858:3862  bool */\n      dup1\n        /* \"contracts/03FunctionTypes.sol\":3874:3888  uint256 value1 */\n      0x00\n        /* \"contracts/03FunctionTypes.sol\":3891:3899  bool boo */\n      dup1\n        /* \"contracts/03FunctionTypes.sol\":3903:3907  this */\n      address\n        /* \"contracts/03FunctionTypes.sol\":3903:3916  this.fnReturn */\n      0xffffffffffffffffffffffffffffffffffffffff\n      and\n      0x64e94cc6\n        /* \"contracts/03FunctionTypes.sol\":3903:3918  this.fnReturn() */\n      mload(0x40)\n      dup2\n      0xffffffff\n      and\n      0xe0\n      shl\n      dup2\n      mstore\n      0x04\n      add\n      0x60\n      mload(0x40)\n      dup1\n      dup4\n      sub\n      dup2\n      dup7\n      dup1\n      extcodesize\n      iszero\n      dup1\n      iszero\n      tag_50\n      jumpi\n      0x00\n      dup1\n      revert\n    tag_50:\n      pop\n      gas\n      staticcall\n      iszero\n      dup1\n      iszero\n      tag_52\n      jumpi\n      returndatasize\n      0x00\n      dup1\n      returndatacopy\n      revert(0x00, returndatasize)\n    tag_52:\n      pop\n      pop\n      pop\n      pop\n      mload(0x40)\n      returndatasize\n      not(0x1f)\n      0x1f\n      dup3\n      add\n      and\n      dup3\n      add\n      dup1\n      0x40\n      mstore\n      pop\n      dup2\n      add\n      swap1\n      tag_53\n      swap2\n      swap1\n      tag_54\n      jump\t// in\n    tag_53:\n        /* \"contracts/03FunctionTypes.sol\":3873:3918  (uint256 value1, ,bool boo) = this.fnReturn() */\n      swap3\n      pop\n      pop\n      swap2\n      pop\n        /* \"contracts/03FunctionTypes.sol\":3936:3942  value1 */\n      dup2\n        /* \"contracts/03FunctionTypes.sol\":3944:3947  boo */\n      dup2\n        /* \"contracts/03FunctionTypes.sol\":3928:3948  return (value1, boo) */\n      swap4\n      pop\n      swap4\n      pop\n      pop\n      pop\n        /* \"contracts/03FunctionTypes.sol\":3806:3955  function fnReturn2() external view returns(uint256, bool){... */\n      swap1\n      swap2\n      jump\t// out\n        /* \"contracts/03FunctionTypes.sol\":1455:1480  uint256 public number = 0 */\n    tag_33:\n      sload(0x00)\n      dup2\n      jump\t// out\n        /* \"contracts/03FunctionTypes.sol\":1709:1809  function addView() external view returns(uint256 new_number){... */\n    tag_37:\n        /* \"contracts/03FunctionTypes.sol\":1750:1768  uint256 new_number */\n      0x00\n        /* \"contracts/03FunctionTypes.sol\":1801:1802  1 */\n      0x01\n        /* \"contracts/03FunctionTypes.sol\":1792:1798  number */\n      sload(0x00)\n        /* \"contracts/03FunctionTypes.sol\":1792:1802  number + 1 */\n      tag_56\n      swap2\n      swap1\n      tag_48\n      jump\t// in\n    tag_56:\n        /* \"contracts/03FunctionTypes.sol\":1779:1802  new_number = number + 1 */\n      swap1\n      pop\n        /* \"contracts/03FunctionTypes.sol\":1709:1809  function addView() external view returns(uint256 new_number){... */\n      swap1\n      jump\t// out\n        /* \"contracts/03FunctionTypes.sol\":2734:2845  function addPayable() external payable returns(uint256 balance){... */\n    tag_40:\n        /* \"contracts/03FunctionTypes.sol\":2781:2796  uint256 balance */\n      0x00\n        /* \"contracts/03FunctionTypes.sol\":2817:2838  address(this).balance */\n      selfbalance\n        /* \"contracts/03FunctionTypes.sol\":2807:2838  balance = address(this).balance */\n      swap1\n      pop\n        /* \"contracts/03FunctionTypes.sol\":2734:2845  function addPayable() external payable returns(uint256 balance){... */\n      swap1\n      jump\t// out\n        /* \"contracts/03FunctionTypes.sol\":1990:2057  function addInternal() internal{... */\n    tag_44:\n        /* \"contracts/03FunctionTypes.sol\":2049:2050  1 */\n      0x01\n        /* \"contracts/03FunctionTypes.sol\":2040:2046  number */\n      sload(0x00)\n        /* \"contracts/03FunctionTypes.sol\":2040:2050  number + 1 */\n      tag_59\n      swap2\n      swap1\n      tag_48\n      jump\t// in\n    tag_59:\n        /* \"contracts/03FunctionTypes.sol\":2031:2037  number */\n      0x00\n        /* \"contracts/03FunctionTypes.sol\":2031:2050  number = number + 1 */\n      dup2\n      swap1\n      sstore\n      pop\n        /* \"contracts/03FunctionTypes.sol\":1990:2057  function addInternal() internal{... */\n      jump\t// out\n        /* \"#utility.yul\":7:84   */\n    tag_60:\n        /* \"#utility.yul\":44:51   */\n      0x00\n        /* \"#utility.yul\":73:78   */\n      dup2\n        /* \"#utility.yul\":62:78   */\n      swap1\n      pop\n        /* \"#utility.yul\":7:84   */\n      swap2\n      swap1\n      pop\n      jump\t// out\n        /* \"#utility.yul\":90:208   */\n    tag_61:\n        /* \"#utility.yul\":177:201   */\n      tag_76\n        /* \"#utility.yul\":195:200   */\n      dup2\n        /* \"#utility.yul\":177:201   */\n      tag_60\n      jump\t// in\n    tag_76:\n        /* \"#utility.yul\":172:175   */\n      dup3\n        /* \"#utility.yul\":165:202   */\n      mstore\n        /* \"#utility.yul\":90:208   */\n      pop\n      pop\n      jump\t// out\n        /* \"#utility.yul\":214:436   */\n    tag_14:\n        /* \"#utility.yul\":307:311   */\n      0x00\n        /* \"#utility.yul\":345:347   */\n      0x20\n        /* \"#utility.yul\":334:343   */\n      dup3\n        /* \"#utility.yul\":330:348   */\n      add\n        /* \"#utility.yul\":322:348   */\n      swap1\n      pop\n        /* \"#utility.yul\":358:429   */\n      tag_78\n        /* \"#utility.yul\":426:427   */\n      0x00\n        /* \"#utility.yul\":415:424   */\n      dup4\n        /* \"#utility.yul\":411:428   */\n      add\n        /* \"#utility.yul\":402:408   */\n      dup5\n        /* \"#utility.yul\":358:429   */\n      tag_61\n      jump\t// in\n    tag_78:\n        /* \"#utility.yul\":214:436   */\n      swap3\n      swap2\n      pop\n      pop\n      jump\t// out\n        /* \"#utility.yul\":442:532   */\n    tag_62:\n        /* \"#utility.yul\":476:483   */\n      0x00\n        /* \"#utility.yul\":519:524   */\n      dup2\n        /* \"#utility.yul\":512:525   */\n      iszero\n        /* \"#utility.yul\":505:526   */\n      iszero\n        /* \"#utility.yul\":494:526   */\n      swap1\n      pop\n        /* \"#utility.yul\":442:532   */\n      swap2\n      swap1\n      pop\n      jump\t// out\n        /* \"#utility.yul\":538:647   */\n    tag_63:\n        /* \"#utility.yul\":619:640   */\n      tag_81\n        /* \"#utility.yul\":634:639   */\n      dup2\n        /* \"#utility.yul\":619:640   */\n      tag_62\n      jump\t// in\n    tag_81:\n        /* \"#utility.yul\":614:617   */\n      dup3\n        /* \"#utility.yul\":607:641   */\n      mstore\n        /* \"#utility.yul\":538:647   */\n      pop\n      pop\n      jump\t// out\n        /* \"#utility.yul\":653:1083   */\n    tag_19:\n        /* \"#utility.yul\":796:800   */\n      0x00\n        /* \"#utility.yul\":834:836   */\n      0x60\n        /* \"#utility.yul\":823:832   */\n      dup3\n        /* \"#utility.yul\":819:837   */\n      add\n        /* \"#utility.yul\":811:837   */\n      swap1\n      pop\n        /* \"#utility.yul\":847:918   */\n      tag_83\n        /* \"#utility.yul\":915:916   */\n      0x00\n        /* \"#utility.yul\":904:913   */\n      dup4\n        /* \"#utility.yul\":900:917   */\n      add\n        /* \"#utility.yul\":891:897   */\n      dup7\n        /* \"#utility.yul\":847:918   */\n      tag_61\n      jump\t// in\n    tag_83:\n        /* \"#utility.yul\":928:1000   */\n      tag_84\n        /* \"#utility.yul\":996:998   */\n      0x20\n        /* \"#utility.yul\":985:994   */\n      dup4\n        /* \"#utility.yul\":981:999   */\n      add\n        /* \"#utility.yul\":972:978   */\n      dup6\n        /* \"#utility.yul\":928:1000   */\n      tag_61\n      jump\t// in\n    tag_84:\n        /* \"#utility.yul\":1010:1076   */\n      tag_85\n        /* \"#utility.yul\":1072:1074   */\n      0x40\n        /* \"#utility.yul\":1061:1070   */\n      dup4\n        /* \"#utility.yul\":1057:1075   */\n      add\n        /* \"#utility.yul\":1048:1054   */\n      dup5\n        /* \"#utility.yul\":1010:1076   */\n      tag_63\n      jump\t// in\n    tag_85:\n        /* \"#utility.yul\":653:1083   */\n      swap5\n      swap4\n      pop\n      pop\n      pop\n      pop\n      jump\t// out\n        /* \"#utility.yul\":1170:1287   */\n    tag_65:\n        /* \"#utility.yul\":1279:1280   */\n      0x00\n        /* \"#utility.yul\":1276:1277   */\n      dup1\n        /* \"#utility.yul\":1269:1281   */\n      revert\n        /* \"#utility.yul\":1416:1538   */\n    tag_67:\n        /* \"#utility.yul\":1489:1513   */\n      tag_90\n        /* \"#utility.yul\":1507:1512   */\n      dup2\n        /* \"#utility.yul\":1489:1513   */\n      tag_60\n      jump\t// in\n    tag_90:\n        /* \"#utility.yul\":1482:1487   */\n      dup2\n        /* \"#utility.yul\":1479:1514   */\n      eq\n        /* \"#utility.yul\":1469:1532   */\n      tag_91\n      jumpi\n        /* \"#utility.yul\":1528:1529   */\n      0x00\n        /* \"#utility.yul\":1525:1526   */\n      dup1\n        /* \"#utility.yul\":1518:1530   */\n      revert\n        /* \"#utility.yul\":1469:1532   */\n    tag_91:\n        /* \"#utility.yul\":1416:1538   */\n      pop\n      jump\t// out\n        /* \"#utility.yul\":1544:1683   */\n    tag_68:\n        /* \"#utility.yul\":1590:1595   */\n      0x00\n        /* \"#utility.yul\":1628:1634   */\n      dup2\n        /* \"#utility.yul\":1615:1635   */\n      calldataload\n        /* \"#utility.yul\":1606:1635   */\n      swap1\n      pop\n        /* \"#utility.yul\":1644:1677   */\n      tag_93\n        /* \"#utility.yul\":1671:1676   */\n      dup2\n        /* \"#utility.yul\":1644:1677   */\n      tag_67\n      jump\t// in\n    tag_93:\n        /* \"#utility.yul\":1544:1683   */\n      swap3\n      swap2\n      pop\n      pop\n      jump\t// out\n        /* \"#utility.yul\":1689:2018   */\n    tag_23:\n        /* \"#utility.yul\":1748:1754   */\n      0x00\n        /* \"#utility.yul\":1797:1799   */\n      0x20\n        /* \"#utility.yul\":1785:1794   */\n      dup3\n        /* \"#utility.yul\":1776:1783   */\n      dup5\n        /* \"#utility.yul\":1772:1795   */\n      sub\n        /* \"#utility.yul\":1768:1800   */\n      slt\n        /* \"#utility.yul\":1765:1884   */\n      iszero\n      tag_95\n      jumpi\n        /* \"#utility.yul\":1803:1882   */\n      tag_96\n      tag_65\n      jump\t// in\n    tag_96:\n        /* \"#utility.yul\":1765:1884   */\n    tag_95:\n        /* \"#utility.yul\":1923:1924   */\n      0x00\n        /* \"#utility.yul\":1948:2001   */\n      tag_97\n        /* \"#utility.yul\":1993:2000   */\n      dup5\n        /* \"#utility.yul\":1984:1990   */\n      dup3\n        /* \"#utility.yul\":1973:1982   */\n      dup6\n        /* \"#utility.yul\":1969:1991   */\n      add\n        /* \"#utility.yul\":1948:2001   */\n      tag_68\n      jump\t// in\n    tag_97:\n        /* \"#utility.yul\":1938:2001   */\n      swap2\n      pop\n        /* \"#utility.yul\":1894:2011   */\n      pop\n        /* \"#utility.yul\":1689:2018   */\n      swap3\n      swap2\n      pop\n      pop\n      jump\t// out\n        /* \"#utility.yul\":2024:2344   */\n    tag_30:\n        /* \"#utility.yul\":2139:2143   */\n      0x00\n        /* \"#utility.yul\":2177:2179   */\n      0x40\n        /* \"#utility.yul\":2166:2175   */\n      dup3\n        /* \"#utility.yul\":2162:2180   */\n      add\n        /* \"#utility.yul\":2154:2180   */\n      swap1\n      pop\n        /* \"#utility.yul\":2190:2261   */\n      tag_99\n        /* \"#utility.yul\":2258:2259   */\n      0x00\n        /* \"#utility.yul\":2247:2256   */\n      dup4\n        /* \"#utility.yul\":2243:2260   */\n      add\n        /* \"#utility.yul\":2234:2240   */\n      dup6\n        /* \"#utility.yul\":2190:2261   */\n      tag_61\n      jump\t// in\n    tag_99:\n        /* \"#utility.yul\":2271:2337   */\n      tag_100\n        /* \"#utility.yul\":2333:2335   */\n      0x20\n        /* \"#utility.yul\":2322:2331   */\n      dup4\n        /* \"#utility.yul\":2318:2336   */\n      add\n        /* \"#utility.yul\":2309:2315   */\n      dup5\n        /* \"#utility.yul\":2271:2337   */\n      tag_63\n      jump\t// in\n    tag_100:\n        /* \"#utility.yul\":2024:2344   */\n      swap4\n      swap3\n      pop\n      pop\n      pop\n      jump\t// out\n        /* \"#utility.yul\":2350:2530   */\n    tag_69:\n        /* \"#utility.yul\":2398:2475   */\n      0x4e487b7100000000000000000000000000000000000000000000000000000000\n        /* \"#utility.yul\":2395:2396   */\n      0x00\n        /* \"#utility.yul\":2388:2476   */\n      mstore\n        /* \"#utility.yul\":2495:2499   */\n      0x11\n        /* \"#utility.yul\":2492:2493   */\n      0x04\n        /* \"#utility.yul\":2485:2500   */\n      mstore\n        /* \"#utility.yul\":2519:2523   */\n      0x24\n        /* \"#utility.yul\":2516:2517   */\n      0x00\n        /* \"#utility.yul\":2509:2524   */\n      revert\n        /* \"#utility.yul\":2536:2841   */\n    tag_48:\n        /* \"#utility.yul\":2576:2579   */\n      0x00\n        /* \"#utility.yul\":2595:2615   */\n      tag_103\n        /* \"#utility.yul\":2613:2614   */\n      dup3\n        /* \"#utility.yul\":2595:2615   */\n      tag_60\n      jump\t// in\n    tag_103:\n        /* \"#utility.yul\":2590:2615   */\n      swap2\n      pop\n        /* \"#utility.yul\":2629:2649   */\n      tag_104\n        /* \"#utility.yul\":2647:2648   */\n      dup4\n        /* \"#utility.yul\":2629:2649   */\n      tag_60\n      jump\t// in\n    tag_104:\n        /* \"#utility.yul\":2624:2649   */\n      swap3\n      pop\n        /* \"#utility.yul\":2783:2784   */\n      dup3\n        /* \"#utility.yul\":2715:2781   */\n      0xffffffffffffffffffffffffffffffffffffffffffffffffffffffffffffffff\n        /* \"#utility.yul\":2711:2785   */\n      sub\n        /* \"#utility.yul\":2708:2709   */\n      dup3\n        /* \"#utility.yul\":2705:2786   */\n      gt\n        /* \"#utility.yul\":2702:2809   */\n      iszero\n      tag_105\n      jumpi\n        /* \"#utility.yul\":2789:2807   */\n      tag_106\n      tag_69\n      jump\t// in\n    tag_106:\n        /* \"#utility.yul\":2702:2809   */\n    tag_105:\n        /* \"#utility.yul\":2833:2834   */\n      dup3\n        /* \"#utility.yul\":2830:2831   */\n      dup3\n        /* \"#utility.yul\":2826:2835   */\n      add\n        /* \"#utility.yul\":2819:2835   */\n      swap1\n      pop\n        /* \"#utility.yul\":2536:2841   */\n      swap3\n      swap2\n      pop\n      pop\n      jump\t// out\n        /* \"#utility.yul\":2847:2990   */\n    tag_70:\n        /* \"#utility.yul\":2904:2909   */\n      0x00\n        /* \"#utility.yul\":2935:2941   */\n      dup2\n        /* \"#utility.yul\":2929:2942   */\n      mload\n        /* \"#utility.yul\":2920:2942   */\n      swap1\n      pop\n        /* \"#utility.yul\":2951:2984   */\n      tag_108\n        /* \"#utility.yul\":2978:2983   */\n      dup2\n        /* \"#utility.yul\":2951:2984   */\n      tag_67\n      jump\t// in\n    tag_108:\n        /* \"#utility.yul\":2847:2990   */\n      swap3\n      swap2\n      pop\n      pop\n      jump\t// out\n        /* \"#utility.yul\":2996:3112   */\n    tag_71:\n        /* \"#utility.yul\":3066:3087   */\n      tag_110\n        /* \"#utility.yul\":3081:3086   */\n      dup2\n        /* \"#utility.yul\":3066:3087   */\n      tag_62\n      jump\t// in\n    tag_110:\n        /* \"#utility.yul\":3059:3064   */\n      dup2\n        /* \"#utility.yul\":3056:3088   */\n      eq\n        /* \"#utility.yul\":3046:3106   */\n      tag_111\n      jumpi\n        /* \"#utility.yul\":3102:3103   */\n      0x00\n        /* \"#utility.yul\":3099:3100   */\n      dup1\n        /* \"#utility.yul\":3092:3104   */\n      revert\n        /* \"#utility.yul\":3046:3106   */\n    tag_111:\n        /* \"#utility.yul\":2996:3112   */\n      pop\n      jump\t// out\n        /* \"#utility.yul\":3118:3255   */\n    tag_72:\n        /* \"#utility.yul\":3172:3177   */\n      0x00\n        /* \"#utility.yul\":3203:3209   */\n      dup2\n        /* \"#utility.yul\":3197:3210   */\n      mload\n        /* \"#utility.yul\":3188:3210   */\n      swap1\n      pop\n        /* \"#utility.yul\":3219:3249   */\n      tag_113\n        /* \"#utility.yul\":3243:3248   */\n      dup2\n        /* \"#utility.yul\":3219:3249   */\n      tag_71\n      jump\t// in\n    tag_113:\n        /* \"#utility.yul\":3118:3255   */\n      swap3\n      swap2\n      pop\n      pop\n      jump\t// out\n        /* \"#utility.yul\":3261:3918   */\n    tag_54:\n        /* \"#utility.yul\":3346:3352   */\n      0x00\n        /* \"#utility.yul\":3354:3360   */\n      dup1\n        /* \"#utility.yul\":3362:3368   */\n      0x00\n        /* \"#utility.yul\":3411:3413   */\n      0x60\n        /* \"#utility.yul\":3399:3408   */\n      dup5\n        /* \"#utility.yul\":3390:3397   */\n      dup7\n        /* \"#utility.yul\":3386:3409   */\n      sub\n        /* \"#utility.yul\":3382:3414   */\n      slt\n        /* \"#utility.yul\":3379:3498   */\n      iszero\n      tag_115\n      jumpi\n        /* \"#utility.yul\":3417:3496   */\n      tag_116\n      tag_65\n      jump\t// in\n    tag_116:\n        /* \"#utility.yul\":3379:3498   */\n    tag_115:\n        /* \"#utility.yul\":3537:3538   */\n      0x00\n        /* \"#utility.yul\":3562:3626   */\n      tag_117\n        /* \"#utility.yul\":3618:3625   */\n      dup7\n        /* \"#utility.yul\":3609:3615   */\n      dup3\n        /* \"#utility.yul\":3598:3607   */\n      dup8\n        /* \"#utility.yul\":3594:3616   */\n      add\n        /* \"#utility.yul\":3562:3626   */\n      tag_70\n      jump\t// in\n    tag_117:\n        /* \"#utility.yul\":3552:3626   */\n      swap4\n      pop\n        /* \"#utility.yul\":3508:3636   */\n      pop\n        /* \"#utility.yul\":3675:3677   */\n      0x20\n        /* \"#utility.yul\":3701:3765   */\n      tag_118\n        /* \"#utility.yul\":3757:3764   */\n      dup7\n        /* \"#utility.yul\":3748:3754   */\n      dup3\n        /* \"#utility.yul\":3737:3746   */\n      dup8\n        /* \"#utility.yul\":3733:3755   */\n      add\n        /* \"#utility.yul\":3701:3765   */\n      tag_70\n      jump\t// in\n    tag_118:\n        /* \"#utility.yul\":3691:3765   */\n      swap3\n      pop\n        /* \"#utility.yul\":3646:3775   */\n      pop\n        /* \"#utility.yul\":3814:3816   */\n      0x40\n        /* \"#utility.yul\":3840:3901   */\n      tag_119\n        /* \"#utility.yul\":3893:3900   */\n      dup7\n        /* \"#utility.yul\":3884:3890   */\n      dup3\n        /* \"#utility.yul\":3873:3882   */\n      dup8\n        /* \"#utility.yul\":3869:3891   */\n      add\n        /* \"#utility.yul\":3840:3901   */\n      tag_72\n      jump\t// in\n    tag_119:\n        /* \"#utility.yul\":3830:3901   */\n      swap2\n      pop\n        /* \"#utility.yul\":3785:3911   */\n      pop\n        /* \"#utility.yul\":3261:3918   */\n      swap3\n      pop\n      swap3\n      pop\n      swap3\n      jump\t// out\n\n    auxdata: 0xa2646970667358221220682cb6ceb7267b3f243a1e1c3e581e5f3d6959e4e9ac78b9f42e26fd8bc5c4ed64736f6c63430008090033\n}\n",
				"bytecode": {
					"linkReferences": {},
					"object": "60806040526000805534801561001457600080fd5b50610514806100246000396000f3fe6080604052600436106100705760003560e01c80637dcdc2611161004e5780637dcdc2611461010a5780638381f58a14610136578063b262eb7f14610161578063f611bfed1461018c57610070565b80634f5c05c71461007557806364e94cc6146100a05780637032c4f2146100cd575b600080fd5b34801561008157600080fd5b5061008a6101aa565b60405161009791906102d1565b60405180910390f35b3480156100ac57600080fd5b506100b56101bc565b6040516100c493929190610307565b60405180910390f35b3480156100d957600080fd5b506100f460048036038101906100ef919061036f565b6101d2565b60405161010191906102d1565b60405180910390f35b34801561011657600080fd5b5061011f6101e8565b60405161012d92919061039c565b60405180910390f35b34801561014257600080fd5b5061014b61027d565b60405161015891906102d1565b60405180910390f35b34801561016d57600080fd5b50610176610283565b60405161018391906102d1565b60405180910390f35b610194610299565b6040516101a191906102d1565b60405180910390f35b60006101b46102a1565b600054905090565b6000806000606f60de6001925092509250909192565b60006001826101e191906103f4565b9050919050565b6000806000803073ffffffffffffffffffffffffffffffffffffffff166364e94cc66040518163ffffffff1660e01b815260040160606040518083038186803b15801561023457600080fd5b505afa158015610248573d6000803e3d6000fd5b505050506040513d601f19601f8201168201806040525081019061026c919061048b565b925050915081819350935050509091565b60005481565b6000600160005461029491906103f4565b905090565b600047905090565b60016000546102b091906103f4565b600081905550565b6000819050919050565b6102cb816102b8565b82525050565b60006020820190506102e660008301846102c2565b92915050565b60008115159050919050565b610301816102ec565b82525050565b600060608201905061031c60008301866102c2565b61032960208301856102c2565b61033660408301846102f8565b949350505050565b600080fd5b61034c816102b8565b811461035757600080fd5b50565b60008135905061036981610343565b92915050565b6000602082840312156103855761038461033e565b5b60006103938482850161035a565b91505092915050565b60006040820190506103b160008301856102c2565b6103be60208301846102f8565b9392505050565b7f4e487b7100000000000000000000000000000000000000000000000000000000600052601160045260246000fd5b60006103ff826102b8565b915061040a836102b8565b9250827fffffffffffffffffffffffffffffffffffffffffffffffffffffffffffffffff0382111561043f5761043e6103c5565b5b828201905092915050565b60008151905061045981610343565b92915050565b610468816102ec565b811461047357600080fd5b50565b6000815190506104858161045f565b92915050565b6000806000606084860312156104a4576104a361033e565b5b60006104b28682870161044a565b93505060206104c38682870161044a565b92505060406104d486828701610476565b915050925092509256fea2646970667358221220682cb6ceb7267b3f243a1e1c3e581e5f3d6959e4e9ac78b9f42e26fd8bc5c4ed64736f6c63430008090033",
					"opcodes": "PUSH1 0x80 PUSH1 0x40 MSTORE PUSH1 0x0 DUP1 SSTORE CALLVALUE DUP1 ISZERO PUSH2 0x14 JUMPI PUSH1 0x0 DUP1 REVERT JUMPDEST POP PUSH2 0x514 DUP1 PUSH2 0x24 PUSH1 0x0 CODECOPY PUSH1 0x0 RETURN INVALID PUSH1 0x80 PUSH1 0x40 MSTORE PUSH1 0x4 CALLDATASIZE LT PUSH2 0x70 JUMPI PUSH1 0x0 CALLDATALOAD PUSH1 0xE0 SHR DUP1 PUSH4 0x7DCDC261 GT PUSH2 0x4E JUMPI DUP1 PUSH4 0x7DCDC261 EQ PUSH2 0x10A JUMPI DUP1 PUSH4 0x8381F58A EQ PUSH2 0x136 JUMPI DUP1 PUSH4 0xB262EB7F EQ PUSH2 0x161 JUMPI DUP1 PUSH4 0xF611BFED EQ PUSH2 0x18C JUMPI PUSH2 0x70 JUMP JUMPDEST DUP1 PUSH4 0x4F5C05C7 EQ PUSH2 0x75 JUMPI DUP1 PUSH4 0x64E94CC6 EQ PUSH2 0xA0 JUMPI DUP1 PUSH4 0x7032C4F2 EQ PUSH2 0xCD JUMPI JUMPDEST PUSH1 0x0 DUP1 REVERT JUMPDEST CALLVALUE DUP1 ISZERO PUSH2 0x81 JUMPI PUSH1 0x0 DUP1 REVERT JUMPDEST POP PUSH2 0x8A PUSH2 0x1AA JUMP JUMPDEST PUSH1 0x40 MLOAD PUSH2 0x97 SWAP2 SWAP1 PUSH2 0x2D1 JUMP JUMPDEST PUSH1 0x40 MLOAD DUP1 SWAP2 SUB SWAP1 RETURN JUMPDEST CALLVALUE DUP1 ISZERO PUSH2 0xAC JUMPI PUSH1 0x0 DUP1 REVERT JUMPDEST POP PUSH2 0xB5 PUSH2 0x1BC JUMP JUMPDEST PUSH1 0x40 MLOAD PUSH2 0xC4 SWAP4 SWAP3 SWAP2 SWAP1 PUSH2 0x307 JUMP JUMPDEST PUSH1 0x40 MLOAD DUP1 SWAP2 SUB SWAP1 RETURN JUMPDEST CALLVALUE DUP1 ISZERO PUSH2 0xD9 JUMPI PUSH1 0x0 DUP1 REVERT JUMPDEST POP PUSH2 0xF4 PUSH1 0x4 DUP1 CALLDATASIZE SUB DUP2 ADD SWAP1 PUSH2 0xEF SWAP2 SWAP1 PUSH2 0x36F JUMP JUMPDEST PUSH2 0x1D2 JUMP JUMPDEST PUSH1 0x40 MLOAD PUSH2 0x101 SWAP2 SWAP1 PUSH2 0x2D1 JUMP JUMPDEST PUSH1 0x40 MLOAD DUP1 SWAP2 SUB SWAP1 RETURN JUMPDEST CALLVALUE DUP1 ISZERO PUSH2 0x116 JUMPI PUSH1 0x0 DUP1 REVERT JUMPDEST POP PUSH2 0x11F PUSH2 0x1E8 JUMP JUMPDEST PUSH1 0x40 MLOAD PUSH2 0x12D SWAP3 SWAP2 SWAP1 PUSH2 0x39C JUMP JUMPDEST PUSH1 0x40 MLOAD DUP1 SWAP2 SUB SWAP1 RETURN JUMPDEST CALLVALUE DUP1 ISZERO PUSH2 0x142 JUMPI PUSH1 0x0 DUP1 REVERT JUMPDEST POP PUSH2 0x14B PUSH2 0x27D JUMP JUMPDEST PUSH1 0x40 MLOAD PUSH2 0x158 SWAP2 SWAP1 PUSH2 0x2D1 JUMP JUMPDEST PUSH1 0x40 MLOAD DUP1 SWAP2 SUB SWAP1 RETURN JUMPDEST CALLVALUE DUP1 ISZERO PUSH2 0x16D JUMPI PUSH1 0x0 DUP1 REVERT JUMPDEST POP PUSH2 0x176 PUSH2 0x283 JUMP JUMPDEST PUSH1 0x40 MLOAD PUSH2 0x183 SWAP2 SWAP1 PUSH2 0x2D1 JUMP JUMPDEST PUSH1 0x40 MLOAD DUP1 SWAP2 SUB SWAP1 RETURN JUMPDEST PUSH2 0x194 PUSH2 0x299 JUMP JUMPDEST PUSH1 0x40 MLOAD PUSH2 0x1A1 SWAP2 SWAP1 PUSH2 0x2D1 JUMP JUMPDEST PUSH1 0x40 MLOAD DUP1 SWAP2 SUB SWAP1 RETURN JUMPDEST PUSH1 0x0 PUSH2 0x1B4 PUSH2 0x2A1 JUMP JUMPDEST PUSH1 0x0 SLOAD SWAP1 POP SWAP1 JUMP JUMPDEST PUSH1 0x0 DUP1 PUSH1 0x0 PUSH1 0x6F PUSH1 0xDE PUSH1 0x1 SWAP3 POP SWAP3 POP SWAP3 POP SWAP1 SWAP2 SWAP3 JUMP JUMPDEST PUSH1 0x0 PUSH1 0x1 DUP3 PUSH2 0x1E1 SWAP2 SWAP1 PUSH2 0x3F4 JUMP JUMPDEST SWAP1 POP SWAP2 SWAP1 POP JUMP JUMPDEST PUSH1 0x0 DUP1 PUSH1 0x0 DUP1 ADDRESS PUSH20 0xFFFFFFFFFFFFFFFFFFFFFFFFFFFFFFFFFFFFFFFF AND PUSH4 0x64E94CC6 PUSH1 0x40 MLOAD DUP2 PUSH4 0xFFFFFFFF AND PUSH1 0xE0 SHL DUP2 MSTORE PUSH1 0x4 ADD PUSH1 0x60 PUSH1 0x40 MLOAD DUP1 DUP4 SUB DUP2 DUP7 DUP1 EXTCODESIZE ISZERO DUP1 ISZERO PUSH2 0x234 JUMPI PUSH1 0x0 DUP1 REVERT JUMPDEST POP GAS STATICCALL ISZERO DUP1 ISZERO PUSH2 0x248 JUMPI RETURNDATASIZE PUSH1 0x0 DUP1 RETURNDATACOPY RETURNDATASIZE PUSH1 0x0 REVERT JUMPDEST POP POP POP POP PUSH1 0x40 MLOAD RETURNDATASIZE PUSH1 0x1F NOT PUSH1 0x1F DUP3 ADD AND DUP3 ADD DUP1 PUSH1 0x40 MSTORE POP DUP2 ADD SWAP1 PUSH2 0x26C SWAP2 SWAP1 PUSH2 0x48B JUMP JUMPDEST SWAP3 POP POP SWAP2 POP DUP2 DUP2 SWAP4 POP SWAP4 POP POP POP SWAP1 SWAP2 JUMP JUMPDEST PUSH1 0x0 SLOAD DUP2 JUMP JUMPDEST PUSH1 0x0 PUSH1 0x1 PUSH1 0x0 SLOAD PUSH2 0x294 SWAP2 SWAP1 PUSH2 0x3F4 JUMP JUMPDEST SWAP1 POP SWAP1 JUMP JUMPDEST PUSH1 0x0 SELFBALANCE SWAP1 POP SWAP1 JUMP JUMPDEST PUSH1 0x1 PUSH1 0x0 SLOAD PUSH2 0x2B0 SWAP2 SWAP1 PUSH2 0x3F4 JUMP JUMPDEST PUSH1 0x0 DUP2 SWAP1 SSTORE POP JUMP JUMPDEST PUSH1 0x0 DUP2 SWAP1 POP SWAP2 SWAP1 POP JUMP JUMPDEST PUSH2 0x2CB DUP2 PUSH2 0x2B8 JUMP JUMPDEST DUP3 MSTORE POP POP JUMP JUMPDEST PUSH1 0x0 PUSH1 0x20 DUP3 ADD SWAP1 POP PUSH2 0x2E6 PUSH1 0x0 DUP4 ADD DUP5 PUSH2 0x2C2 JUMP JUMPDEST SWAP3 SWAP2 POP POP JUMP JUMPDEST PUSH1 0x0 DUP2 ISZERO ISZERO SWAP1 POP SWAP2 SWAP1 POP JUMP JUMPDEST PUSH2 0x301 DUP2 PUSH2 0x2EC JUMP JUMPDEST DUP3 MSTORE POP POP JUMP JUMPDEST PUSH1 0x0 PUSH1 0x60 DUP3 ADD SWAP1 POP PUSH2 0x31C PUSH1 0x0 DUP4 ADD DUP7 PUSH2 0x2C2 JUMP JUMPDEST PUSH2 0x329 PUSH1 0x20 DUP4 ADD DUP6 PUSH2 0x2C2 JUMP JUMPDEST PUSH2 0x336 PUSH1 0x40 DUP4 ADD DUP5 PUSH2 0x2F8 JUMP JUMPDEST SWAP5 SWAP4 POP POP POP POP JUMP JUMPDEST PUSH1 0x0 DUP1 REVERT JUMPDEST PUSH2 0x34C DUP2 PUSH2 0x2B8 JUMP JUMPDEST DUP2 EQ PUSH2 0x357 JUMPI PUSH1 0x0 DUP1 REVERT JUMPDEST POP JUMP JUMPDEST PUSH1 0x0 DUP2 CALLDATALOAD SWAP1 POP PUSH2 0x369 DUP2 PUSH2 0x343 JUMP JUMPDEST SWAP3 SWAP2 POP POP JUMP JUMPDEST PUSH1 0x0 PUSH1 0x20 DUP3 DUP5 SUB SLT ISZERO PUSH2 0x385 JUMPI PUSH2 0x384 PUSH2 0x33E JUMP JUMPDEST JUMPDEST PUSH1 0x0 PUSH2 0x393 DUP5 DUP3 DUP6 ADD PUSH2 0x35A JUMP JUMPDEST SWAP2 POP POP SWAP3 SWAP2 POP POP JUMP JUMPDEST PUSH1 0x0 PUSH1 0x40 DUP3 ADD SWAP1 POP PUSH2 0x3B1 PUSH1 0x0 DUP4 ADD DUP6 PUSH2 0x2C2 JUMP JUMPDEST PUSH2 0x3BE PUSH1 0x20 DUP4 ADD DUP5 PUSH2 0x2F8 JUMP JUMPDEST SWAP4 SWAP3 POP POP POP JUMP JUMPDEST PUSH32 0x4E487B7100000000000000000000000000000000000000000000000000000000 PUSH1 0x0 MSTORE PUSH1 0x11 PUSH1 0x4 MSTORE PUSH1 0x24 PUSH1 0x0 REVERT JUMPDEST PUSH1 0x0 PUSH2 0x3FF DUP3 PUSH2 0x2B8 JUMP JUMPDEST SWAP2 POP PUSH2 0x40A DUP4 PUSH2 0x2B8 JUMP JUMPDEST SWAP3 POP DUP3 PUSH32 0xFFFFFFFFFFFFFFFFFFFFFFFFFFFFFFFFFFFFFFFFFFFFFFFFFFFFFFFFFFFFFFFF SUB DUP3 GT ISZERO PUSH2 0x43F JUMPI PUSH2 0x43E PUSH2 0x3C5 JUMP JUMPDEST JUMPDEST DUP3 DUP3 ADD SWAP1 POP SWAP3 SWAP2 POP POP JUMP JUMPDEST PUSH1 0x0 DUP2 MLOAD SWAP1 POP PUSH2 0x459 DUP2 PUSH2 0x343 JUMP JUMPDEST SWAP3 SWAP2 POP POP JUMP JUMPDEST PUSH2 0x468 DUP2 PUSH2 0x2EC JUMP JUMPDEST DUP2 EQ PUSH2 0x473 JUMPI PUSH1 0x0 DUP1 REVERT JUMPDEST POP JUMP JUMPDEST PUSH1 0x0 DUP2 MLOAD SWAP1 POP PUSH2 0x485 DUP2 PUSH2 0x45F JUMP JUMPDEST SWAP3 SWAP2 POP POP JUMP JUMPDEST PUSH1 0x0 DUP1 PUSH1 0x0 PUSH1 0x60 DUP5 DUP7 SUB SLT ISZERO PUSH2 0x4A4 JUMPI PUSH2 0x4A3 PUSH2 0x33E JUMP JUMPDEST JUMPDEST PUSH1 0x0 PUSH2 0x4B2 DUP7 DUP3 DUP8 ADD PUSH2 0x44A JUMP JUMPDEST SWAP4 POP POP PUSH1 0x20 PUSH2 0x4C3 DUP7 DUP3 DUP8 ADD PUSH2 0x44A JUMP JUMPDEST SWAP3 POP POP PUSH1 0x40 PUSH2 0x4D4 DUP7 DUP3 DUP8 ADD PUSH2 0x476 JUMP JUMPDEST SWAP2 POP POP SWAP3 POP SWAP3 POP SWAP3 JUMP INVALID LOG2 PUSH5 0x6970667358 0x22 SLT KECCAK256 PUSH9 0x2CB6CEB7267B3F243A 0x1E SHR RETURNDATACOPY PC 0x1E 0x5F RETURNDATASIZE PUSH10 0x59E4E9AC78B9F42E26FD DUP12 0xC5 0xC4 0xED PUSH5 0x736F6C6343 STOP ADDMOD MULMOD STOP CALLER "
				},
				"gasEstimates": {
					"creation": {
						"codeDepositCost": "260000",
						"executionCost": "5306",
						"totalCost": "265306"
					},
					"external": {
						"addExternal()": "infinite",
						"addPayable()": "381",
						"addPure(uint256)": "infinite",
						"addView()": "infinite",
						"fnReturn()": "infinite",
						"fnReturn2()": "infinite",
						"number()": "2451"
					},
					"internal": {
						"addInternal()": "infinite"
					}
				},
				"methodIdentifiers": {
					"addExternal()": "4f5c05c7",
					"addPayable()": "f611bfed",
					"addPure(uint256)": "7032c4f2",
					"addView()": "b262eb7f",
					"fnReturn()": "64e94cc6",
					"fnReturn2()": "7dcdc261",
					"number()": "8381f58a"
				}
			},
			"storageLayout": {
				"storage": [
					{
						"astId": 4,
						"contract": "contracts/03FunctionTypes.sol:FunctionTypes",
						"label": "number",
						"offset": 0,
						"slot": "0",
						"type": "t_uint256"
					}
				],
				"types": {
					"t_uint256": {
						"encoding": "inplace",
						"label": "uint256",
						"numberOfBytes": "32"
					}
				}
			},
			"userdoc": {
				"kind": "user",
				"methods": {},
				"version": 1
			}
		}
	}
}