{
	"contracts/04VarStorage.sol": {
		"VarStorage": {
			"abi": [
				{
					"inputs": [
						{
							"internalType": "uint256",
							"name": "",
							"type": "uint256"
						}
					],
					"name": "arr1",
					"outputs": [
						{
							"internalType": "uint256",
							"name": "",
							"type": "uint256"
						}
					],
					"stateMutability": "view",
					"type": "function"
				},
				{
					"inputs": [
						{
							"internalType": "uint256",
							"name": "",
							"type": "uint256"
						}
					],
					"name": "arr2",
					"outputs": [
						{
							"internalType": "uint256",
							"name": "",
							"type": "uint256"
						}
					],
					"stateMutability": "view",
					"type": "function"
				},
				{
					"inputs": [
						{
							"internalType": "uint256[]",
							"name": "_x",
							"type": "uint256[]"
						}
					],
					"name": "fCalldata",
					"outputs": [
						{
							"internalType": "uint256[]",
							"name": "",
							"type": "uint256[]"
						}
					],
					"stateMutability": "pure",
					"type": "function"
				},
				{
					"inputs": [],
					"name": "fMemory",
					"outputs": [],
					"stateMutability": "view",
					"type": "function"
				}
			],
			"devdoc": {
				"kind": "dev",
				"methods": {},
				"version": 1
			},
			"evm": {
				"assembly": "    /* \"contracts/04VarStorage.sol\":1166:1871  contract VarStorage{... */\n  mstore(0x40, 0x80)\n    /* \"contracts/04VarStorage.sol\":1532:1550  uint[] x = [1,2,3] */\n  mload(0x40)\n  dup1\n  0x60\n  add\n  0x40\n  mstore\n  dup1\n    /* \"contracts/04VarStorage.sol\":1544:1545  1 */\n  0x01\n    /* \"contracts/04VarStorage.sol\":1532:1550  uint[] x = [1,2,3] */\n  0xff\n  and\n  dup2\n  mstore\n  0x20\n  add\n    /* \"contracts/04VarStorage.sol\":1546:1547  2 */\n  0x02\n    /* \"contracts/04VarStorage.sol\":1532:1550  uint[] x = [1,2,3] */\n  0xff\n  and\n  dup2\n  mstore\n  0x20\n  add\n    /* \"contracts/04VarStorage.sol\":1548:1549  3 */\n  0x03\n    /* \"contracts/04VarStorage.sol\":1532:1550  uint[] x = [1,2,3] */\n  0xff\n  and\n  dup2\n  mstore\n  pop\n  0x02\n  swap1\n  0x03\n  tag_1\n  swap3\n  swap2\n  swap1\n  tag_2\n  jump\t// in\ntag_1:\n  pop\n    /* \"contracts/04VarStorage.sol\":1166:1871  contract VarStorage{... */\n  callvalue\n  dup1\n  iszero\n  tag_3\n  jumpi\n  0x00\n  dup1\n  revert\ntag_3:\n  pop\n  jump(tag_4)\ntag_2:\n  dup3\n  dup1\n  sload\n  dup3\n  dup3\n  sstore\n  swap1\n  0x00\n  mstore\n  keccak256(0x00, 0x20)\n  swap1\n  dup2\n  add\n  swap3\n  dup3\n  iszero\n  tag_5\n  jumpi\n  swap2\n  0x20\n  mul\n  dup3\n  add\ntag_6:\n  dup3\n  dup2\n  gt\n  iszero\n  tag_7\n  jumpi\n  dup3\n  mload\n  dup3\n  swap1\n  0xff\n  and\n  swap1\n  sstore\n  swap2\n  0x20\n  add\n  swap2\n  swap1\n  0x01\n  add\n  swap1\n  jump(tag_6)\ntag_7:\ntag_5:\n  pop\n  swap1\n  pop\n  tag_8\n  swap2\n  swap1\n  tag_9\n  jump\t// in\ntag_8:\n  pop\n  swap1\n  jump\t// out\ntag_9:\ntag_10:\n  dup1\n  dup3\n  gt\n  iszero\n  tag_11\n  jumpi\n  0x00\n  dup2\n  0x00\n  swap1\n  sstore\n  pop\n  0x01\n  add\n  jump(tag_10)\ntag_11:\n  pop\n  swap1\n  jump\t// out\ntag_4:\n  dataSize(sub_0)\n  dup1\n  dataOffset(sub_0)\n  0x00\n  codecopy\n  0x00\n  return\nstop\n\nsub_0: assembly {\n        /* \"contracts/04VarStorage.sol\":1166:1871  contract VarStorage{... */\n      mstore(0x40, 0x80)\n      callvalue\n      dup1\n      iszero\n      tag_1\n      jumpi\n      0x00\n      dup1\n      revert\n    tag_1:\n      pop\n      jumpi(tag_2, lt(calldatasize, 0x04))\n      shr(0xe0, calldataload(0x00))\n      dup1\n      0x20028990\n      eq\n      tag_3\n      jumpi\n      dup1\n      0x6987b1fb\n      eq\n      tag_4\n      jumpi\n      dup1\n      0x9b1a379c\n      eq\n      tag_5\n      jumpi\n      dup1\n      0xedf0099b\n      eq\n      tag_6\n      jumpi\n    tag_2:\n      0x00\n      dup1\n      revert\n        /* \"contracts/04VarStorage.sol\":1590:1868  function fMemory() public view{... */\n    tag_3:\n      tag_7\n      tag_8\n      jump\t// in\n    tag_7:\n      stop\n        /* \"contracts/04VarStorage.sol\":1192:1210  uint[] public arr1 */\n    tag_4:\n      tag_9\n      0x04\n      dup1\n      calldatasize\n      sub\n      dup2\n      add\n      swap1\n      tag_10\n      swap2\n      swap1\n      tag_11\n      jump\t// in\n    tag_10:\n      tag_12\n      jump\t// in\n    tag_9:\n      mload(0x40)\n      tag_13\n      swap2\n      swap1\n      tag_14\n      jump\t// in\n    tag_13:\n      mload(0x40)\n      dup1\n      swap2\n      sub\n      swap1\n      return\n        /* \"contracts/04VarStorage.sol\":1244:1447  function fCalldata(uint[] calldata _x) public pure returns(uint[] calldata){... */\n    tag_5:\n      tag_15\n      0x04\n      dup1\n      calldatasize\n      sub\n      dup2\n      add\n      swap1\n      tag_16\n      swap2\n      swap1\n      tag_17\n      jump\t// in\n    tag_16:\n      tag_18\n      jump\t// in\n    tag_15:\n      mload(0x40)\n      tag_19\n      swap3\n      swap2\n      swap1\n      tag_20\n      jump\t// in\n    tag_19:\n      mload(0x40)\n      dup1\n      swap2\n      sub\n      swap1\n      return\n        /* \"contracts/04VarStorage.sol\":1217:1235  uint[] public arr2 */\n    tag_6:\n      tag_21\n      0x04\n      dup1\n      calldatasize\n      sub\n      dup2\n      add\n      swap1\n      tag_22\n      swap2\n      swap1\n      tag_11\n      jump\t// in\n    tag_22:\n      tag_23\n      jump\t// in\n    tag_21:\n      mload(0x40)\n      tag_24\n      swap2\n      swap1\n      tag_14\n      jump\t// in\n    tag_24:\n      mload(0x40)\n      dup1\n      swap2\n      sub\n      swap1\n      return\n        /* \"contracts/04VarStorage.sol\":1590:1868  function fMemory() public view{... */\n    tag_8:\n        /* \"contracts/04VarStorage.sol\":1716:1737  uint[] memory xMemory */\n      0x00\n        /* \"contracts/04VarStorage.sol\":1740:1741  x */\n      0x02\n        /* \"contracts/04VarStorage.sol\":1716:1741  uint[] memory xMemory = x */\n      dup1\n      sload\n      dup1\n      0x20\n      mul\n      0x20\n      add\n      mload(0x40)\n      swap1\n      dup2\n      add\n      0x40\n      mstore\n      dup1\n      swap3\n      swap2\n      swap1\n      dup2\n      dup2\n      mstore\n      0x20\n      add\n      dup3\n      dup1\n      sload\n      dup1\n      iszero\n      tag_26\n      jumpi\n      0x20\n      mul\n      dup3\n      add\n      swap2\n      swap1\n      0x00\n      mstore\n      keccak256(0x00, 0x20)\n      swap1\n    tag_27:\n      dup2\n      sload\n      dup2\n      mstore\n      0x20\n      add\n      swap1\n      0x01\n      add\n      swap1\n      dup1\n      dup4\n      gt\n      tag_27\n      jumpi\n    tag_26:\n      pop\n      pop\n      pop\n      pop\n      pop\n      swap1\n      pop\n        /* \"contracts/04VarStorage.sol\":1765:1768  100 */\n      0x64\n        /* \"contracts/04VarStorage.sol\":1752:1759  xMemory */\n      dup2\n        /* \"contracts/04VarStorage.sol\":1760:1761  0 */\n      0x00\n        /* \"contracts/04VarStorage.sol\":1752:1762  xMemory[0] */\n      dup2\n      mload\n      dup2\n      lt\n      tag_28\n      jumpi\n      tag_29\n      tag_30\n      jump\t// in\n    tag_29:\n    tag_28:\n      0x20\n      mul\n      0x20\n      add\n      add\n        /* \"contracts/04VarStorage.sol\":1752:1768  xMemory[0] = 100 */\n      dup2\n      dup2\n      mstore\n      pop\n      pop\n        /* \"contracts/04VarStorage.sol\":1792:1795  200 */\n      0xc8\n        /* \"contracts/04VarStorage.sol\":1779:1786  xMemory */\n      dup2\n        /* \"contracts/04VarStorage.sol\":1787:1788  1 */\n      0x01\n        /* \"contracts/04VarStorage.sol\":1779:1789  xMemory[1] */\n      dup2\n      mload\n      dup2\n      lt\n      tag_31\n      jumpi\n      tag_32\n      tag_30\n      jump\t// in\n    tag_32:\n    tag_31:\n      0x20\n      mul\n      0x20\n      add\n      add\n        /* \"contracts/04VarStorage.sol\":1779:1795  xMemory[1] = 200 */\n      dup2\n      dup2\n      mstore\n      pop\n      pop\n        /* \"contracts/04VarStorage.sol\":1806:1828  uint[] memory xMemory2 */\n      0x00\n        /* \"contracts/04VarStorage.sol\":1831:1832  x */\n      0x02\n        /* \"contracts/04VarStorage.sol\":1806:1832  uint[] memory xMemory2 = x */\n      dup1\n      sload\n      dup1\n      0x20\n      mul\n      0x20\n      add\n      mload(0x40)\n      swap1\n      dup2\n      add\n      0x40\n      mstore\n      dup1\n      swap3\n      swap2\n      swap1\n      dup2\n      dup2\n      mstore\n      0x20\n      add\n      dup3\n      dup1\n      sload\n      dup1\n      iszero\n      tag_33\n      jumpi\n      0x20\n      mul\n      dup3\n      add\n      swap2\n      swap1\n      0x00\n      mstore\n      keccak256(0x00, 0x20)\n      swap1\n    tag_34:\n      dup2\n      sload\n      dup2\n      mstore\n      0x20\n      add\n      swap1\n      0x01\n      add\n      swap1\n      dup1\n      dup4\n      gt\n      tag_34\n      jumpi\n    tag_33:\n      pop\n      pop\n      pop\n      pop\n      pop\n      swap1\n      pop\n        /* \"contracts/04VarStorage.sol\":1857:1860  300 */\n      0x012c\n        /* \"contracts/04VarStorage.sol\":1843:1851  xMemory2 */\n      dup2\n        /* \"contracts/04VarStorage.sol\":1852:1853  0 */\n      0x00\n        /* \"contracts/04VarStorage.sol\":1843:1854  xMemory2[0] */\n      dup2\n      mload\n      dup2\n      lt\n      tag_35\n      jumpi\n      tag_36\n      tag_30\n      jump\t// in\n    tag_36:\n    tag_35:\n      0x20\n      mul\n      0x20\n      add\n      add\n        /* \"contracts/04VarStorage.sol\":1843:1860  xMemory2[0] = 300 */\n      dup2\n      dup2\n      mstore\n      pop\n      pop\n        /* \"contracts/04VarStorage.sol\":1620:1868  {... */\n      pop\n      pop\n        /* \"contracts/04VarStorage.sol\":1590:1868  function fMemory() public view{... */\n      jump\t// out\n        /* \"contracts/04VarStorage.sol\":1192:1210  uint[] public arr1 */\n    tag_12:\n      0x00\n      dup2\n      dup2\n      sload\n      dup2\n      lt\n      tag_37\n      jumpi\n      0x00\n      dup1\n      revert\n    tag_37:\n      swap1\n      0x00\n      mstore\n      keccak256(0x00, 0x20)\n      add\n      0x00\n      swap2\n      pop\n      swap1\n      pop\n      sload\n      dup2\n      jump\t// out\n        /* \"contracts/04VarStorage.sol\":1244:1447  function fCalldata(uint[] calldata _x) public pure returns(uint[] calldata){... */\n    tag_18:\n        /* \"contracts/04VarStorage.sol\":1303:1318  uint[] calldata */\n      calldatasize\n      0x00\n        /* \"contracts/04VarStorage.sol\":1436:1438  _x */\n      dup4\n      dup4\n        /* \"contracts/04VarStorage.sol\":1429:1439  return(_x) */\n      swap2\n      pop\n      swap2\n      pop\n        /* \"contracts/04VarStorage.sol\":1244:1447  function fCalldata(uint[] calldata _x) public pure returns(uint[] calldata){... */\n      swap3\n      pop\n      swap3\n      swap1\n      pop\n      jump\t// out\n        /* \"contracts/04VarStorage.sol\":1217:1235  uint[] public arr2 */\n    tag_23:\n      0x01\n      dup2\n      dup2\n      sload\n      dup2\n      lt\n      tag_40\n      jumpi\n      0x00\n      dup1\n      revert\n    tag_40:\n      swap1\n      0x00\n      mstore\n      keccak256(0x00, 0x20)\n      add\n      0x00\n      swap2\n      pop\n      swap1\n      pop\n      sload\n      dup2\n      jump\t// out\n        /* \"#utility.yul\":88:205   */\n    tag_43:\n        /* \"#utility.yul\":197:198   */\n      0x00\n        /* \"#utility.yul\":194:195   */\n      dup1\n        /* \"#utility.yul\":187:199   */\n      revert\n        /* \"#utility.yul\":211:328   */\n    tag_44:\n        /* \"#utility.yul\":320:321   */\n      0x00\n        /* \"#utility.yul\":317:318   */\n      dup1\n        /* \"#utility.yul\":310:322   */\n      revert\n        /* \"#utility.yul\":334:411   */\n    tag_45:\n        /* \"#utility.yul\":371:378   */\n      0x00\n        /* \"#utility.yul\":400:405   */\n      dup2\n        /* \"#utility.yul\":389:405   */\n      swap1\n      pop\n        /* \"#utility.yul\":334:411   */\n      swap2\n      swap1\n      pop\n      jump\t// out\n        /* \"#utility.yul\":417:539   */\n    tag_46:\n        /* \"#utility.yul\":490:514   */\n      tag_63\n        /* \"#utility.yul\":508:513   */\n      dup2\n        /* \"#utility.yul\":490:514   */\n      tag_45\n      jump\t// in\n    tag_63:\n        /* \"#utility.yul\":483:488   */\n      dup2\n        /* \"#utility.yul\":480:515   */\n      eq\n        /* \"#utility.yul\":470:533   */\n      tag_64\n      jumpi\n        /* \"#utility.yul\":529:530   */\n      0x00\n        /* \"#utility.yul\":526:527   */\n      dup1\n        /* \"#utility.yul\":519:531   */\n      revert\n        /* \"#utility.yul\":470:533   */\n    tag_64:\n        /* \"#utility.yul\":417:539   */\n      pop\n      jump\t// out\n        /* \"#utility.yul\":545:684   */\n    tag_47:\n        /* \"#utility.yul\":591:596   */\n      0x00\n        /* \"#utility.yul\":629:635   */\n      dup2\n        /* \"#utility.yul\":616:636   */\n      calldataload\n        /* \"#utility.yul\":607:636   */\n      swap1\n      pop\n        /* \"#utility.yul\":645:678   */\n      tag_66\n        /* \"#utility.yul\":672:677   */\n      dup2\n        /* \"#utility.yul\":645:678   */\n      tag_46\n      jump\t// in\n    tag_66:\n        /* \"#utility.yul\":545:684   */\n      swap3\n      swap2\n      pop\n      pop\n      jump\t// out\n        /* \"#utility.yul\":690:1019   */\n    tag_11:\n        /* \"#utility.yul\":749:755   */\n      0x00\n        /* \"#utility.yul\":798:800   */\n      0x20\n        /* \"#utility.yul\":786:795   */\n      dup3\n        /* \"#utility.yul\":777:784   */\n      dup5\n        /* \"#utility.yul\":773:796   */\n      sub\n        /* \"#utility.yul\":769:801   */\n      slt\n        /* \"#utility.yul\":766:885   */\n      iszero\n      tag_68\n      jumpi\n        /* \"#utility.yul\":804:883   */\n      tag_69\n      tag_43\n      jump\t// in\n    tag_69:\n        /* \"#utility.yul\":766:885   */\n    tag_68:\n        /* \"#utility.yul\":924:925   */\n      0x00\n        /* \"#utility.yul\":949:1002   */\n      tag_70\n        /* \"#utility.yul\":994:1001   */\n      dup5\n        /* \"#utility.yul\":985:991   */\n      dup3\n        /* \"#utility.yul\":974:983   */\n      dup6\n        /* \"#utility.yul\":970:992   */\n      add\n        /* \"#utility.yul\":949:1002   */\n      tag_47\n      jump\t// in\n    tag_70:\n        /* \"#utility.yul\":939:1002   */\n      swap2\n      pop\n        /* \"#utility.yul\":895:1012   */\n      pop\n        /* \"#utility.yul\":690:1019   */\n      swap3\n      swap2\n      pop\n      pop\n      jump\t// out\n        /* \"#utility.yul\":1025:1143   */\n    tag_48:\n        /* \"#utility.yul\":1112:1136   */\n      tag_72\n        /* \"#utility.yul\":1130:1135   */\n      dup2\n        /* \"#utility.yul\":1112:1136   */\n      tag_45\n      jump\t// in\n    tag_72:\n        /* \"#utility.yul\":1107:1110   */\n      dup3\n        /* \"#utility.yul\":1100:1137   */\n      mstore\n        /* \"#utility.yul\":1025:1143   */\n      pop\n      pop\n      jump\t// out\n        /* \"#utility.yul\":1149:1371   */\n    tag_14:\n        /* \"#utility.yul\":1242:1246   */\n      0x00\n        /* \"#utility.yul\":1280:1282   */\n      0x20\n        /* \"#utility.yul\":1269:1278   */\n      dup3\n        /* \"#utility.yul\":1265:1283   */\n      add\n        /* \"#utility.yul\":1257:1283   */\n      swap1\n      pop\n        /* \"#utility.yul\":1293:1364   */\n      tag_74\n        /* \"#utility.yul\":1361:1362   */\n      0x00\n        /* \"#utility.yul\":1350:1359   */\n      dup4\n        /* \"#utility.yul\":1346:1363   */\n      add\n        /* \"#utility.yul\":1337:1343   */\n      dup5\n        /* \"#utility.yul\":1293:1364   */\n      tag_48\n      jump\t// in\n    tag_74:\n        /* \"#utility.yul\":1149:1371   */\n      swap3\n      swap2\n      pop\n      pop\n      jump\t// out\n        /* \"#utility.yul\":1377:1494   */\n    tag_49:\n        /* \"#utility.yul\":1486:1487   */\n      0x00\n        /* \"#utility.yul\":1483:1484   */\n      dup1\n        /* \"#utility.yul\":1476:1488   */\n      revert\n        /* \"#utility.yul\":1500:1617   */\n    tag_50:\n        /* \"#utility.yul\":1609:1610   */\n      0x00\n        /* \"#utility.yul\":1606:1607   */\n      dup1\n        /* \"#utility.yul\":1599:1611   */\n      revert\n        /* \"#utility.yul\":1623:1740   */\n    tag_51:\n        /* \"#utility.yul\":1732:1733   */\n      0x00\n        /* \"#utility.yul\":1729:1730   */\n      dup1\n        /* \"#utility.yul\":1722:1734   */\n      revert\n        /* \"#utility.yul\":1763:2331   */\n    tag_52:\n        /* \"#utility.yul\":1836:1844   */\n      0x00\n        /* \"#utility.yul\":1846:1852   */\n      dup1\n        /* \"#utility.yul\":1896:1899   */\n      dup4\n        /* \"#utility.yul\":1889:1893   */\n      0x1f\n        /* \"#utility.yul\":1881:1887   */\n      dup5\n        /* \"#utility.yul\":1877:1894   */\n      add\n        /* \"#utility.yul\":1873:1900   */\n      slt\n        /* \"#utility.yul\":1863:1985   */\n      tag_79\n      jumpi\n        /* \"#utility.yul\":1904:1983   */\n      tag_80\n      tag_49\n      jump\t// in\n    tag_80:\n        /* \"#utility.yul\":1863:1985   */\n    tag_79:\n        /* \"#utility.yul\":2017:2023   */\n      dup3\n        /* \"#utility.yul\":2004:2024   */\n      calldataload\n        /* \"#utility.yul\":1994:2024   */\n      swap1\n      pop\n        /* \"#utility.yul\":2047:2065   */\n      0xffffffffffffffff\n        /* \"#utility.yul\":2039:2045   */\n      dup2\n        /* \"#utility.yul\":2036:2066   */\n      gt\n        /* \"#utility.yul\":2033:2150   */\n      iszero\n      tag_81\n      jumpi\n        /* \"#utility.yul\":2069:2148   */\n      tag_82\n      tag_50\n      jump\t// in\n    tag_82:\n        /* \"#utility.yul\":2033:2150   */\n    tag_81:\n        /* \"#utility.yul\":2183:2187   */\n      0x20\n        /* \"#utility.yul\":2175:2181   */\n      dup4\n        /* \"#utility.yul\":2171:2188   */\n      add\n        /* \"#utility.yul\":2159:2188   */\n      swap2\n      pop\n        /* \"#utility.yul\":2237:2240   */\n      dup4\n        /* \"#utility.yul\":2229:2233   */\n      0x20\n        /* \"#utility.yul\":2221:2227   */\n      dup3\n        /* \"#utility.yul\":2217:2234   */\n      mul\n        /* \"#utility.yul\":2207:2215   */\n      dup4\n        /* \"#utility.yul\":2203:2235   */\n      add\n        /* \"#utility.yul\":2200:2241   */\n      gt\n        /* \"#utility.yul\":2197:2325   */\n      iszero\n      tag_83\n      jumpi\n        /* \"#utility.yul\":2244:2323   */\n      tag_84\n      tag_51\n      jump\t// in\n    tag_84:\n        /* \"#utility.yul\":2197:2325   */\n    tag_83:\n        /* \"#utility.yul\":1763:2331   */\n      swap3\n      pop\n      swap3\n      swap1\n      pop\n      jump\t// out\n        /* \"#utility.yul\":2337:2896   */\n    tag_17:\n        /* \"#utility.yul\":2423:2429   */\n      0x00\n        /* \"#utility.yul\":2431:2437   */\n      dup1\n        /* \"#utility.yul\":2480:2482   */\n      0x20\n        /* \"#utility.yul\":2468:2477   */\n      dup4\n        /* \"#utility.yul\":2459:2466   */\n      dup6\n        /* \"#utility.yul\":2455:2478   */\n      sub\n        /* \"#utility.yul\":2451:2483   */\n      slt\n        /* \"#utility.yul\":2448:2567   */\n      iszero\n      tag_86\n      jumpi\n        /* \"#utility.yul\":2486:2565   */\n      tag_87\n      tag_43\n      jump\t// in\n    tag_87:\n        /* \"#utility.yul\":2448:2567   */\n    tag_86:\n        /* \"#utility.yul\":2634:2635   */\n      0x00\n        /* \"#utility.yul\":2623:2632   */\n      dup4\n        /* \"#utility.yul\":2619:2636   */\n      add\n        /* \"#utility.yul\":2606:2637   */\n      calldataload\n        /* \"#utility.yul\":2664:2682   */\n      0xffffffffffffffff\n        /* \"#utility.yul\":2656:2662   */\n      dup2\n        /* \"#utility.yul\":2653:2683   */\n      gt\n        /* \"#utility.yul\":2650:2767   */\n      iszero\n      tag_88\n      jumpi\n        /* \"#utility.yul\":2686:2765   */\n      tag_89\n      tag_44\n      jump\t// in\n    tag_89:\n        /* \"#utility.yul\":2650:2767   */\n    tag_88:\n        /* \"#utility.yul\":2799:2879   */\n      tag_90\n        /* \"#utility.yul\":2871:2878   */\n      dup6\n        /* \"#utility.yul\":2862:2868   */\n      dup3\n        /* \"#utility.yul\":2851:2860   */\n      dup7\n        /* \"#utility.yul\":2847:2869   */\n      add\n        /* \"#utility.yul\":2799:2879   */\n      tag_52\n      jump\t// in\n    tag_90:\n        /* \"#utility.yul\":2781:2879   */\n      swap3\n      pop\n      swap3\n      pop\n        /* \"#utility.yul\":2577:2889   */\n      pop\n        /* \"#utility.yul\":2337:2896   */\n      swap3\n      pop\n      swap3\n      swap1\n      pop\n      jump\t// out\n        /* \"#utility.yul\":2902:3086   */\n    tag_53:\n        /* \"#utility.yul\":3001:3012   */\n      0x00\n        /* \"#utility.yul\":3035:3041   */\n      dup3\n        /* \"#utility.yul\":3030:3033   */\n      dup3\n        /* \"#utility.yul\":3023:3042   */\n      mstore\n        /* \"#utility.yul\":3075:3079   */\n      0x20\n        /* \"#utility.yul\":3070:3073   */\n      dup3\n        /* \"#utility.yul\":3066:3080   */\n      add\n        /* \"#utility.yul\":3051:3080   */\n      swap1\n      pop\n        /* \"#utility.yul\":2902:3086   */\n      swap3\n      swap2\n      pop\n      pop\n      jump\t// out\n        /* \"#utility.yul\":3092:3209   */\n    tag_54:\n        /* \"#utility.yul\":3201:3202   */\n      0x00\n        /* \"#utility.yul\":3198:3199   */\n      dup1\n        /* \"#utility.yul\":3191:3203   */\n      revert\n        /* \"#utility.yul\":3215:3369   */\n    tag_55:\n        /* \"#utility.yul\":3299:3305   */\n      dup3\n        /* \"#utility.yul\":3294:3297   */\n      dup2\n        /* \"#utility.yul\":3289:3292   */\n      dup4\n        /* \"#utility.yul\":3276:3306   */\n      calldatacopy\n        /* \"#utility.yul\":3361:3362   */\n      0x00\n        /* \"#utility.yul\":3352:3358   */\n      dup4\n        /* \"#utility.yul\":3347:3350   */\n      dup4\n        /* \"#utility.yul\":3343:3359   */\n      add\n        /* \"#utility.yul\":3336:3363   */\n      mstore\n        /* \"#utility.yul\":3215:3369   */\n      pop\n      pop\n      pop\n      jump\t// out\n        /* \"#utility.yul\":3405:3942   */\n    tag_56:\n        /* \"#utility.yul\":3533:3536   */\n      0x00\n        /* \"#utility.yul\":3554:3640   */\n      tag_95\n        /* \"#utility.yul\":3633:3639   */\n      dup4\n        /* \"#utility.yul\":3628:3631   */\n      dup6\n        /* \"#utility.yul\":3554:3640   */\n      tag_53\n      jump\t// in\n    tag_95:\n        /* \"#utility.yul\":3547:3640   */\n      swap4\n      pop\n        /* \"#utility.yul\":3664:3730   */\n      0x07ffffffffffffffffffffffffffffffffffffffffffffffffffffffffffffff\n        /* \"#utility.yul\":3656:3662   */\n      dup4\n        /* \"#utility.yul\":3653:3731   */\n      gt\n        /* \"#utility.yul\":3650:3815   */\n      iszero\n      tag_96\n      jumpi\n        /* \"#utility.yul\":3734:3813   */\n      tag_97\n      tag_54\n      jump\t// in\n    tag_97:\n        /* \"#utility.yul\":3650:3815   */\n    tag_96:\n        /* \"#utility.yul\":3846:3850   */\n      0x20\n        /* \"#utility.yul\":3838:3844   */\n      dup4\n        /* \"#utility.yul\":3834:3851   */\n      mul\n        /* \"#utility.yul\":3824:3851   */\n      swap3\n      pop\n        /* \"#utility.yul\":3861:3904   */\n      tag_98\n        /* \"#utility.yul\":3897:3903   */\n      dup4\n        /* \"#utility.yul\":3892:3895   */\n      dup6\n        /* \"#utility.yul\":3885:3890   */\n      dup5\n        /* \"#utility.yul\":3861:3904   */\n      tag_55\n      jump\t// in\n    tag_98:\n        /* \"#utility.yul\":3929:3935   */\n      dup3\n        /* \"#utility.yul\":3924:3927   */\n      dup5\n        /* \"#utility.yul\":3920:3936   */\n      add\n        /* \"#utility.yul\":3913:3936   */\n      swap1\n      pop\n        /* \"#utility.yul\":3405:3942   */\n      swap4\n      swap3\n      pop\n      pop\n      pop\n      jump\t// out\n        /* \"#utility.yul\":3948:4341   */\n    tag_20:\n        /* \"#utility.yul\":4101:4105   */\n      0x00\n        /* \"#utility.yul\":4139:4141   */\n      0x20\n        /* \"#utility.yul\":4128:4137   */\n      dup3\n        /* \"#utility.yul\":4124:4142   */\n      add\n        /* \"#utility.yul\":4116:4142   */\n      swap1\n      pop\n        /* \"#utility.yul\":4188:4197   */\n      dup2\n        /* \"#utility.yul\":4182:4186   */\n      dup2\n        /* \"#utility.yul\":4178:4198   */\n      sub\n        /* \"#utility.yul\":4174:4175   */\n      0x00\n        /* \"#utility.yul\":4163:4172   */\n      dup4\n        /* \"#utility.yul\":4159:4176   */\n      add\n        /* \"#utility.yul\":4152:4199   */\n      mstore\n        /* \"#utility.yul\":4216:4334   */\n      tag_100\n        /* \"#utility.yul\":4329:4333   */\n      dup2\n        /* \"#utility.yul\":4320:4326   */\n      dup5\n        /* \"#utility.yul\":4312:4318   */\n      dup7\n        /* \"#utility.yul\":4216:4334   */\n      tag_56\n      jump\t// in\n    tag_100:\n        /* \"#utility.yul\":4208:4334   */\n      swap1\n      pop\n        /* \"#utility.yul\":3948:4341   */\n      swap4\n      swap3\n      pop\n      pop\n      pop\n      jump\t// out\n        /* \"#utility.yul\":4347:4527   */\n    tag_30:\n        /* \"#utility.yul\":4395:4472   */\n      0x4e487b7100000000000000000000000000000000000000000000000000000000\n        /* \"#utility.yul\":4392:4393   */\n      0x00\n        /* \"#utility.yul\":4385:4473   */\n      mstore\n        /* \"#utility.yul\":4492:4496   */\n      0x32\n        /* \"#utility.yul\":4489:4490   */\n      0x04\n        /* \"#utility.yul\":4482:4497   */\n      mstore\n        /* \"#utility.yul\":4516:4520   */\n      0x24\n        /* \"#utility.yul\":4513:4514   */\n      0x00\n        /* \"#utility.yul\":4506:4521   */\n      revert\n\n    auxdata: 0xa2646970667358221220f61e6588c3ec05a208140ea30eae9808005eb6568476b483b8c9352f0d9978ab64736f6c63430008090033\n}\n",
				"bytecode": {
					"linkReferences": {},
					"object": "60806040526040518060600160405280600160ff168152602001600260ff168152602001600360ff16815250600290600361003b92919061004e565b5034801561004857600080fd5b506100bd565b82805482825590600052602060002090810192821561008f579160200282015b8281111561008e578251829060ff1690559160200191906001019061006e565b5b50905061009c91906100a0565b5090565b5b808211156100b95760008160009055506001016100a1565b5090565b6104ac806100cc6000396000f3fe608060405234801561001057600080fd5b506004361061004c5760003560e01c806320028990146100515780636987b1fb1461005b5780639b1a379c1461008b578063edf0099b146100bc575b600080fd5b6100596100ec565b005b61007560048036038101906100709190610299565b610201565b60405161008291906102d5565b60405180910390f35b6100a560048036038101906100a09190610355565b610225565b6040516100b3929190610423565b60405180910390f35b6100d660048036038101906100d19190610299565b610235565b6040516100e391906102d5565b60405180910390f35b6000600280548060200260200160405190810160405280929190818152602001828054801561013a57602002820191906000526020600020905b815481526020019060010190808311610126575b5050505050905060648160008151811061015757610156610447565b5b60200260200101818152505060c88160018151811061017957610178610447565b5b602002602001018181525050600060028054806020026020016040519081016040528092919081815260200182805480156101d357602002820191906000526020600020905b8154815260200190600101908083116101bf575b5050505050905061012c816000815181106101f1576101f0610447565b5b6020026020010181815250505050565b6000818154811061021157600080fd5b906000526020600020016000915090505481565b3660008383915091509250929050565b6001818154811061024557600080fd5b906000526020600020016000915090505481565b600080fd5b600080fd5b6000819050919050565b61027681610263565b811461028157600080fd5b50565b6000813590506102938161026d565b92915050565b6000602082840312156102af576102ae610259565b5b60006102bd84828501610284565b91505092915050565b6102cf81610263565b82525050565b60006020820190506102ea60008301846102c6565b92915050565b600080fd5b600080fd5b600080fd5b60008083601f840112610315576103146102f0565b5b8235905067ffffffffffffffff811115610332576103316102f5565b5b60208301915083602082028301111561034e5761034d6102fa565b5b9250929050565b6000806020838503121561036c5761036b610259565b5b600083013567ffffffffffffffff81111561038a5761038961025e565b5b610396858286016102ff565b92509250509250929050565b600082825260208201905092915050565b600080fd5b82818337600083830152505050565b60006103d383856103a2565b93507f07ffffffffffffffffffffffffffffffffffffffffffffffffffffffffffffff831115610406576104056103b3565b5b6020830292506104178385846103b8565b82840190509392505050565b6000602082019050818103600083015261043e8184866103c7565b90509392505050565b7f4e487b7100000000000000000000000000000000000000000000000000000000600052603260045260246000fdfea2646970667358221220f61e6588c3ec05a208140ea30eae9808005eb6568476b483b8c9352f0d9978ab64736f6c63430008090033",
					"opcodes": "PUSH1 0x80 PUSH1 0x40 MSTORE PUSH1 0x40 MLOAD DUP1 PUSH1 0x60 ADD PUSH1 0x40 MSTORE DUP1 PUSH1 0x1 PUSH1 0xFF AND DUP2 MSTORE PUSH1 0x20 ADD PUSH1 0x2 PUSH1 0xFF AND DUP2 MSTORE PUSH1 0x20 ADD PUSH1 0x3 PUSH1 0xFF AND DUP2 MSTORE POP PUSH1 0x2 SWAP1 PUSH1 0x3 PUSH2 0x3B SWAP3 SWAP2 SWAP1 PUSH2 0x4E JUMP JUMPDEST POP CALLVALUE DUP1 ISZERO PUSH2 0x48 JUMPI PUSH1 0x0 DUP1 REVERT JUMPDEST POP PUSH2 0xBD JUMP JUMPDEST DUP3 DUP1 SLOAD DUP3 DUP3 SSTORE SWAP1 PUSH1 0x0 MSTORE PUSH1 0x20 PUSH1 0x0 KECCAK256 SWAP1 DUP2 ADD SWAP3 DUP3 ISZERO PUSH2 0x8F JUMPI SWAP2 PUSH1 0x20 MUL DUP3 ADD JUMPDEST DUP3 DUP2 GT ISZERO PUSH2 0x8E JUMPI DUP3 MLOAD DUP3 SWAP1 PUSH1 0xFF AND SWAP1 SSTORE SWAP2 PUSH1 0x20 ADD SWAP2 SWAP1 PUSH1 0x1 ADD SWAP1 PUSH2 0x6E JUMP JUMPDEST JUMPDEST POP SWAP1 POP PUSH2 0x9C SWAP2 SWAP1 PUSH2 0xA0 JUMP JUMPDEST POP SWAP1 JUMP JUMPDEST JUMPDEST DUP1 DUP3 GT ISZERO PUSH2 0xB9 JUMPI PUSH1 0x0 DUP2 PUSH1 0x0 SWAP1 SSTORE POP PUSH1 0x1 ADD PUSH2 0xA1 JUMP JUMPDEST POP SWAP1 JUMP JUMPDEST PUSH2 0x4AC DUP1 PUSH2 0xCC PUSH1 0x0 CODECOPY PUSH1 0x0 RETURN INVALID PUSH1 0x80 PUSH1 0x40 MSTORE CALLVALUE DUP1 ISZERO PUSH2 0x10 JUMPI PUSH1 0x0 DUP1 REVERT JUMPDEST POP PUSH1 0x4 CALLDATASIZE LT PUSH2 0x4C JUMPI PUSH1 0x0 CALLDATALOAD PUSH1 0xE0 SHR DUP1 PUSH4 0x20028990 EQ PUSH2 0x51 JUMPI DUP1 PUSH4 0x6987B1FB EQ PUSH2 0x5B JUMPI DUP1 PUSH4 0x9B1A379C EQ PUSH2 0x8B JUMPI DUP1 PUSH4 0xEDF0099B EQ PUSH2 0xBC JUMPI JUMPDEST PUSH1 0x0 DUP1 REVERT JUMPDEST PUSH2 0x59 PUSH2 0xEC JUMP JUMPDEST STOP JUMPDEST PUSH2 0x75 PUSH1 0x4 DUP1 CALLDATASIZE SUB DUP2 ADD SWAP1 PUSH2 0x70 SWAP2 SWAP1 PUSH2 0x299 JUMP JUMPDEST PUSH2 0x201 JUMP JUMPDEST PUSH1 0x40 MLOAD PUSH2 0x82 SWAP2 SWAP1 PUSH2 0x2D5 JUMP JUMPDEST PUSH1 0x40 MLOAD DUP1 SWAP2 SUB SWAP1 RETURN JUMPDEST PUSH2 0xA5 PUSH1 0x4 DUP1 CALLDATASIZE SUB DUP2 ADD SWAP1 PUSH2 0xA0 SWAP2 SWAP1 PUSH2 0x355 JUMP JUMPDEST PUSH2 0x225 JUMP JUMPDEST PUSH1 0x40 MLOAD PUSH2 0xB3 SWAP3 SWAP2 SWAP1 PUSH2 0x423 JUMP JUMPDEST PUSH1 0x40 MLOAD DUP1 SWAP2 SUB SWAP1 RETURN JUMPDEST PUSH2 0xD6 PUSH1 0x4 DUP1 CALLDATASIZE SUB DUP2 ADD SWAP1 PUSH2 0xD1 SWAP2 SWAP1 PUSH2 0x299 JUMP JUMPDEST PUSH2 0x235 JUMP JUMPDEST PUSH1 0x40 MLOAD PUSH2 0xE3 SWAP2 SWAP1 PUSH2 0x2D5 JUMP JUMPDEST PUSH1 0x40 MLOAD DUP1 SWAP2 SUB SWAP1 RETURN JUMPDEST PUSH1 0x0 PUSH1 0x2 DUP1 SLOAD DUP1 PUSH1 0x20 MUL PUSH1 0x20 ADD PUSH1 0x40 MLOAD SWAP1 DUP2 ADD PUSH1 0x40 MSTORE DUP1 SWAP3 SWAP2 SWAP1 DUP2 DUP2 MSTORE PUSH1 0x20 ADD DUP3 DUP1 SLOAD DUP1 ISZERO PUSH2 0x13A JUMPI PUSH1 0x20 MUL DUP3 ADD SWAP2 SWAP1 PUSH1 0x0 MSTORE PUSH1 0x20 PUSH1 0x0 KECCAK256 SWAP1 JUMPDEST DUP2 SLOAD DUP2 MSTORE PUSH1 0x20 ADD SWAP1 PUSH1 0x1 ADD SWAP1 DUP1 DUP4 GT PUSH2 0x126 JUMPI JUMPDEST POP POP POP POP POP SWAP1 POP PUSH1 0x64 DUP2 PUSH1 0x0 DUP2 MLOAD DUP2 LT PUSH2 0x157 JUMPI PUSH2 0x156 PUSH2 0x447 JUMP JUMPDEST JUMPDEST PUSH1 0x20 MUL PUSH1 0x20 ADD ADD DUP2 DUP2 MSTORE POP POP PUSH1 0xC8 DUP2 PUSH1 0x1 DUP2 MLOAD DUP2 LT PUSH2 0x179 JUMPI PUSH2 0x178 PUSH2 0x447 JUMP JUMPDEST JUMPDEST PUSH1 0x20 MUL PUSH1 0x20 ADD ADD DUP2 DUP2 MSTORE POP POP PUSH1 0x0 PUSH1 0x2 DUP1 SLOAD DUP1 PUSH1 0x20 MUL PUSH1 0x20 ADD PUSH1 0x40 MLOAD SWAP1 DUP2 ADD PUSH1 0x40 MSTORE DUP1 SWAP3 SWAP2 SWAP1 DUP2 DUP2 MSTORE PUSH1 0x20 ADD DUP3 DUP1 SLOAD DUP1 ISZERO PUSH2 0x1D3 JUMPI PUSH1 0x20 MUL DUP3 ADD SWAP2 SWAP1 PUSH1 0x0 MSTORE PUSH1 0x20 PUSH1 0x0 KECCAK256 SWAP1 JUMPDEST DUP2 SLOAD DUP2 MSTORE PUSH1 0x20 ADD SWAP1 PUSH1 0x1 ADD SWAP1 DUP1 DUP4 GT PUSH2 0x1BF JUMPI JUMPDEST POP POP POP POP POP SWAP1 POP PUSH2 0x12C DUP2 PUSH1 0x0 DUP2 MLOAD DUP2 LT PUSH2 0x1F1 JUMPI PUSH2 0x1F0 PUSH2 0x447 JUMP JUMPDEST JUMPDEST PUSH1 0x20 MUL PUSH1 0x20 ADD ADD DUP2 DUP2 MSTORE POP POP POP POP JUMP JUMPDEST PUSH1 0x0 DUP2 DUP2 SLOAD DUP2 LT PUSH2 0x211 JUMPI PUSH1 0x0 DUP1 REVERT JUMPDEST SWAP1 PUSH1 0x0 MSTORE PUSH1 0x20 PUSH1 0x0 KECCAK256 ADD PUSH1 0x0 SWAP2 POP SWAP1 POP SLOAD DUP2 JUMP JUMPDEST CALLDATASIZE PUSH1 0x0 DUP4 DUP4 SWAP2 POP SWAP2 POP SWAP3 POP SWAP3 SWAP1 POP JUMP JUMPDEST PUSH1 0x1 DUP2 DUP2 SLOAD DUP2 LT PUSH2 0x245 JUMPI PUSH1 0x0 DUP1 REVERT JUMPDEST SWAP1 PUSH1 0x0 MSTORE PUSH1 0x20 PUSH1 0x0 KECCAK256 ADD PUSH1 0x0 SWAP2 POP SWAP1 POP SLOAD DUP2 JUMP JUMPDEST PUSH1 0x0 DUP1 REVERT JUMPDEST PUSH1 0x0 DUP1 REVERT JUMPDEST PUSH1 0x0 DUP2 SWAP1 POP SWAP2 SWAP1 POP JUMP JUMPDEST PUSH2 0x276 DUP2 PUSH2 0x263 JUMP JUMPDEST DUP2 EQ PUSH2 0x281 JUMPI PUSH1 0x0 DUP1 REVERT JUMPDEST POP JUMP JUMPDEST PUSH1 0x0 DUP2 CALLDATALOAD SWAP1 POP PUSH2 0x293 DUP2 PUSH2 0x26D JUMP JUMPDEST SWAP3 SWAP2 POP POP JUMP JUMPDEST PUSH1 0x0 PUSH1 0x20 DUP3 DUP5 SUB SLT ISZERO PUSH2 0x2AF JUMPI PUSH2 0x2AE PUSH2 0x259 JUMP JUMPDEST JUMPDEST PUSH1 0x0 PUSH2 0x2BD DUP5 DUP3 DUP6 ADD PUSH2 0x284 JUMP JUMPDEST SWAP2 POP POP SWAP3 SWAP2 POP POP JUMP JUMPDEST PUSH2 0x2CF DUP2 PUSH2 0x263 JUMP JUMPDEST DUP3 MSTORE POP POP JUMP JUMPDEST PUSH1 0x0 PUSH1 0x20 DUP3 ADD SWAP1 POP PUSH2 0x2EA PUSH1 0x0 DUP4 ADD DUP5 PUSH2 0x2C6 JUMP JUMPDEST SWAP3 SWAP2 POP POP JUMP JUMPDEST PUSH1 0x0 DUP1 REVERT JUMPDEST PUSH1 0x0 DUP1 REVERT JUMPDEST PUSH1 0x0 DUP1 REVERT JUMPDEST PUSH1 0x0 DUP1 DUP4 PUSH1 0x1F DUP5 ADD SLT PUSH2 0x315 JUMPI PUSH2 0x314 PUSH2 0x2F0 JUMP JUMPDEST JUMPDEST DUP3 CALLDATALOAD SWAP1 POP PUSH8 0xFFFFFFFFFFFFFFFF DUP2 GT ISZERO PUSH2 0x332 JUMPI PUSH2 0x331 PUSH2 0x2F5 JUMP JUMPDEST JUMPDEST PUSH1 0x20 DUP4 ADD SWAP2 POP DUP4 PUSH1 0x20 DUP3 MUL DUP4 ADD GT ISZERO PUSH2 0x34E JUMPI PUSH2 0x34D PUSH2 0x2FA JUMP JUMPDEST JUMPDEST SWAP3 POP SWAP3 SWAP1 POP JUMP JUMPDEST PUSH1 0x0 DUP1 PUSH1 0x20 DUP4 DUP6 SUB SLT ISZERO PUSH2 0x36C JUMPI PUSH2 0x36B PUSH2 0x259 JUMP JUMPDEST JUMPDEST PUSH1 0x0 DUP4 ADD CALLDATALOAD PUSH8 0xFFFFFFFFFFFFFFFF DUP2 GT ISZERO PUSH2 0x38A JUMPI PUSH2 0x389 PUSH2 0x25E JUMP JUMPDEST JUMPDEST PUSH2 0x396 DUP6 DUP3 DUP7 ADD PUSH2 0x2FF JUMP JUMPDEST SWAP3 POP SWAP3 POP POP SWAP3 POP SWAP3 SWAP1 POP JUMP JUMPDEST PUSH1 0x0 DUP3 DUP3 MSTORE PUSH1 0x20 DUP3 ADD SWAP1 POP SWAP3 SWAP2 POP POP JUMP JUMPDEST PUSH1 0x0 DUP1 REVERT JUMPDEST DUP3 DUP2 DUP4 CALLDATACOPY PUSH1 0x0 DUP4 DUP4 ADD MSTORE POP POP POP JUMP JUMPDEST PUSH1 0x0 PUSH2 0x3D3 DUP4 DUP6 PUSH2 0x3A2 JUMP JUMPDEST SWAP4 POP PUSH32 0x7FFFFFFFFFFFFFFFFFFFFFFFFFFFFFFFFFFFFFFFFFFFFFFFFFFFFFFFFFFFFFF DUP4 GT ISZERO PUSH2 0x406 JUMPI PUSH2 0x405 PUSH2 0x3B3 JUMP JUMPDEST JUMPDEST PUSH1 0x20 DUP4 MUL SWAP3 POP PUSH2 0x417 DUP4 DUP6 DUP5 PUSH2 0x3B8 JUMP JUMPDEST DUP3 DUP5 ADD SWAP1 POP SWAP4 SWAP3 POP POP POP JUMP JUMPDEST PUSH1 0x0 PUSH1 0x20 DUP3 ADD SWAP1 POP DUP2 DUP2 SUB PUSH1 0x0 DUP4 ADD MSTORE PUSH2 0x43E DUP2 DUP5 DUP7 PUSH2 0x3C7 JUMP JUMPDEST SWAP1 POP SWAP4 SWAP3 POP POP POP JUMP JUMPDEST PUSH32 0x4E487B7100000000000000000000000000000000000000000000000000000000 PUSH1 0x0 MSTORE PUSH1 0x32 PUSH1 0x4 MSTORE PUSH1 0x24 PUSH1 0x0 REVERT INVALID LOG2 PUSH5 0x6970667358 0x22 SLT KECCAK256 0xF6 0x1E PUSH6 0x88C3EC05A208 EQ 0xE LOG3 0xE 0xAE SWAP9 ADDMOD STOP 0x5E 0xB6 JUMP DUP5 PUSH23 0xB483B8C9352F0D9978AB64736F6C634300080900330000 "
				},
				"gasEstimates": {
					"creation": {
						"codeDepositCost": "239200",
						"executionCost": "infinite",
						"totalCost": "infinite"
					},
					"external": {
						"arr1(uint256)": "infinite",
						"arr2(uint256)": "infinite",
						"fCalldata(uint256[])": "infinite",
						"fMemory()": "infinite"
					}
				},
				"methodIdentifiers": {
					"arr1(uint256)": "6987b1fb",
					"arr2(uint256)": "edf0099b",
					"fCalldata(uint256[])": "9b1a379c",
					"fMemory()": "20028990"
				}
			},
			"storageLayout": {
				"storage": [
					{
						"astId": 4,
						"contract": "contracts/04VarStorage.sol:VarStorage",
						"label": "arr1",
						"offset": 0,
						"slot": "0",
						"type": "t_array(t_uint256)dyn_storage"
					},
					{
						"astId": 7,
						"contract": "contracts/04VarStorage.sol:VarStorage",
						"label": "arr2",
						"offset": 0,
						"slot": "1",
						"type": "t_array(t_uint256)dyn_storage"
					},
					{
						"astId": 27,
						"contract": "contracts/04VarStorage.sol:VarStorage",
						"label": "x",
						"offset": 0,
						"slot": "2",
						"type": "t_array(t_uint256)dyn_storage"
					}
				],
				"types": {
					"t_array(t_uint256)dyn_storage": {
						"base": "t_uint256",
						"encoding": "dynamic_array",
						"label": "uint256[]",
						"numberOfBytes": "32"
					},
					"t_uint256": {
						"encoding": "inplace",
						"label": "uint256",
						"numberOfBytes": "32"
					}
				}
			},
			"userdoc": {
				"kind": "user",
				"methods": {},
				"version": 1
			}
		}
	}
}